:020000040000FA
:1000000000020010950100009D0100009F0100000A
:10001000A1010000A3010000A501000000000000F4
:10002000000000000000000000000000A701000028
:10003000A901000000000000AB010000AD010000BC
:10004000AF010000AF010000B3410000AF010000AC
:10005000AF010000F3400000AF010000AF0100005D
:10006000AF010000AF010000AF010000AF010000D0
:10007000AF010000AF010000AF010000AF010000C0
:10008000AF010000AF010000AF010000AF010000B0
:10009000AF010000AF010000AF010000AF010000A0
:1000A000AF010000AF010000AF010000AF01000090
:1000B000AF010000AF010000AF010000AF01000080
:1000C000AF010000AF010000AF01000000F002F836
:1000D00000F050F80AA090E8000C82448344AAF192
:1000E0000107DA4501D100F045F8AFF2090EBAE890
:1000F0000F0013F0010F18BFFB1A43F0010318475C
:10010000CC740000FC740000103A24BF78C878C199
:10011000FAD8520724BF30C830C144BF04680C600D
:10012000704700000023002400250026103A28BF55
:1001300078C1FBD8520728BF30C148BF0B60704759
:10014000662906F05C86642904F0B682632904F00F
:100150003A86732904F03F86002070471FB504F0EB
:100160003FFE04000020002105F030FEE0601FBDCE
:1001700010B510BD04F038FF1146FFF7EFFF00F097
:10018000A7F804F056FF03B4FFF7F2FF03BC04F036
:1001900099FF00000948804709480047FEE7FEE74D
:1001A000FEE7FEE7FEE7FEE7FEE7FEE7FEE7FEE727
:1001B00004480549034A054B704700002D04000020
:1001C000CD000000E0C00720000200100000001079
:1001D000F0B504460B461546194660003B4A102907
:1001E00001D31039401C52F820604FEA410C03271C
:1001F00007FA0CF7BE4342F8206052F820604F0027
:1002000005FA07F73E4342F82060F0BDF0B504461A
:100210000B461546194660002C4A4032102901D37E
:100220001039401C52F820604FEA410C032707FAAE
:100230000CF7BE4342F8206052F820604F0005FAE8
:1002400007F73E4342F82060F0BD30B50B461F492A
:100250006831012A07D151F8204001259D402C43E7
:1002600041F8204006E051F8204001259D40AC4374
:1002700041F8204030BD012806D11449896A41F077
:100280000801124A916206E028B91049896A21F0F2
:1002900008010E4A91627047012800D1052201B978
:1002A0000A220A4BDA67704710B50446A2786178D3
:1002B0002078FFF78DFFE27861782078FFF7A6FFBE
:1002C000227961782078FFF7C0FF10BD00C002409E
:1002D00003F0CAFD01E003F085FEFCE700BFFEE786
:1002E00070477047704710B504F07EFD006810BD80
:1002F00010B5044604F078FD046010BDFFFFFFFF59
:1003000097480068C0F3016003285DD194488430A9
:10031000006800F0030030B1012820D0022839D055
:10032000032850D100E000BF8D480068C0F30E00E4
:10033000401C40008B49484389498839D1F88810CE
:10034000C1F30741491CB0FBF1F185487C300068DE
:10035000C0B2401CB1FBF0F08349086033E0804834
:100360000068C0F30E00401C4000804948437C49AF
:100370008839D1F88810C1F30741491CB0FBF1F16D
:1003800077487C300068C0B2401CB1FBF0F0764981
:10039000086018E072480068C0F30E00401C0104B9
:1003A0006F488838D0F88800C0F30740401CB1FB84
:1003B000F0F16B487C300068C0B2401CB1FBF0F03B
:1003C0006949086000BF30E065488430006800F08B
:1003D000030030B1012810D0022819D0032823D1FE
:1003E00000E000BF5E487C300068C0B2401C5D4940
:1003F000B1FBF0F05C49086016E059487C300068B9
:10040000C0B2401C5949B1FBF0F0574908600BE0FD
:1004100053487C300068C0B2401C4FF40041B1FB2F
:10042000F0F05149086000BF00BF704720205049DC
:1004300008604B488838D0F8A00100F0200030B1A7
:1004400000BF4B48006800F040000028F9D00320AE
:1004500043497C310860002041498839C1F8A8012E
:1004600043490C31086001203D498431086041480E
:100470003B49091F0860AA203949091D0860552019
:1004800008600120364908390860AA203449091D4E
:100490000860552032498839C1F88C0000BF3048C7
:1004A000006800F080600028F9D003202C4908394A
:1004B0000860AA202A498839C1F88C0055202849AB
:1004C000091D086000BF2648006800F04070002841
:1004D000F9D0232022491C310860AA2020498839FC
:1004E000C1F8AC0055201E492431086001201C4988
:1004F00018310860AA201A4924310860552018498B
:100500008839C1F8AC0000BF15482030006800F4FD
:1005100080600028F8D00320114918310860AA2013
:100520000F498839C1F8AC0055200D4924310860C5
:1005300000BF0B482030006800F440700028F8D05D
:100540000D4807493C310860002005498839C1F849
:10055000C80143F23A00086000200849086070476B
:1005600088C00F4000093D0000C00720001BB700F5
:10057000A0C10F4063000500DE87280408ED00E0FD
:1005800010B50A46202801D2034601E0A0F120035D
:100590001946202810D2454B1B6803248C40A343E6
:1005A000434CC4F8A831414B1B6802FA01F42343C1
:1005B0003F4CC4F8A83111E03C4B1B1D1B680324C1
:1005C0008C40A3433A4CC4F8AC31384B1B1D1B681C
:1005D00002FA01F42343364CC4F8AC3110BD014695
:1005E000202903D20A46314B186804E0A1F1200209
:1005F0002E4B1B1D186820FA02F303F0030070470E
:1006000070B506462B4804683046FFF7E8FF0546FC
:1006100035B1012D06D0022D06D0032D08D105E0FD
:10062000042505E0012503E0022501E0082500BFBF
:1006300000BFB4FBF5F4204670BD012909D11C4A66
:10064000C43212681C4B03401A43194BC3F8C42030
:1006500009E041B9164AC4321268174B83431A4065
:10066000134BC3F8C420704700201149C031086003
:1006700030BF704704201149086008200C49C03180
:10068000086030BF704704200C4908600920084901
:10069000C031086030BF704704200849086003205B
:1006A0000349C031086030BF70470000A8C10F4047
:1006B00000C00F4000C00720DEF7EFEF10ED00E0B4
:1006C00001460020052912D2DFE801F00305080BDE
:1006D0000E00FB480CE0FA48203009E0F8484030B2
:1006E00006E0F748603003E0F548803000E000BFE6
:1006F00000BF704701460020052912D2DFE801F053
:100700000305080B0E00EE480CE0ED48203009E030
:10071000EB48403006E0EA48603003E0E8488030CB
:1007200000E000BF00BF704701460020052912D23B
:10073000DFE801F00305080B0E00E1480CE0E0489B
:10074000203009E0DE48403006E0DD48603003E05C
:10075000DB48803000E000BF00BF70472DE9F0416A
:1007600007460D4616463846FFF7AAFF04463CB139
:100770001EB120682843206002E02068A843206062
:10078000BDE8F08170B506460C463046FFF798FF8D
:10079000054605B1AC6170BD70B506460C463046E5
:1007A000FFF78EFF054605B1EC6170BD70B50546DB
:1007B0002846FFF785FF04460CB1606970BD002034
:1007C000FCE718B912B9BF4B196017E0022804D131
:1007D0001AB9BC4B2033196010E028B9012A03D1A3
:1007E000B84B1B1D196009E0022805D1012A03D16D
:1007F000B44B2433196001E000BFFEE770470346A5
:100800003BB932B9AF480C380068C84000F001006D
:100810007047022B07D132B9AA4814300068C8408B
:1008200000F00100F4E743B9012A06D1A5480838D1
:100830000068C84000F00100EAE7022B08D1012A55
:1008400006D1A04818300068C84000F00100DFE77A
:1008500000BFFEE718B99B4A121F116007E002288B
:1008600003D1984A1C32116001E000BFFEE77047D7
:1008700070B504460D461646324629462046FFF717
:100880006DFF70BD70B504460D4629462046FFF742
:1008900079FF70BD70B504460D4629462046FFF726
:1008A0007BFF70BD10B504462046FFF77FFF10BDEB
:1008B00070B504460D461646324629462046FFF7D7
:1008C00080FF70BD70B504460D4616463246294677
:1008D0002046FFF794FF70BD10B503460C46214635
:1008E0001846FFF7B7FF10BD2DE9F04107460D464A
:1008F00016463846FFF7E4FE04463CB11EB12069B7
:100900002843206102E02069A8432061BDE8F0810E
:100910002DE9F04180460E4615461F464046FFF73A
:10092000E9FE04468CB147B11EB16088284360805F
:100930000BE020882843208007E01EB16088A84390
:10094000608002E02088A8432080BDE8F0812DE986
:10095000F04180460E4615461F464046FFF7CAFE48
:1009600004468CB147B11EB1608A284360820BE017
:10097000208A2843208207E01EB1608AA843608253
:1009800002E0208AA8432082BDE8F0812DE9F041F1
:1009900007460E4614463846FFF7ACFE05461DB125
:1009A0000EB16C8300E02C83BDE8F0812DE9F041AD
:1009B00007460E4614463846FFF79CFE05461DB115
:1009C0000EB1EC8300E0AC83BDE8F08170B5064663
:1009D0000D463046FFF78EFE044624B10DB1E08A85
:1009E00070BDA08AFCE70020FAE72DE9F0418046BF
:1009F0000C4616461F464046FFF796FE05465DB17B
:100A00002FB1032C08DC285D3043285504E0032C6B
:100A100002DC285DB0432855BDE8F0812DE9F041A6
:100A200080460C4616461F464046FFF77DFE0546AB
:100A30009DB14FB1032C10DC05F11000005D304377
:100A400005F11001085508E0032C06DC05F1100043
:100A5000005DB04305F110010855BDE8F0812DE9B6
:100A6000F04107460C4615463846FFF75DFE064640
:100A700026B1032C02DC06F118000555BDE8F08113
:100A80002DE9F04107460C4615463846FFF74CFE67
:100A9000064626B1032C02DC06F11C000555BDE814
:100AA000F08170B506460C463046FFF73DFE054620
:100AB00055B1032C08DC05F11400005D70BD000089
:100AC00000C00920908002400020F7E770B505467D
:100AD00035B1012D09D0022D0CD0032D14D10EE01B
:100AE0000220FFF78DFD04460EE00420FFF788FD8D
:100AF000044609E02C20FFF783FD044604E02E2085
:100B0000FFF77EFD044600BF00BF204670BD2DE903
:100B1000F04781460C464846FFF7D8FF00260546B9
:100B200000232946A1FB047C06FB04C205FB03212C
:100B3000FB4A384603F00AFD05462846BDE8F08723
:100B400001464FF0FF30B1F1402F01D100200DE000
:100B5000F44A914201D1012008E0F34A914201D1C7
:100B6000022003E0F14A914200D10320704770B5A2
:100B700005460C46B5F1402F08D0EA48854205D01D
:100B8000E948854202D0E948854200D103E0A62128
:100B9000E7A0FFF7A3FB4CB1012C07D0022C05D036
:100BA000032C03D0042C01D0052C00D103E0A72195
:100BB000DFA0FFF793FB28680121A1400840C6B2DF
:100BC0000EB1012070BD0020FCE770B505460C4653
:100BD000B5F1402F08D0D348854205D0D248854290
:100BE00002D0D248854200D103E0C421D0A0FFF753
:100BF00075FB4CB1012C07D0022C05D0032C03D07F
:100C0000042C01D0052C00D103E0C521C8A0FFF7BA
:100C100065FB2868211D01228A401040C6B20EB132
:100C2000012070BD0020FCE770B505460C46B5F10B
:100C3000402F08D0BB48854205D0BB48854202D032
:100C4000BA48854200D103E0DD21B9A0FFF746FB99
:100C50004CB1012C07D0022C05D0032C03D0042C5E
:100C600001D0052C00D103E0DE21B1A0FFF736FB57
:100C70000120A040286070BD70B505460C46B5F156
:100C8000402F08D0A748854205D0A748854202D00A
:100C9000A648854200D103E0F421A5A0FFF71EFB82
:100CA0004CB1012C07D0022C05D0032C03D0042C0E
:100CB00001D0052C00D103E0F5219DA0FFF70EFB2C
:100CC000201D01218140296070BD20B90A46012301
:100CD0001370536003E00A460023537000BF70474F
:100CE0002DE9F04704460D461646B4F1402F08D0D2
:100CF0008C48844205D08C48844202D08B48844280
:100D000000D104E040F22B1189A0FFF7E7FA1DB1F2
:100D1000012D01D000D000D104E04FF4967184A0E1
:100D2000FFF7DCFAB4F1402F08D101210220FFF7D0
:100D300084FC00210220FFF723FC22E07948844252
:100D400008D101210420FFF778FC00210420FFF7DF
:100D500017FC16E07448844208D101218805FFF78A
:100D60006CFC00212C20FFF70BFC0AE06F4884424A
:100D700007D10121C805FFF760FC00212E20FFF7F5
:100D8000FFFBA06A20F00300A062A06AA06200201E
:100D9000A0602061E060606840F002006060606810
:100DA00020F00200606085B93746387818B9786855
:100DB000401EE06017E02046FFF7C2FE81467968DA
:100DC000FFF7A5FE401EE0600DE0B046A06A20F0EF
:100DD0000C00A062464698F80100012803D1A06AE1
:100DE00040F00400A0624FF0FF302060BDE8F087C3
:100DF00010B50446B4F1402F08D04A48844205D0CB
:100E00004948844202D04948844200D104E040F27B
:100E1000791147A0FFF762FA00206060B4F1402F1B
:100E200004D100210220FFF708FC18E03D4884426D
:100E300004D100210420FFF700FC10E03A4884426E
:100E400005D100214FF48000FFF7F7FB07E037489A
:100E5000844204D100214FF48000FFF7EEFB10BD67
:100E600070B504460D46B4F1402F08D02D48844299
:100E700005D02D48844202D02C48844200D104E0A1
:100E80004FF4CD712AA0FFF729FA012D04D1606833
:100E900040F00100606003E0606820F001006060E5
:100EA00070BD10B50446B4F1402F08D01D488442EF
:100EB00005D01D48844202D01C48844200D104E081
:100EC0004FF4D9711AA0FFF709FA606840F00200E8
:100ED0006060606820F00200606010BD70B504467C
:100EE0000D46B4F1402F08D00E48844205D00E487C
:100EF000844202D00D48844200D104E040F2D11176
:100F00000BA0FFF7EBF9287940B12879012805D02B
:100F10002879022802D02879032829D12EE0000060
:100F200040420F000080004000000940004009409E
:100F30002E2E5C4C69627261726965735C4C435021
:100F4000313736385F5374645065726970685F4436
:100F500072697665725C736F757263655C6C7063E1
:100F6000313778785F74696D65722E630000000018
:100F70004FF4E971AFF24800FFF7B0F9287830B1CB
:100F8000012807D0022808D003280CD108E0A8685F
:100F9000A0610AE0A868E06107E0A868206204E0B8
:100FA000A868606201E000BFFEE700BF60692978C1
:100FB00001EB41020721914088436061687838B1B4
:100FC0006069297801EB4102012191400843606189
:100FD000E87840B16069297801EB4101491C0122A0
:100FE0008A4010436061A87840B16069297801EBBC
:100FF0004101891C01228A4010436061E06B29781D
:10100000042202EB4102032191408843E0632879E6
:1010100000F003002978042202EB41018840E16BD3
:101020000843E06370BD70B504460E461546B4F142
:10103000402F08D04348844205D04348844202D020
:101040004248844200D105E040F20721AFF220106F
:10105000FFF744F936B1012E06D0022E06D0032E3A
:1010600008D105E0A56107E0E56105E0256203E040
:10107000656201E000BFFEE700BF70BD70B50446C9
:101080000D46B4F1402F08D02E48844205D02E489A
:10109000844202D02D48844200D105E040F22D2147
:1010A000AFF27410FFF71AF9A06A297801EB410238
:1010B000072191408843A062687838B1A06A2978F6
:1010C00001EB4102012191400843A062A87840B1A0
:1010D000A06A297801EB4101491C01228A40104392
:1010E000A062E87840B1A06A297801EB4101891C2F
:1010F00001228A401043A06270BD70B504460D46BF
:10110000B4F1402F08D00F48844205D00E488442E5
:1011100002D00E48844200D105E04FF41271AFF2C4
:10112000F010FFF7DBF80DB1012D00D105E040F222
:101130004921AFF20420FFF7D1F80DB9E06A70BD84
:10114000206BFCE70080004000000940004009409F
:101150000146F748814201D100207047F54881429D
:1011600001D10120F9E7F448814201D10220F4E7DE
:101170004FF0FF30F1E70146202008600820886129
:1011800000BF086800F008000028FAD0202088611D
:10119000486800F0F8007047016801F0200109B1CB
:1011A0002021816110210160082181617047024680
:1011B000106800F0200008B120209061C8B2906053
:1011C0000820906100BF106800F008000028FAD0E5
:1011D000506800F0F80070470346012A02D104204D
:1011E000186001E0042098610820986100BF186829
:1011F00000F008000028FAD098680870586800F0DD
:10120000F800704770B504460E46C948844205D0C0
:10121000C848844202D0C848844200D103E0E0219B
:10122000C6A0FFF75BF8C248844205D10E20FFF745
:10123000E7F9B0FBF6F510E0BE48844205D1262060
:10124000FFF7DEF9B0FBF6F507E0BB48844204D1B6
:101250003420FFF7D5F9B0FBF6F568082061206966
:10126000281A606170BD70B504460D46B0488442CE
:1012700005D0B048844202D0AF48844200D104E097
:101280004FF48471ADA0FFF729F8A948844208D132
:1012900001218020FFF7D1F902210E20FFF770F91C
:1012A00018E0A448844208D10121C804FFF7C5F919
:1012B00002212620FFF764F90CE09F48844208D100
:1012C00001218806FFF7B9F902213420FFF758F908
:1012D00000E070BD29462046FFF794FF6420A0611E
:1012E00000BFF6E710B504469148844205D0914806
:1012F000844202D09048844200D104E04FF49C71B3
:101300008EA0FEF7EBFF4020A0618948844204D103
:1013100000218020FFF791F910E08648844205D132
:1013200000214FF40020FFF788F907E0824884424B
:1013300004D100214FF08060FFF77FF910BD70B538
:1013400004460D460DB1012D00D104E040F25911C3
:101350007AA0FEF7C3FF7648844205D075488442E0
:1013600002D07548844200D104E04FF4AD7173A0FF
:10137000FEF7B4FF012D02D14020206001E04020A3
:10138000A06170BD70B504460D46A5B168488442A1
:1013900003D10A2000F08CFC21E06648844203D18E
:1013A0000B2000F085FC1AE06348844217D10C2022
:1013B00000F07EFC13E05E48844203D10A2000F076
:1013C00082FC0CE05B48844203D10B2000F07BFCE4
:1013D00005E05948844202D10C2000F074FC70BD35
:1013E0002DE9F04105462846FFF7B2FE0646624861
:1013F00050F83640686800F0F8076762F82F03D1AC
:101400000820A861BDE8F0815B4800EBC600406899
:10141000002857D1202F48D006DC082F0BD0102FE2
:101420000AD0182F4CD115E0282F14D0302F3DD0E2
:10143000382F45D13FE000BF2020A861606838B157
:10144000A06828B120684000A8600820A86100E0DA
:1014500012E036E000BFD4E9021088420BD2606887
:1014600048B1E1686068405CA860E068401CE060EA
:101470000820A86118E000BF01203F4901EBC60128
:101480004860606958B1206948B1A06830B16068AF
:1014900020B1202028600C20A86105E031E0606ABE
:1014A00040F480606062B6E00BE000BF606A40F428
:1014B00000706062A0E0606A40F48070606200BF0B
:1014C0009AE0B5E02C4800EBC60040680128F8D14E
:1014D000402F24D006DC082F0BD0102F0AD0382F35
:1014E0007DD183E0482F7CD0502F4CD0582F76D11F
:1014F00063E000BF2020A861206950B1606940B15D
:1015000000BF0121206801EB4000A8600820A8610D
:1015100004E0606A40F4806060627CE087E0D4E9C7
:101520000501401E814229D20420286028E00000E5
:1015300000C0014000C0054000000A402E2E5C4C57
:1015400069627261726965735C4C43503137363839
:101550005F5374645065726970685F447269766540
:10156000725C736F757263655C6C70633137787829
:101570005F6932632E63000030C007200420A86139
:101580000820A86153E0206950B1D4E905108842D1
:1015900006D2A868A26921698854A069401CA0618C
:1015A000D4E90501401E814202D20420286001E0F6
:1015B0000420A8610820A86139E0206950B1D4E96D
:1015C0000510884206D2A868A26921698854A069DA
:1015D000401CA061606A40F4806060621BE00AE029
:1015E000FFE7606A40F40070606205E0606A40F402
:1015F0008070606200BF00BFD4E90710884209D242
:101600000020E060202028600C20A861206A401C97
:1016100020620BE000BF00212846FFF7B3FE2846FA
:10162000FFF7BAFD0120F74941F8260000BF00BFCF
:1016300000BFE7E62DE9F04104462046FFF788FDAC
:101640008046F14850F83850606800F0F806AE6106
:10165000F82E03D10820A061BDE8F08106F0070054
:10166000002868D1F0100C38142864D2DFE800F0AC
:101670000F631063152816292C4763485A63636368
:101680006363630A042020600820A0615FE000BF5C
:10169000042020600820A06159E000BFD5E90410B3
:1016A000884208D2E86830B1A0686A69E96888545D
:1016B0006869401C6861042020600820A06146E041
:1016C00000BF0820A06142E000212046FFF75AFE3B
:1016D0000820A06147030FE0206800F0080020B157
:1016E00001212046FFF74EFE07E07F1E27B9A869BB
:1016F00040F48060A8611FE0EEE700BF27E000BF74
:10170000D5E90110884208D2286830B1A968286854
:10171000405CA060A868401CA860042020600820ED
:10172000A06114E0042020600820A061A86940F4B2
:101730008060A86100E000BF00212046FFF722FE84
:101740002C20A0610120B14941F8280000BF00BF52
:1017500000BF81E72DE9F84306460C461746D4F84A
:101760000480D4F810900020E060A0616062002F37
:101770007ED1206200BFD4F80480D4F810900020FD
:10178000E060A06100253046FFF7F5FC0546082D16
:101790000BD0102D09D0206A401C2062D4E907101C
:1017A000884201D96562ABE0E5E7A068A0B3606854
:1017B00090B320784006010E3046FFF7F8FC05464E
:1017C000182D0BD0206A401C2062D4E907108842F3
:1017D00003D945F40070606292E0CCE718E098F815
:1017E00000103046FFF7E3FC0546282D0BD0206A99
:1017F000401C2062D4E90710884203D945F40070E8
:1018000060627DE0B7E708F10108E068401CE06035
:10181000D4E902108842E2D3A068B8B16068A8B1E8
:10182000606998B1206988B13046FFF7A4FC05468D
:10183000082D0BD0102D09D0206A401C2062D4E95D
:101840000710884201D965625AE094E76069002870
:1018500050D0206900284DD02078012202EB4000B2
:10186000C1B23046FFF7A3FC0546402D0DD000E085
:101870004BE0206A401C2062D4E90710884203D95B
:1018800045F4007060623BE075E72FE0D4E90501A4
:10189000401E814211D2012269463046FFF79CFC6E
:1018A0000546502D1BD0206A401C2062D4E9071049
:1018B000884201D9656223E05DE70022694630462F
:1018C000FFF78AFC0546582D09D0206A401C20628B
:1018D000D4E90710884201D9656211E04BE79DF811
:1018E000000009F8010BA069401CA061D4E90510B3
:1018F0008842CBD33046FFF74FFC0120BDE8F88388
:101900003046FFF749FC0020F8E7012F1AD1304696
:10191000FFF71EFCC0B200903B489DF8001040F855
:101920003140002038499DF8002001EBC201486099
:101930000820B0612020306001213046FFF722FDF1
:101940000120DBE70020D9E72DE9F84F04460D46DA
:101950001646D5F80090D5F80CA00020A860686164
:10196000A861002E6FD1042020602820A0610020F3
:101970000090834675E0206800F00800002867D0DA
:1019800000200090606800F0F80707F007000028CA
:101990005AD1F8100C38142856D2DFE800F00F5551
:1019A0001055152716282B39553A4B555555555571
:1019B000550A042020600820A06148E000BF0420F0
:1019C00020600820A06142E000BFD5E904108842F1
:1019D00007D2E86828B1A0680AF8010B6869401CC2
:1019E0006861042020600820A06130E000BF08206A
:1019F000A0612CE00820A061012000904FF0000BB6
:101A000025E0000048C0072030C0072054C0072050
:101A100000BFD5E90110884207D2286828B119F81B
:101A2000010BA060A868401CA8600420206008206A
:101A3000A0610CE0042020600820A061012000903B
:101A40004FF0000B03E01AE00820A06112E008E06C
:101A5000009830B158460BF1010BB0F5803F00D92A
:101A600000E088E70420A06147F48060A8610120BD
:101A7000BDE8F88F0420A061AF610020F8E7012ED7
:101A800015D12046FFF764FB8046934840F8385054
:101A90000120914901EBC801486004202060282002
:101AA000A06101212046FFF76DFC0120E0E7002046
:101AB000DEE770B504460D468848844205D0884864
:101AC000844202D08748844200D105E040F2A1411F
:101AD000AFF29850FEF702FC2878002803DB287844
:101AE000032800DC05E040F2A241AFF2B050FEF75F
:101AF000F5FBA87810B1A878012800D105E040F2E4
:101B0000A341AFF2C850FEF7E9FBA878012800D145
:101B100000E00020697840EA4100C6B2287830B180
:101B200001280AD002280ED0032818D111E0E6605F
:101B3000E87800F0FE00206311E02662E87800F00B
:101B4000FE0060630BE06662E87800F0FE00A063D0
:101B500005E0A662E87800F0FE00E06300BF00BF89
:101B600070BD70B504460D4616465C48844205D0EB
:101B70005B48844202D05B48844200D105E040F2D9
:101B8000D541AFF24860FEF7A9FB022D00D000BF9F
:101B900000BF0EB1012E00D105E040F2D741AFF2F7
:101BA0006460FEF79BFB012E03D1E0692843E061EE
:101BB00004E0E0690721A9430840E06170BD70B509
:101BC00004460D464548844205D04548844202D02B
:101BD0004448844200D105E040F2F141AFF2A460F4
:101BE000FEF77CFB0DB1012D00D105E040F2F24182
:101BF000AFF2B860FEF772FB012D08D1E06940F04A
:101C00000100E061042020602820A06105E0E06977
:101C100000F00600E0612C20A0610020324908603D
:101C200070BD10B504462D48844205D02C4884422E
:101C300002D02C48844200D105E040F21451AFF2AA
:101C40000470FEF74BFBE06AC0B210BD30B503462E
:101C5000002008249C61DC6A234D2D684C55224CE1
:101C60002468641C204D2C602C462468944200D3C8
:101C7000012030BD70B505462846FFF769FA0446D5
:101C80001A4850F824600020184941F824003046D2
:101C900070BD70B505462846FFF75AFA0446144849
:101CA00050F824600020124941F82400304670BDED
:101CB00000F01F02012191404209920002F1E0224E
:101CC000C2F80011704700F01F0201219140094A3B
:101CD000430942F82310704730C0072000C001407C
:101CE00000C0054000000A4004C0072048C007208B
:101CF00054C0072080E100E02DE9F04F8BB004468E
:101D0000894600200990F748844204D10620FEF756
:101D100077FC074616E0F448844204D10820FEF719
:101D20006FFC07460EE0F148844204D13020FEF7F4
:101D300067FC074606E0EE48844203D13220FEF7F6
:101D40005FFC07464FF0FF3B002007900690002500
:101D50002E464FF001084DE00020089040E0089822
:101D6000404400FB09FC0020010741EA1711380735
:101D70000022A0FB083E01FB08E100FB02106246C6
:101D8000CDE900300023DDE9000102F0DFFBCDE901
:101D9000040104980390DDF814A00398B0F1004FFB
:101DA00004D90398404203900AF1010ABAF1000FE6
:101DB00002D0BAF5803F00D90FE0039858450BD206
:101DC000DDF80CB00026554608980790CDF818802D
:101DD000BBF1000F00D106E000BF0898401C08903E
:101DE00008984045BBD300BFBBF1000F00D104E011
:101DF00008F10108B8F10F0FAED900BF002185EA44
:101E000001007140084302D10BB0BDE8F08F3809E2
:101E1000069900FB01FC0846079908440021A0FB35
:101E2000052301FB053100FB06100346CDE9002028
:101E30006046002102F08AFB02900298814503D996
:101E40000298A9EB000B02E00298A0EB090B6420BA
:101E50000BFB00F0B0FBF9FBBBF1030F32D2A24841
:101E6000844216D1207B40F080002073280A40EA8B
:101E7000066020712570207B00F07F002073F02128
:101E8000069801EA0010079901F00F010843A062CB
:101E900016E0207B40F080002073280A40EA0660AC
:101EA00020712570207B00F07F002073F0210698C0
:101EB00001EA0010079901F00F01084384F8280097
:101EC0000120099009989FE770B504460D468548A2
:101ED000844208D08448844205D08448844202D099
:101EE0008348844200D103E0C92182A0FEF7F6F9BD
:101EF000A86840B1A868012805D0A868022802D0C7
:101F0000A868032800D103E0CA217AA0FEF7E6F909
:101F1000E86810B1E868012800D103E0CB2175A082
:101F2000FEF7DCF9686858B16868012808D068686D
:101F3000022805D06868032802D06868042800D108
:101F400003E0CC216BA0FEF7C9F96648844203D1B7
:101F500001210820FEF771FB6348844203D101216F
:101F60001020FEF76AFB6148844203D10121080674
:101F7000FEF763FB5E48844203D101214806FEF769
:101F80005CFB5948844223D1072020720020207234
:101F900000E02678207D00F001000028F9D18020A3
:101FA00084F8300000BF207D00F020000028FAD027
:101FB000002084F83000606020732062207484F870
:101FC0004C0084F8540084F85000267E267D1AE0E8
:101FD000072020720020207200E02678207D00F08B
:101FE00001000028F9D1802084F8300000BF207D56
:101FF00000F020000028FAD0002084F83000606053
:1020000020732062267D3A48844202D1002084F861
:10201000240020462968FFF76FFE3348844203D12D
:10202000207B00F0C00602E0207B00F0C006A8681C
:1020300030B1012806D0022807D0032808D108E0D3
:1020400000BF09E046F0010606E046F0020603E0A4
:1020500000BF46F0030600BF00BF6868C0B146F08D
:1020600008066868012806D0022806D0032807D091
:1020700004280BD107E000BF09E046F0100606E097
:1020800046F0200603E046F0300600E000BF00BF47
:10209000E86828B1012802D146F0040601E000BF3B
:1020A00000BF00BF1048844201D1267300E02673B0
:1020B00070BD70B504460D460A48844208D00A48EF
:1020C000844205D00948844202D00948844200D1A4
:1020D00004E040F2EA3107A0FEF700F90DB1012D4E
:1020E00026D12BE000C000400000014000800940E4
:1020F00000C009402E2E5C4C696272617269657382
:102100005C4C4350313736385F53746450657269A4
:1021100070685F4472697665725C736F757263652F
:102120005C6C7063313778785F756172742E630010
:1021300040F2EB31AFF24400FEF7D0F8012D10D1A0
:10214000F948844206D194F8300040F0800084F8C9
:10215000300014E094F8300040F0800084F8300043
:102160000DE0F148844205D194F83000002084F855
:10217000300004E094F83000002084F8300070BD96
:1021800010B50446E948844208D0E748844205D0A7
:10219000E748844202D0E748844200D105E040F29B
:1021A0009511AFF2B000FEF799F800212046FFF735
:1021B00080FFDE48844203D100210820FEF73DFA6B
:1021C000D948844203D100211020FEF736FAD848BE
:1021D000844204D100214FF08070FEF72EFAD548DA
:1021E000844204D100214FF00070FEF726FA10BDA2
:1021F0004FF4165101600321816000214160C160EC
:10220000704770B504460D46C848844208D0C64899
:10221000844205D0C648844202D0C648844200D1D8
:1022200005E040F2D911AFF23410FEF757F8BE487E
:10223000844201D1257000E0257070BD10B50446C0
:10224000BA48844208D0B848844205D0B84884428D
:1022500002D0B848844200D105E04FF4F971AFF2E2
:102260006C10FEF73BF8B048844201D1207810BDD5
:102270002078FCE72DE9FF5F80468A469346574663
:102280005C460398012825D1002520E04FF0FF3956
:1022900005E0B9F1000F00D107E0A9F1010998F8B4
:1022A000140000F020000028F3D000BFB9F1000FA7
:1022B00000D10EE0102607E017F8011B4046FFF79B
:1022C000A0FF761E641E6D1C0EB1002CF4D1002CF4
:1022D000DCD117E0002512E098F8140000F020008F
:1022E00000B90EE0102607E017F8011B4046FFF783
:1022F00088FF641E761E6D1C0EB1002CF4D1002CDC
:10230000EAD100BF284604B0BDE8F09F2DE9F05F98
:102310000746894692469B464E465546BBF1010FFD
:102320001ED1002419E04FF0FF3805E0B8F1000F8E
:1023300000D106E0A8F10108387D00F00100002876
:10234000F4D000BFB8F1000F00D108E03846FFF725
:1023500075FF06F8010B6D1E641C002DE3D110E023
:1023600000240BE0387D00F0010000B908E0384699
:10237000FFF764FF06F8010B641C6D1E002DF1D100
:1023800000BF2046BDE8F09F10B504466748844270
:1023900008D06548844205D06548844202D065482B
:1023A000844200D105E04FF42171AFF2B820FDF76F
:1023B00095FF5D48844204D1207B40F040002073AB
:1023C00003E0207B40F04000207310BD2DE9F04178
:1023D00004460D4617465548844208D05248844268
:1023E00005D05348844202D05248844200D105E0CF
:1023F00040F2AB21AFF20430FDF770FF0FB1012FB7
:1024000000D105E04FF42B71AFF21830FDF766FFF5
:10241000072D15D2DFE805F00406080A0C0E11009E
:1024200001260DE002260BE0042609E0082607E05D
:10243000802605E04FF4807602E04FF4007600BF7E
:1024400000BF3948844214D15DB1012D09D0022D5D
:1024500007D0052D05D0062D03D0032D01D0042D66
:1024600000D116E04FF43271AFF27830FDF736FF4D
:102470000FE03DB1012D05D0022D03D0052D01D077
:10248000062D00D105E04FF43371AFF29830FDF71F
:1024900025FF012F0AD12448844203D160683043CC
:1024A000606013E06068304360600FE01E48844263
:1024B00006D1606840F28F31B1430840606005E0AA
:1024C000606840F20731B14308406060BDE8F081C8
:1024D00010B504461548844208D01348844205D0FC
:1024E0001348844202D01348844200D105E040F2F0
:1024F000FA21AFF20040FDF7F1FE0B48844201D112
:10250000007D10BD207DFCE710B5044607488442DD
:1025100008D00548844205D00548844202D00548C9
:10252000844209D10EE000000000014000C00040DC
:102530000080094000C0094040F21131AFF24C4028
:10254000FDF7CCFEA06840F2CF31084010BD014637
:10255000087D00F0400008B1002070470120FCE732
:1025600070B506460C460025F748864208D0F74865
:10257000864205D0F648864202D0F648864200D10F
:1025800005E040F23731AFF29440FDF7A7FEE06876
:1025900040B1E068012805D0E068022802D0E06878
:1025A000032800D105E04FF44E71AFF2B840FDF7BB
:1025B00095FEA06810B1A068012800D105E040F2A6
:1025C0003931AFF2D040FDF789FE206810B12068A4
:1025D000012800D105E040F23A31AFF2E840FDF7C2
:1025E0007DFE606810B16068012800D105E040F20E
:1025F0003B31AFF20050FDF771FE45F00105E06898
:1026000030B1012806D0022807D0032808D108E0FD
:1026100000BF09E045F0400506E045F0800503E015
:1026200000BF45F0C00500BF00BF6068012801D1B0
:1026300045F004052068012801D145F00205A06895
:10264000012801D145F00805C048864203D105F0B4
:10265000CF00307202E005F0CF00307270BD002173
:102660008160C16001210160416070472DE9F04146
:1026700004460F461546B448844208D0B348844205
:1026800005D0B348844202D0B248844200D105E06C
:1026900040F29231AFF2A450FDF720FE0DB1012DB2
:1026A00000D105E040F29331AFF2B850FDF716FECD
:1026B0000026012D09D13868012801D146F0020613
:1026C0007868012801D146F00406A048844215D15B
:1026D000012D10D1207B40F080002073002020705D
:1026E0002071207B20F0800020731020A06246F033
:1026F0000100206218E00020206215E0012D11D1B8
:10270000207B40F080002073002020702071207B0F
:1027100020F080002073102084F8280046F001008B
:10272000206201E000202062BDE8F08170B504461F
:102730000D468548844208D08448844205D08448A8
:10274000844202D08348844200D105E040F2D33174
:10275000AFF26060FDF7C2FD7C48844203D1206A7D
:102760002843206202E0206A2843206270BD70B5D1
:1027700004460D467748844200D105E040F21441FA
:10278000AFF29060FDF7AAFD0DB1012D00D105E07B
:1027900040F21541AFF2A460FDF7A0FD012D06D176
:1027A00094F8240040F0020084F8240006E02DB9DB
:1027B00094F8240000F03D0084F8240070BD70B54A
:1027C00004460D466348844200D105E040F22C41A6
:1027D000AFF2E060FDF782FD0DB1012D00D105E003
:1027E00040F22D41AFF2F460FDF778FD012D06D1E6
:1027F00094F8240040F0010084F8240005E094F8E7
:10280000240000F03E0084F8240070BD2DE9F04162
:1028100005460C464F48854200D105E040F24D4147
:10282000AFF23070FDF75AFD6CB1012C0BD0022CC9
:1028300009D0032C07D0042C05D0052C03D0062C7E
:1028400001D0072C00D105E040F24E41AFF25C70A0
:10285000FDF744FD6007870E95F8240020F0380648
:1028600047F00400064306F03F0085F82400BDE869
:10287000F0812DE9F04104460D4616460027334805
:10288000844200D105E040F26D41AFF29870FDF74F
:1028900025FD0DB1012D00D105E040F26E41AFF2F2
:1028A000AC70FDF71BFD0EB1012E00D105E040F22A
:1028B0006F41AFF2C070FDF711FD15B1012D04D1CC
:1028C00001E0012702E0022700E000BF00BF012E67
:1028D00003D1207C3843207404E0207CF321B943E9
:1028E00008402074BDE8F0812DE9F04104460D4612
:1028F00017461648844200D105E040F29541AFF6F4
:102900000C00FDF7EBFC1DB1012D01D0022D00D113
:1029100005E040F29641AFF62400FDF7DFFC0FB171
:10292000012F00D105E040F29741AFF63800FDF7E6
:10293000D5FC25B1012D04D0022D0FD10CE01026BD
:102940000DE040260BE0000000C000400000014008
:102950000080094000C00940802600E000BF00BFA1
:10296000012F03D1207C3043207404E0207CF3212C
:10297000B14308402074BDE8F08110B504467948A1
:10298000844200D105E04FF49861AFF69800FDF75E
:10299000A5FC207E10BD70B506460C4671488642E7
:1029A00000D105E040F2D441AFF6B800FDF796FC47
:1029B000A06810B1A068012800D105E040F2D5411F
:1029C000AFF6D000FDF78AFCE06810B1E06801289E
:1029D00000D105E040F2D641AFF6E800FDF77EFCFD
:1029E000607EFF2800DA05E040F2D741AFF6FC0038
:1029F000FDF774FC606910B16069012800D105E041
:102A00004FF49B61AFF61410FDF768FC206910B11C
:102A10002069012800D105E040F2D941AFF62C1021
:102A2000FDF75CFC207EFF2800DA05E040F2DA4189
:102A3000AFF64010FDF752FC206810B12068012865
:102A400000D105E040F2DB41AFF65810FDF746FC3F
:102A5000606810B16068012800D105E040F2DC41F7
:102A6000AFF67010FDF73AFC0025E06801280ED1A2
:102A700045F010056069012801D145F02005206965
:102A8000012801D145F00805607E86F854002068D1
:102A9000012801D145F00105A068012804D145F0C5
:102AA0000405207E86F85000606808B945F00205EC
:102AB00005F03F0086F84C00307B40F03800307362
:102AC00070BD012906D190F84C2022F0020280F856
:102AD0004C2005E090F84C2042F0020280F84C2097
:102AE00070472DE9F0470446894692461F46A7B134
:102AF000257BA84628F0100884F80C800123524654
:102B000049462046FFF7B6FB064600BF207D00F091
:102B100040000028FAD025730CE0012352464946B4
:102B20002046FFF7A7FB064600BF207D00F04000CF
:102B30000028FAD03046BDE8F08713B504460123DB
:102B40001A4601A92046FFF7CCFF1CBD70B504460C
:102B50000D4616460023324629462046FFF7C1FFA0
:102B600070BD0000000001402DE9F04104460D4613
:102B7000B848844200D103E04221B7A0FDF7AEFB84
:102B80001DB1C448854200D803E04321B2A0FDF73F
:102B9000A5FB01210803FDF750FD002020604FF444
:102BA00000181820FDF72CFD064605EB851707EBEE
:102BB00046007900B0FBF1F0471E48EA0728C4F848
:102BC0000080BDE8F08110B50446A248844200D1DF
:102BD00003E06321A0A0FDF781FB206820F4001032
:102BE000206000214FF48050FDF727FD10BD014605
:102BF00001B100BF00BF9748103050F82120C2F348
:102C00000B10704770B505460C469248854200D1BE
:102C100003E08C2190A0FDF761FB6CB1012C0BD07F
:102C2000022C09D0032C07D0042C05D0052C03D08E
:102C3000062C01D0072C00D103E08D2186A0FDF7E2
:102C40004DFB286820F0E0602860286840EA0460B6
:102C5000286070BD70B504460D467E48844200D1A0
:102C600003E09E217CA0FDF739FB206820F4803032
:102C700020601DB1206840F48030206070BD70B5C8
:102C800004460D467348844200D103E0B02172A08F
:102C9000FDF724FB206820F4001020601DB120689F
:102CA00040F40010206070BD70B504460D466948C0
:102CB000844200D103E0C22167A0FDF70FFB0DB1F4
:102CC000012D00D103E0C32163A0FDF707FB2068BD
:102CD00020F0006020601DB1206840F0006020609E
:102CE00070BD70B505460C4616465A48854200D15F
:102CF00003E0DB2158A0FDF7F1FA7CB1012C0DD0E7
:102D0000022C0BD0032C09D0042C07D0052C05D0A5
:102D1000062C03D0072C01D0082C00D103E0DC21C5
:102D20004DA0FDF7DBFAE8680121A1408843E86087
:102D300026B1E9680120A0400143E96070BD70B58B
:102D400004460D4616464348844200D103E0EE2176
:102D500041A0FDF7C3FA05B100BF00BF012E05D1A8
:102D600020680121A9400843206004E02068012177
:102D7000A9408843206070BD70B504460D463548B3
:102D8000844200D104E04FF4817133A0FDF7A6FA2C
:102D900005B100BF00BF04F1100050F82560C6F374
:102DA0000B1070BD2DE9F04107460E461446294828
:102DB000874200D104E04FF48B7127A0FDF78EFA13
:102DC00006B100BF00BF0CB1012C00D104E04FF4EC
:102DD0008C7121A0FDF782FA07F1100050F82650FF
:102DE00014B105F0004501E005F0804515B1012062
:102DF000BDE8F0810020FBE710B504461548844289
:102E000000D104E040F22F1113A0FDF767FA6068CB
:102E100010BD70B506460C460E48864200D104E04F
:102E20004FF4A0710CA0FDF759FA0CB1012C00D1A0
:102E300004E040F2411108A0FDF750FA756814B1A2
:102E400005F0004501E005F080450DB1012070BDA1
:102E50000020FCE7004003402E2E5C4C696272614A
:102E6000726965735C4C4350313736385F53746414
:102E70005065726970685F4472697665725C736FE1
:102E8000757263655C6C7063313778785F61646319
:102E90002E630000400D0300000200BF011EA0F1E0
:102EA0000100FBD1704710B501224FF470010020E2
:102EB000FDF7DEFC01224FF060711046FDF7D8FCF3
:102EC0004FF470010020FDF7DDFC4FF06071012030
:102ED000FDF7D8FC10BD10B5222002F04DFF10BD4B
:102EE00010B504464FF48000FE49C8618010886127
:102EF000204602F037FD4FF40000FA49C861012076
:102F000002F030FF4FF40000F649886140108861FC
:102F100010BDF5480088704730B5014601F01F0428
:102F2000C1F34513CA0AE50205EB43151544A8B2DF
:102F300030BD70B504460D46EB48008848F689114F
:102F4000884207D1A1B24E2002F036FFA9B24F202D
:102F500002F032FFA1B2202002F02EFFA9B2212000
:102F600002F02AFF70BD70B504460D462946204682
:102F7000FFF7DFFFFFF7AFFF02F0B8FE064602F0F3
:102F8000B5FE0646304670BD70B5054600240021EA
:102F90000846FFF7CEFFFFF79EFF00BF03E028467D
:102FA000FFF79EFF641CB4F5963FF8D370BD10B5D3
:102FB000CD48008848F68911884205D146F2300193
:102FC000112002F0F9FE04E041F23001032002F08A
:102FD000F3FE00210846FFF7ACFFFFF77CFF45F248
:102FE0005550FFF77DFF4AF6AA20FFF779FF002131
:102FF0000846FFF79EFF10BD2DE9F041BA48008852
:1030000048F68911884204D041F23001032002F0D1
:10301000D3FE002500210846FFF78BFFFFF75BFF7B
:10302000002405E02846FFF75BFF681C85B2641C9E
:10303000B4F5963FF6D30025AB48008849F220311D
:10304000884209D0A8480088491D884204D0A64873
:103050000088C91C884219D1002413E000260EE024
:1030600021463046FFF77FFF0746FFF755FF294609
:103070006A1C95B2884201D0BDE8F081761CF02E22
:10308000EED3641CB4F5A07FE8D320E09648008816
:1030900044F23151884205D09348008848F689119E
:1030A000884214D100240FE000260AE02146304671
:1030B000FFF759FF29466A1C95B2884200D0DBE72A
:1030C000761CF02EF2D3641CB4F5A07FECD300BFC5
:1030D000D2E770B5FFF7E7FE40F2DC50FFF7DCFE09
:1030E0000024204602F048FE02F000FE054600BF24
:1030F0007D480580008844F23151884221D07A48C9
:10310000008847F2837188421BD07748008849F2D3
:103110002031884215D074480088491D884210D05B
:1031200071480088C91C88420BD06F480088B0F5F0
:10313000134F06D06C48008848F68911884200D0A9
:1031400070BD6948008849F22531884204D066483C
:103150000088C91C88427DD11021E72002F02CFE96
:103160000121002002F028FE4FF48071012002F0BE
:1031700023FE4FF4E061022002F01EFE41F228011E
:10318000032002F019FE0021042002F015FE40F297
:103190000721082002F010FE0021092002F00CFE99
:1031A00000210A2002F008FE01210C2002F004FE9A
:1031B00000210D2002F000FE00210F2002F0FCFD96
:1031C0000021102002F0F8FD0721112002F0F4FD8B
:1031D0000021122002F0F0FD0021132002F0ECFD8E
:1031E0000F20FFF759FE41F29051102002F0E4FD4C
:1031F00040F22721112002F0DFFD0F20FFF74CFEE7
:103200009C21122002F0D8FD0F20FFF745FE4FF45D
:10321000C851132002F0D0FD2321292002F0CCFD5B
:103220000E212B2002F0C8FD0F20FFF735FE0021F4
:10323000202002F0C1FD0021212002F0BDFD0F2061
:10324000FFF72AFE0721302002F0B6FD40F2077199
:10325000312000E08BE002F0AFFD0621322002F0C9
:10326000ABFD40F20471352002F0A6FD41F6047179
:10327000362002F0A1FD0421372002F09DFD00213F
:10328000382002F099FD40F20671392002F094FDD9
:1032900040F201713C2002F08FFD0F213D2002F031
:1032A0008BFD0F20FFF7F8FD0021502002F084FD78
:1032B000EF21512002F080FD0021522002F07CFD20
:1032C00040F23F11532002F077FD4FF42741602078
:1032D00002F072FD0121612002F06EFD00216A20E2
:1032E00004E0000000C009202EC0072002F064FDA9
:1032F0000021802002F060FD0021812002F05CFDB1
:103300000021822002F058FD0021832002F054FDAC
:103310000021842002F050FD0021852002F04CFDA8
:103320001021902002F048FD0021922002F044FD7F
:103330000321932002F040FD4FF48871952002F0A4
:103340003BFD0021972002F037FD0021982002F07C
:1033500033FD40F23311072002F02EFD0021202022
:1033600002F02AFD0021212002F026FD12E3FC4894
:10337000008849F22031884204D0F9480088B0F52D
:10338000134F7DD10021084602F016FD00210120D7
:1033900002F012FD4FF4E061022002F00DFD41F257
:1033A0001801032002F008FD0021042002F004FDB2
:1033B00040F20221082002F0FFFC0021092002F067
:1033C000FBFC00210A2002F0F7FC01210C2002F096
:1033D000F3FC00210D2002F0EFFC00210F2002F091
:1033E000EBFC0F20FFF758FD40F20111072002F01F
:1033F000E3FC0F20FFF750FD4FF48651102002F040
:10340000DBFC0721112002F0D7FC4FF48871122059
:1034100002F0D2FC4FF43061132002F0CDFC002109
:10342000292002F0C9FC44F210012B2002F0C4FC58
:103430000021502002F0C0FCEF21512002F0BCFC22
:103440000021522002F0B8FC40F23F11532002F05C
:10345000B3FC4FF42741602002F0AEFC0121612053
:1034600002F0AAFC00216A2002F0A6FC00218020C4
:1034700002F0A2FC0021812002F09EFC002100E06D
:103480002DE0822002F098FC0021832002F094FCC1
:103490000021842002F090FC0021852002F08CFCA9
:1034A0001021902002F088FC0021922002F084FC80
:1034B0000121932002F080FC4FF48871952002F0E6
:1034C0007BFC0021972002F077FC0021982002F07D
:1034D00073FC40F27311072002F06EFC5AE2A04820
:1034E000008844F2315188427DD10121002002F050
:1034F00063FC4FF4C561102002F05EFC062112202F
:1035000002F05AFC40F63221132002F055FC402113
:10351000112002F051FC5021152002F04DFC162123
:10352000122002F049FC0F20FFF7B6FC45F2606163
:10353000102002F041FC0F20FFF7AEFC42F64E21B6
:10354000132002F039FC0021012002F035FC4FF479
:103550004071022002F030FC41F23001032002F001
:103560002BFC40F20221082002F026FC00210A2058
:1035700002F022FC0021302002F01EFC40F2024149
:10358000312002F019FC4FF48371322002F014FC58
:103590004FF4E061332002F00FFC4FF482713420CD
:1035A00002F00AFC40F20131352002F005FC40F245
:1035B0000771362002F000FC40F20531372002F09E
:1035C000FBFB4FF40271382002F0F6FB40F60B7162
:1035D000392002F0F1FB0F20FFF75EFC02214120B1
:1035E00002F0EAFB00E037E04FF42741602002F0F0
:1035F000E3FB0121612002F0DFFB40F21911902072
:1036000002F0DAFB4FF48571922002F0D5FB042121
:10361000932002F0D1FB4FF48071A02002F0CCFB8C
:103620000F20FFF739FC0F20FFF736FC0F20FFF7C4
:1036300033FC0F20FFF730FC40F23311072002F07B
:10364000BBFB0F20FFF728FC0021A02002F0B4FBF9
:103650001420FFF721FC9DE14148008847F2837167
:1036600088427CD10121FF2002F0A6FB0821F32033
:1036700002F0A2FB4FF48071012002F09DFB4FF499
:10368000E061022002F098FB41F23001032002F0D9
:1036900093FB40F20231082002F08EFB40F207213A
:1036A000082002F089FB0021092002F085FB00219F
:1036B0000A2002F081FB0021102002F07DFB052191
:1036C000112002F079FB0021122002F075FB00218D
:1036D000132002F071FB1420FFF7DEFB41F2B02152
:1036E000102002F069FB1420FFF7D6FB0721112000
:1036F00002F062FB1420FFF7CFFB8B21122002F0B7
:103700005BFB1420FFF7C8FB4FF4B851132002F005
:1037100053FB1420FFF7C0FB2221292002F04CFBB1
:103720000021302002F048FB40F20771312002F006
:1037300043FB40F20551322002F03EFB40F20711FC
:10374000352002F039FB0821362002F035FB00213C
:10375000372002F031FB40F20221382002E040E045
:103760002EC0072002F028FB4FF48371392002F0AD
:1037700023FB40F202213C2002F01EFB4FF481614A
:103780003D2002F019FB1420FFF786FB002150209A
:1037900002F012FBEF21512002F00EFB002152201B
:1037A00002F00AFB40F23F11532002F005FB4FF4F8
:1037B0002741602002F000FB0121612002F0FCFAA9
:1037C0003321902002F0F8FA0B212B2002F0F4FABA
:1037D00040F23311072002F0EFFA1420FFF75CFBF0
:1037E000D8E07148008848F689118842F8D1212133
:1037F000072002F0E1FA0121002002F0DDFA232186
:10380000072002F0D9FA0021102002F0D5FA40F684
:10381000B830FFF741FB3321072002F0CDFA46F222
:103820007001112002F0C8FA4FF4C061022002F0CA
:10383000C3FA40F60401032002F0BEFA00210C2076
:1038400002F0BAFA40F60C010D2002F0B5FA4FF47E
:1038500024510E2002F0B0FAB8211E2002F0ACFA7A
:1038600042F63F31012002F0A7FA0021102002F0B9
:10387000A3FA0021052002F09FFA0021062002F0A1
:103880009BFA4EF61C71162002F096FA03211720BF
:1038900002F092FA40F23321072002F08DFAC021A3
:1038A0000B2002F089FA00210F2002F085FA002196
:1038B000412002F081FA0021422002F07DFA00212D
:1038C000482002F079FA40F23F11492002F074FAE0
:1038D00000214A2002F070FA00214B2002F06CFA1D
:1038E0004FF46F41442002F067FA0021452002F0B6
:1038F00063FA40F23F11462002F05EFA40F207718F
:10390000302002F059FA4FF40171312002F054FADC
:103910004FF40171322002F04FFA40F2025133208D
:1039200002F04AFA40F20751342002F045FA4FF40F
:103930000171352002F040FA4FF40171362002F097
:103940003BFA40F20251372002F036FA40F20231DF
:103950003A2002F031FA40F202313B2002F02CFA18
:103960000021232002F028FA0021242002F024FA6A
:103970004FF40041252002F01FFA00214F2002F0F1
:103980001BFA00214E2002F017FAFFF710FB1F2050
:10399000FFF7FAFAFFF70BFBFFF72EFB1F20FFF7ED
:1039A000F3FA00BFFFF7CCBB2EC007202DE9F84F7C
:1039B00005460E46174698460095B14600242CE071
:1039C000A7F12000244901EB001010F804A049469B
:1039D0000098FFF7AEFA09F101001FFA80F9FFF72E
:1039E0007AFA4FF0000B13E00AF0800020B11FFAC2
:1039F00088F0FFF775FA03E00A9988B2FFF770FACA
:103A00004FEA4A604FEA106A0BF1010000F0FF0B29
:103A1000BBF1080FE8DB601CC4B2102CD0DBBDE8A2
:103A2000F88F2DE9F84305460E4614461F46DDF88B
:103A300020800BE0CDF8008022783B4631462846B6
:103A4000FFF7B4FF641C05F1080085B22078002858
:103A5000F0D1BDE8F8830000F26E00002DE9F05FC0
:103A600081460D4617469846DDE90AABBAF1760F56
:103A700014D12C460EE021464846FFF75AFAFFF7CC
:103A80002AFA002603E05846FFF72AFA761C464534
:103A9000F9D9641CE819A042EDD214E02C460EE0DE
:103AA00021464846FFF745FAFFF715FA002603E0DE
:103AB0005846FFF715FA761CBE42F9D9641C05EB8F
:103AC0000800A042ECD2BDE8F09F2DE9FC5F07465C
:103AD000884691461D46DDE90E4BDDE90C6ABAF1D8
:103AE000010F08D168202B464A464146CDE9000B1C
:103AF0003846FFF7B3FF682033464A464146CDE9D2
:103B000000043846FFF7AAFF762007EB0901CDE94C
:103B10000004881B33462A464146FFF79FFF682072
:103B2000CDE9000408EB0500811B33464A463846C0
:103B3000FFF794FF762033462A464146CDE900043C
:103B40003846FFF78BFFBDE8FC9F000010B5FFF77C
:103B5000C0FA0020A3490870A34908700120A349B6
:103B6000087010BD7FB59F48007820B101285BD058
:103B700002287DD1ADE04FF6E07000210223CDE9AF
:103B800000312F231A46CDE902101C210846FFF709
:103B90009CFF4FF6E07000210223CDE900312F2376
:103BA0001A46CDE902101C216020FFF78EFF4FF668
:103BB000E07000210223CDE900312F231A46CDE920
:103BC00002101C21A520FFF780FF8948006802F041
:103BD000FDFE0446224687A1884800F02FFD1F20E5
:103BE0004FF6FF73854A2D210090A820FFF719FF9B
:103BF0004FF6E07000210223CDE900312F2364222B
:103C0000CDE902108A214520FFF75FFF7CA17B48A8
:103C100000F014FD1F204FF6FF73784A9B2100909F
:103C20005820FFF7FEFEA8E04FF6E07000210223C7
:103C3000CDE900312F231A46CDE902101C21602066
:103C4000FFF743FF4FF6E07000210223CDE900317A
:103C50002F23BA22CDE902106E212020FFF735FF75
:103C60006348006802F056FD044622460B4600E019
:103C700082E066A1614800F0E1FC1F204FF6FF736F
:103C80005E4A7D2100903220FFF7CBFE4FF6E070B8
:103C900000210223CDE900312F23BA22CDE9021001
:103CA000B1212020FFF711FF5E48006802F032FDCD
:103CB000044622460B465CA1504800F0BFFC1F2082
:103CC0004FF6FF734D4AC02100903220FFF7A9FE46
:103CD00053E04FF6E07000210223CDE900312F239D
:103CE0001A46CDE902101C216020FFF7EEFE4FF6C8
:103CF000E07000210223CDE900312F23BA22CDE963
:103D000002106E212020FFF7E0FE4C48006802F010
:103D100001FD044622460B4649A1384800F08EFCBE
:103D20001F204FF6FF73354A802100903220FFF7A5
:103D300078FE4FF6E07000210223CDE900312F23F9
:103D4000BA22CDE90210B1212020FFF7BEFE414882
:103D5000006802F0DFFC044622460B463EA12748DD
:103D600000F06CFC1F204FF6FF73244AC321009023
:103D70003220FFF756FE00E000BF00BF7FBD2DE9F7
:103D8000F05F81468A4693461C46002626E00025C1
:103D900021E04FF001081BE0012715E006FB04B20B
:103DA00002EB080105FB04A2D019FFF7C2F8FFF7E8
:103DB00092F8C6EBC60101EB410109EB410131F874
:103DC0001500FFF78DF87F1CA742E7D908F101081D
:103DD000A045E1D96D1C152DDBDB761C152ED6DB3D
:103DE000BDE8F09F0CC007200DC007200EC00720C3
:103DF00014C007202564202A6300000060C007204B
:103E000048483A4D4D3A53530000000054656D70D8
:103E1000657261747572653A20252E3166202A63B9
:103E20000000000020C0072048756D696469746552
:103E30003A20252E316620252500000018C00720D5
:103E40004C756D696E6F736974653A20252E316605
:103E5000202525001CC00720434F323A20252E3153
:103E6000662025250000000010B5FFF76FFE00F06A
:103E7000E5F800F069F900F03CFA10BD10B500F06B
:103E8000C3F900F0E3FA10BD2DE9FC4104460D46EC
:103E9000284602F0EFFD804602F03CFC2246CDE9C8
:103EA000000154A1564800F0C9FB5548BDE8FC810B
:103EB00010B55448007868B100215348006802F0FA
:103EC000EDFE03D20320514908701CE004204F4945
:103ED000087018E04E494F48006802F0DFFE06D235
:103EE0004848007818B90120484908700BE04A4951
:103EF0004848006802F0D2FD05D24248007810B967
:103F000002204249087010BD10B54449414800687C
:103F100002F0C4FD03D201204149087002E00120F3
:103F20003F49087010BD70B53E480078002850D158
:103F3000322000F02FF93C48007870B900F0E7F922
:103F40003148006802F05EFD054629465420FFF71F
:103F50009BFF044600F0B1F83BE0334800780128AD
:103F600010D100F049FAFFF7CFFF2A48006802F0AD
:103F700049FD054629464C20FFF786FF044600F020
:103F80009CF826E02848007802280FD127482849C5
:103F900008600846006802F035FD054629464320C2
:103FA000FFF772FF044600F088F812E01E48007820
:103FB00003280ED118481F4908600846006802F01F
:103FC00021FD054629464820FFF75EFF044600F024
:103FD00074F8FFF76DFF1848007810B100201649FB
:103FE000087070BD10B5FFF749FFFFF79CFFFFF7A2
:103FF000B9FD10BD2A2563252E31662A0000000078
:1040000027C0072024C0072014C007200DC00720A8
:104010000000C64218C007200000484200002041AE
:104020000EC0072026C007200FC007200000F04167
:104030001CC0072020C0072025C0072000B58BB07A
:1040400000206B49087002208DF8250000208DF8B3
:10405000240001208DF8260002208DF82700012081
:104060008DF8280009A8FCF71FF903208DF825001A
:1040700009A8FCF719F94FF41640059000200690A6
:10408000032007900020089005A95A48FDF71CFF5F
:1040900001215848FEF70DF8012200215548FEF78E
:1040A00095F9052000F099F801A8FEF7D8FA01A9C2
:1040B0005048FEF755FA0BB000BD30B58BB0044642
:1040C00022464DA101A800F0B9FA01A800F0CCFBEE
:1040D000054601232A4601A94648FEF7CBF80BB056
:1040E00030BD01B501231A4669464248FEF7C2F8C1
:1040F00008BD08B501231A4669463E48FEF706F991
:104100009DF80000412804D0422809D0442815D148
:104110000DE01F20FEF738FF00203849087011E03D
:104120001F20FEF731FF0120344908700AE01F20EC
:10413000FEF72AFF02203149087003E01F20FEF736
:1041400023FF00BF00BF08BD10B586B000240120CA
:104150008DF8040046F2A810029002208DF80C00A1
:1041600001208DF80D008DF80F0000208DF80E0055
:104170008DF810006420059001AA21462048FCF724
:10418000AFFD03A91E48FCF7A9FE022000F025F8A8
:1041900006B010BD10B50446224602211848FCF7AF
:1041A00042FF01211648FCF75BFE0120154908700B
:1041B00010BD10B50E490978481CC11700EB91716C
:1041C0008910A0EB81010A4A117000200D49087086
:1041D00002210B48FCF728FD10BD00F01F02012151
:1041E00091404209920002F1E022C2F800117047AA
:1041F0000FC0072000C00040257300000CC007203E
:104200000080004026C0072070B50220FCF7CEFADF
:10421000C0F3802417480078844213D0002500E0C2
:104220006D1CB5F57A7FFBD364B11F20FEF7ACFEA1
:1042300011480078401C032190FBF1F201FB1200B1
:104240000D4908700B48047070BD70B50220FCF772
:10425000ADFAC0F3C02509480078854206D0002495
:1042600000E0641CB4F57A7FFBD300BF03480570FF
:1042700070BD000010C007200CC0072011C007202F
:1042800000207F49087070471CB57E48006840F4E4
:1042900080507C49C439C1F8C40003208DF8020065
:1042A00000208DF804008DF8030001208DF8000037
:1042B0001F208DF801006846FBF7F6FF1CBD1CB5FA
:1042C0007048006840F480506E49C439C1F8C40099
:1042D00002208DF8020000208DF804008DF8030004
:1042E0008DF8000019208DF801006846FBF7DCFF0F
:1042F0001CBD10B5FFF7E3FFFFF7C6FF6249634837
:10430000FEF732FCFFF7BCFF00F0D8F810BD2DE936
:10431000F04F89B04FF0000A012202215B48FEF7FE
:104320000EFD01215948FEF76DFC00BF012202215C
:104330005648FEF737FD0028F8D002215348FEF713
:104340001BFD8346002202215048FEF7F8FC584628
:1043500002F090FB80464FF07E5102F007FA0646CD
:10436000584602F087FB4A49079002F0C8FC804695
:10437000484902F0C7FB0746314602F065FA054698
:1043800002F024FB041E01DB214600E061420846E6
:1043900002F058FB8146514602F0E8F982463D4959
:1043A000504602F051FA019002F0B4F9CDE9020151
:1043B00001F0EEFA80460022374B01F00BFE4FF081
:1043C0006042364BCDE9040101F048FD0646324615
:1043D0000B460020324901F0FDFD4FF0C042314B49
:1043E000CDE9060102F0ACF8044601F005FD2E49C6
:1043F000086009B0BDE8F08F70B50122052123489F
:10440000FEF79DFC01212148FEF7FCFB00BF0122C5
:1044100005211E48FEF7C6FC0028F8D005211B48E0
:10442000FEF7AAFC0546002205211848FEF787FC86
:10443000284602F01FFB06461C4902F005FA044616
:104440001B4902F05FFB1B49086070BD70B502207C
:10445000FCF7ACF9C0F3C0251748007885420BD0B3
:10446000002400E0641CB4F57A7FFBD30448007894
:1044700080F00100024908700F48057070BD704758
:1044800024C00720C4C00F40A086010000400340A4
:104490000000B04000401C46000EAF40E1796B3F89
:1044A0000000F03F6612714014C0072000F07F4505
:1044B0000000C84218C0072011C0072010B52048CE
:1044C000406860F020701E4948600846406800F06F
:1044D000A07048601B491C48FCF7C5FE01211A4822
:1044E000FCF72DFF10BD70B58CB006460C46154686
:1044F0000196029403950020059003200890002265
:1045000001A91148FDF726F90CB070BD2DE9F04165
:104510008CB004460D4616461F46DDF848800194CF
:104520000597CDF818800295039603200890002285
:1045300001A90548FDF70EF90CB0BDE8F0810000B7
:1045400000C0024040420F0000C0014053EA020C8C
:1045500000F069802DE9F04B4FF00006002B1FBFE3
:10456000B3FA83F503FA05F424FA05F65E4012BFA8
:104570001643B2FA82F502FA05F4C5F120051EBF12
:1045800022FA05FC44EA0C04203556EA044C4FEAB2
:10459000144418BF641C4FF000084FF0000990420B
:1045A00071EB030C39D3002919BFB1FA81F701FA75
:1045B00007F6B0FA80F700FA07F6C7F120071EBF2A
:1045C00020FA07FC46EA0C062037B6FBF4FCA7EB02
:1045D0000507103F07F01F0BCBF120060CFA0BFB71
:1045E0002CFA06F644BFB3460026202FA4BF5E4631
:1045F0004FF0000B5BEA060C08BF4FF0010B19EB04
:104600000B09ABFB027C48EB0608C01B06FB02CC87
:104610000BFB03CC71EB0C01C1E70B460246414694
:104620004846BDE8F08B13B54FF000004FF0000195
:10463000AFF30080BDE81C40704700000FB41CB50C
:10464000074B06AA7B4469460090059800F099FB49
:104650000020694600F0A8FB1CBC5DF814FB0000BC
:104660006107000070B50C460546012A05D0287880
:10467000800600D5EA69002302E0012305E05B1C07
:10468000934202D2E05C0028F9D1A869E618C01A6A
:10469000A861286A184428622846AFF3008004E025
:1046A000D5E9012114F8010B9047B442F8D328460C
:1046B000AFF3008070BD00002DE9F04106460024F4
:1046C00010687529314616A510D0AFF30080002878
:1046D00002DA404213A507E031688A0701D512A526
:1046E00002E0490704D511A5012401E0AFF30080E1
:1046F00000210A2206F1240709E0B0FBF2FCB0FB1E
:10470000F2F302FB1C00303078541846491C002894
:10471000F3D123462A463046BDE8F04100F0C3B845
:10472000000000002D0000002B0000002000000011
:104730002DE9F05F894604464FF0000ADFF824B106
:10474000FB44C0F820A02046E168884700287DD0BF
:10475000252806D0D4E901219047206A401C206218
:10476000F1E700255F462046E16888472028064695
:1047700007DB312E05D2B81910F8200C08B105431B
:10478000F1E7A80701D525F00405C4F81CA000270F
:10479000C4F818A02A2E09D0304601F0DCF838B34E
:1047A00004EB8708303EC8F8186019E059F8041B7C
:1047B000204604EB87029161E1688847012F064695
:1047C00018D1E069002820DA25F020051DE0D8F88E
:1047D000180000EB800006EB40003038C8F81800E5
:1047E0002046E1688847064601F0B5F80028EED17A
:1047F000012F0AD02E2E08D12046E16888477F1C61
:104800000646022F45F02005C4DBA069002803DA24
:10481000404245F00105A061E80701D025F01005F0
:10482000A6B1A6F14100192802D8203645F400654A
:104830004A463146204625604D46FBF781FC60B173
:10484000012807D0ED1D25F0070000E007E000F18A
:10485000080978E705F1040975E730467AE7206A28
:10486000BDE8F09F9E2D000010B5431C02E010F83B
:10487000011B71B18107FAD14FF0013202C88C1AC5
:104880008C4314EAC211F9D0C01A0A0603D0C01E24
:1048900010BDC01A10BD0A0401D0801E10BD09024F
:1048A000FCD0401E10BD2DE9F0470D4699469246BA
:1048B000044600F124080168880604D5E06921F067
:1048C0001001216000E00120A84201DD471B00E04B
:1048D0000027A1697A1902EB0900081AA061207863
:1048E000C00602D42046AFF30080002608E0D4E9D9
:1048F00001211AF806009047206A401C761C2062AD
:104900004E45F4DB2078C0060AD52046AFF3008080
:1049100006E0D4E9012130209047206A401C206243
:10492000381EA7F10107F4DC07E0D4E9012118F8EB
:1049300005009047206A401C2062281EA5F1010551
:10494000F3DC2046AFF300802078000602D5022079
:10495000BDE8F0870120FBE770472DE9FF4F0C46CB
:104960001E464FF0FF378BB0D2E90001DDF86080C2
:104970000A908A46C1F30A5505B93D46002108460A
:104980004FF00000BAF1000F00F4400005DA00EB30
:1049900080004FF4400101EA50004FEA9059B9F10C
:1049A000010F00DDB9460A9850EA4A000ED044F6DD
:1049B0001050A5F2FF3545432F14B8F1000F1ED05B
:1049C0007542291E1EDDC9F100021CE0B8F1010F7D
:1049D0004FF0000001D0302103E0F24305E0215404
:1049E000401CB042FBDB30460022002121540B99D1
:1049F000C1F80880C1E900200FB0BDE8F08FBD1BF1
:104A00006D1CDEE74A4600DA694206A800F076FA35
:104A100006AB93E8070003AB83E8070050460A990A
:104A200000F057FB8DE80700A0F500501F380090FC
:104A30000398002D0ADD42F21F014A460844002374
:104A400003A90390684600F0C0FD09E0A0F50050FE
:104A50004A461F38002303A90390684600F0CAFDA8
:104A60008DE807000004000C03D04FF0FF30410830
:104A700000E01046B8F1000F03D000220092154666
:104A80001EE0751E05D400F0B3F9303262556D1E7C
:104A9000F9D5B3460122084302D000227F1C04E06E
:104AA0002078302801D100227F1E002A099784D067
:104AB0001DE0112D07DA00F09BF9303262556D1CB4
:104AC00050EA0102F5D1084302D00098C8B10EE0C7
:104AD0000021681E05E0235C625C63542254401E82
:104AE000491C8142F7DBAB46A81B401E0990002001
:104AF00004F80B000B98099AC0F80880C0E9002B55
:104B00007AE711264FF0000857E72DE9F04F884665
:104B10000446D21D22F0070191B0D1E90001CDE990
:104B20000A0100F09EFE02460B98C00F01D02D2016
:104B300007E02068810701D52B2002E0202101EA4F
:104B4000C000032A099001D0072A05DB034641462D
:104B5000204600F093F90BE12078800601D5E0694A
:104B600000E00620B8F1650F814606D0B8F1660F67
:104B700018D0B8F1670F70D131E00020B9F1110FF2
:104B8000009001DB112301E009F101030AAA01A948
:104B90000CA8FFF7E2FEDDE90C70002609F1010523
:104BA000834647E001204B4600904FF000470AAA99
:104BB00001A90CA8FFF7D1FEDDE90DB00C995D4607
:104BC000002610B909F101000D18B9EB050003D456
:104BD000C0F1FF3609F10105A5EB09002BE0B9F1A1
:104BE000010F01DA4FF001090020B9F1110F009017
:104BF000484601DD112300E003460AAA01A90CA8DA
:104C0000FFF7ABFEDDE90C704D46002683462078A9
:104C100000070AD4AB4500DA5D4601A8012D04DD8A
:104C2000411911F8011C302907D04F4502DA17F15C
:104C3000040F04DA012082460FE06D1EEEE7002F1C
:104C400002DCED1B3E4403E0781CA84200DD7D1C25
:104C5000B81B00F1010A4FF000472078000703D489
:104C6000AA4501DB4FF0FF3A0021B7F1004F0DF1EB
:104C700043088DF8431024D002202B23002F01DAA3
:104C80007F422D230A21021EA0F1010000DC5FB14A
:104C900097FBF1FC97FBF1F201FB1C7C17460CF132
:104CA000300C08F801CDEEE7A8F10100037021886F
:104CB000090501D5452100E06521A0F1010800F8B2
:104CC000011C09980FA9A1EB0807FF1D00B10120E5
:104CD000411901EBEA70A1693844081A401EA0612D
:104CE0002078C00602D42046AFF30080099828B18E
:104CF000D4E901219047206A401C20622078C00638
:104D000022D52046AFF300801EE0002E04DBB34521
:104D100002DD01A8805D00E03020D4E90121904748
:104D2000206A401C2062761CAAF101005FEA000A9A
:104D30000AD100F055F8C0680168405CD4E901214F
:104D40009047206A401C2062281EA5F10105DCDC8A
:104D500007E0D4E9012118F8010B9047206A401CB4
:104D60002062381EA7F10107F3DC2046AFF3008074
:104D7000032011B041E6000001694A1C0261087875
:104D8000704700B58FB0CDE901310021059105498B
:104D90007944CDE9031011466846FFF7C9FC0FB00E
:104DA00000BD0000E5FFFFFF0A6802F8010B0A6082
:104DB000704710B5436913B1AFF3008001E0FFF70E
:104DC00051FC012010BD127800F124010A7000226C
:104DD0004A700122EDE711684FF0FF32E9E7000069
:104DE00000487047A0C007200048704780C00720D7
:104DF00030B5B0F10A024FEA900E71F100034EEAAD
:104E0000817EB0EB0E0061EB91014FEA101E4EEA7D
:104E1000017E10EB0E0041EB11114FEA102E4EEA0D
:104E2000016E10EB0E0041EB11214FEA104E4EEADD
:104E3000014E10EB0E0041EB1141401841F1000111
:104E40004FEAD00040EA41704FEAD10110EB8005F3
:104E50004FEA810444EA907444EB01046D1944EB79
:104E60000404521BA3414FF0000348BF0A3200D58F
:104E700030BD401C41F1000130BD00002DE9F04182
:104E80001F46044603260168072A01F4006004DB7C
:104E900008B116A505E016A503E008B115A500E0C8
:104EA00015A521F010002060A069C01EA0610FB1FF
:104EB000401EA0612046AFF300804FB1D4E901212C
:104EC00038469047206A401C2062C01C206206E0E1
:104ED000206AFAE7D4E9012115F8010B9047761E04
:104EE000F8D22046AFF30080BDE8F0814E414E007D
:104EF0006E616E00494E4600696E66002DE9F0470E
:104F0000814616468AB0354878440DC88DE80D00B4
:104F100032487844801C03AC0DC884E80D0041F68B
:104F20009B300844372190FBF1F290FBF1F5A5F19D
:104F3000800501FB12041B3C02D56442012000E005
:104F40000020DFF898A080460027FA44AAF1BE0AA4
:104F50000EE0E0070AD03246684607EB470101231E
:104F60000AEB810100F046FB8DE8070064107F1C0E
:104F7000002CEED1194F7F44AE3F19E0E80715D061
:104F800007EB04100DF1180A90E80E008AE80E00F5
:104F9000C068F04201D1981908903246012306A951
:104FA00003A800F027FB03AB83E807006D10641C27
:104FB000002DE3D14FF0010332466946B8F1000FEE
:104FC00003A802D000F001FB01E000F013FBC9E9E7
:104FD0000001C9F808200AB0BDE8F087A826000043
:104FE0000048704780C007207546FFF7F9FFAE46BE
:104FF00005006946534620F00700854618B020B5E5
:10500000FBF7D6F8BDE820404FF000064FF0000750
:105010004FF000084FF0000B21F00701AC46ACE860
:10502000C009ACE8C009ACE8C009ACE8C0098D46CD
:10503000704710B50446AFF300802046BDE810402D
:10504000FBF7A1B84FF0013C50F8042B51F8043B9A
:105050009A4221D1A2EB0C03934313EACC1317D14C
:1050600050F8042B51F8043B9A4215D1A2EB0C03E3
:10507000934313EACC130BD150F8042B51F8043BA3
:105080009A4209D1A2EB0C03934313EACC13DBD071
:105090004FF00000704700BFD01A01BAB1FA81F199
:1050A00001F0180122FA01F0CB40C1F12001DBB27E
:1050B000C0B2C01A2CFA01F3D11A914311EAC311FC
:1050C000E6D1704701491820ABBEFEE7260002007A
:1050D00070475FEA400C08BF91F0000F4FEA8C2345
:1050E0004FEAC12243EA51514FEA1C5018BF00F564
:1050F000F0404FEA300018BF41F000415FEA6C5CBD
:1051000000F02980BCF1FF3F08BF40F080407047AD
:10511000130C06BF12044FF0100C4FF0000C130ECE
:1051200004BF12020CF1080C130F04BF12010CF1A2
:10513000040C930F04BF92000CF1020CD30F04BFB8
:1051400052000CF1010C11464FF00002A0F11F00BB
:10515000A0EB0C00704711F0004F08BF704731F012
:1051600000413FF4D5AF0B0C06BF09044FF0100C03
:105170004FF0000C0B0E04BF09020CF1080C0B0FD2
:1051800004BF09010CF1040C8B0F04BF89000CF162
:10519000020CCB0F04BF49000CF1010CCCF1200331
:1051A000A0EB0C0022FA03F302FA0CF241EA03012D
:1051B00000F10100704720F07F4C80EA030023F0EB
:1051C0007F47ACEB070303F57C5300F0004003F18D
:1051D000FF032DE980494FEA154B09B44FEA144308
:1051E00025EA0B4E24EA03480FF2042606EB1327A8
:1051F00049083E785FEA320203FB0667C7F50007FD
:1052000007FB06F64FEA54374FEAD64606F1020688
:1052100007FB066CCCF1005C4FEA1C472CEA074CFC
:1052200007FB06F40CFB06F504EB15464FEA961651
:1052300034BF00204FF000404FEAD13706FB07FC97
:105240004FEA1C4C0CFB0BF7D21B03FB0CF761EB7A
:1052500007010CFB0EF7B0EB074072EB17420CFB9B
:1052600008F734BFA2EB0742B2EB074261EB1741EC
:105270004FEA0C444FEA910706FB07FC4FEA1C4C2F
:105280000CFB0BF7B0EBC74072EB573203FB0CF78C
:1052900034BFA2EBC742B2EBC74261EB57310CFB04
:1052A0000EF7B0EBC70072EB57720CFB08F734BF78
:1052B000A2EBC702B2EBC70261EB5771039F4FEA43
:1052C000816141EA921104EBCC044FEAD1374FEAF5
:1052D000826206FB07FC42EA90124FEA80604FEAC6
:1052E0001C4C0CFB0BF7D21B03FB0CF761EB07010B
:1052F0000CFB0EF7B0EB074072EB17420CFB08F704
:1053000034BFA2EB0742B2EB074261EB17414FEA11
:105310008C554FEA910704EB9C2406FB07FC4FEAEF
:105320001C4C0CFB0BF7B0EBC74072EB573203FB86
:105330000CF734BFA2EBC742B2EBC74261EB573167
:105340000CFB0EF7B0EBC70072EB57720CFB08F7C3
:1053500034BFA2EBC702B2EBC70261EB577115EB8A
:105360004C254FEA816141EA92114FEA82624FEA8D
:10537000D13742EA901206FB07FC44F100044FEAE1
:1053800080604FEA1C4C0CFB0BF7D21B03FB0CF7A5
:1053900061EB07010CFB0EF7B0EB074072EB174215
:1053A0000CFB08F734BFA2EB0742B2EB074261EBFC
:1053B000174115EB1C154FEA813141EA92414FEA42
:1053C000823242EA90424FEA80304FEA0C7644F152
:1053D000000448EA03434EEA0B484FF0000EB2EBDC
:1053E000080C71EB030724BF624639464EEB0E0EE4
:1053F0004FF0000B0018524149414BEB0B0BB2EB45
:10540000080C71EB03077BF1000B24BF62463946A1
:105410004EEB0E0E4FF0000B0018524149414BEB82
:105420000B0BB2EB080C71EB03077BF1000B24BFF5
:10543000624639464EEB0E0E51EA020718BF46F09F
:10544000010616EB0E7655F1000254F1000103D56A
:10545000BDE88901BDE80088BDE88901BDE80048D4
:10546000B619524141EB0101A3F10103704780805D
:105470007F7E7D7C7B7A79787776767574737271AE
:1054800071706F6E6E6D6C6C6B6A6A696868676666
:1054900066656464636362616160605F5F5E5E5DF8
:1054A0005D5C5C5B5B5A5A5959585857575656556C
:1054B00055555454535352525251515050504F4FCE
:1054C0004F4E4E4D4D4D4C4C4C4B4B4B4A4A4A491E
:1054D0004949484848474747474646464545454461
:1054E0004444444343434342424242414141002BEE
:1054F0009C4630D477002BD01CB54FEA370703B455
:105500004FF010004FF01001BAF1000F06D0BCF1BF
:10551000000FDCBF40F0080040F008014FF0000031
:105520000FBCBDE810400BF1010BBBF1010F08BF30
:105530005FEA170722BF12F1010211F101014FF0DA
:10554000004143F1000300F0004043EA00007047CF
:10555000F9D35708D0E746EA064613F1400F4FEA61
:1055600016461FDD13F1200FDFBF16430A46002148
:1055700020335B42BED0C3F1200746EA064602FA5A
:1055800007F74FEA164646EA0706C3F1200722FA54
:1055900003F201FA07F721FA03F14FF0000342EAA0
:1055A0000702A7E746EA020646EA06464FEA16461B
:1055B00046EA0106BCBF46EA0646360C4FF0000339
:1055C0004FF000024FF0000194E72DE9804C9A461D
:1055D000934670B491E8380007C831EA400C48BFE0
:1055E00034EA430C03D5FFF7E6FDFFF780FFF0BC7C
:1055F000BDE8008C2DE9804C9A46934670B491E842
:10560000380007C810F0804F08BF13F0804F03D157
:1056100000F005F8FFF76BFFF0BCBDE8008C20F050
:105620007F4780EA030023F07F4C07EB0C03A3F5D0
:105630007C5300F00040A3F1FE0392F0000F00F055
:10564000B38095F0000F00F077802DE901494FEA13
:1056500011404FEA144621EA004800FB06FC24EA08
:10566000064708FB06F607FB08F800FB07F718EBF0
:1056700006484CEB164C4FEA124B18EB07484FEA22
:1056800015464CEB174022EA0B4E0BFB06FC25EAB5
:1056900006470EFB06F607FB0EFE0BFB07F71EEB9D
:1056A000064E4CEB164C4FF000061EEB074E4CEB33
:1056B000174B18EB0B0840F1000018EB0E0B58EBE2
:1056C000000840F100008F1A4FF000013CBFC943B1
:1056D000661B14BFB5EB040C00213CBFC943F61B8D
:1056E0004FEA17444EEA8E0E27EA04454FEA1C475C
:1056F00004FB07622CEA074C05FB07F70CFB05F6D9
:1057000004FB0CFC16EB074642EB174216EB0C466B
:1057100042EB1C421BEB060658EB0202414146EAF3
:105720009E0601D5BDE80189B619524141EB010140
:10573000A3F10103BDE801894FEA14454FEA11477F
:1057400024EA054621EA074C05FB07F406FB07F7A8
:105750000CFB06F105FB0CFC11EB074144EB174475
:105760004FEA124711EB0C4144EB1C4422EA074C70
:1057700005FB07F206FB07F70CFB06F605FB0CFC26
:1057800016EB074642EB174216EB0C4642EB1C4564
:105790006A1854F1000148BF7047B619524141EBF5
:1057A0000101A3F10103704795F0000F37D04FEAD4
:1057B00011424FEA144721EA024624EA074C02FB51
:1057C00007F106FB07F70CFB06F402FB0CFC14EBDD
:1057D000074441EB17414FEA154714EB0C4441EBEA
:1057E0001C4125EA074C02FB07F506FB07F70CFBFB
:1057F00006F602FB0CFC16EB074645EB174516EBCD
:105800000C4645EB1C42121951F1000148BF70478C
:10581000B619524141EB0101A3F1010370474FEA70
:1058200014454FEA114724EA054621EA074C05FBD7
:1058300007F106FB07F70CFB06F24FF0000605FB2D
:105840000CFC12EB074241EB174112EB0C4251EBFF
:105850001C4148BF7047921841EB0101A3F10103BD
:105860007047490050EAC12018BF04204A0D18BFF4
:1058700040F0010040F2FF72B2EB515F08BF40F010
:105880000200012808BF052070472DE9F0414F1E96
:1058900000EBC7010446D1E9000115461E4637F06A
:1058A00006020DD02A46334600F040FD7F1E04EB71
:1058B000C703D3E9002300F0D1FA37F00602F1D193
:1058C000022F25D0042F13D0062F18BFBDE8F0817A
:1058D0002A46334600F02AFDD4E90A2300F0BEFA36
:1058E0002A46334600F022FDD4E9082300F0B6FA38
:1058F0002A46334600F01AFDD4E9062300F0AEFA3A
:105900002A46334600F012FDD4E9042300F0A6FA3B
:105910002A46334600F00AFDD4E9022300F09EFA3D
:105920002A46334600F002FDD4E90023BDE8F041E9
:1059300000F094BA002213461046014900F04ABB19
:105940000000F03F012201F08EBA002213461046FB
:10595000114600F03FBB30380A2801D201207047C1
:10596000002070470949096C41F0FF01074A1164A2
:105970004FF0807191634900D163114648654FF43F
:1059800000019163D16301125165704700C0092085
:105990002DE9F04DC84A002490B0914205DA21F07B
:1059A0000043934201D805D120B110B0BDE8F04DBD
:1059B000FFF7C8BFB1F5801F1BDA53EA000209D018
:1059C000002911DA0120FAF793FC10B0BDE8F04D80
:1059D000FFF7BBBF0220FAF78BFCFFF7ABFF10B05D
:1059E00081F00041BDE8F08D6FF03504362201F002
:1059F0003AFA04EB2152C1F31308B049A2F2FF3383
:105A0000414401F4801282F07F6103EB225281F065
:105A10004051009241EA08010022A94B00F090FD9C
:105A2000044608F10200A74EC0F313000D467E4461
:105A3000032867D2D6E90023204600F023FC1ED1BC
:105A40000098002802BFD6E9000110B0BDE8F08D33
:105A500000F054FC07460C469B4A9C4B00F066FC49
:105A600006460D469A4A9B4B3846214600F05EFC9E
:105A700010B032462B46BDE8F04D00F0EFB94FF0C4
:105A80005532954B2046294600F050FC0022934B9E
:105A900000F04AFD06460F4622462B4610461946A0
:105AA00000F044FC32463B4600F040FC06460098BD
:105AB0000F46F0B100F022FC80468A46824A834BB2
:105AC00000F034FC32463B4600F02EFD22462B46C9
:105AD00000F036FD05460C467D4A7E4B4046514659
