:020000040000FA
:10000000000200106D010000750100007701000082
:10001000790100007B0100007D010000000000006C
:100020000000000000000000000000007F01000050
:100030008101000000000000830100008501000034
:100040008701000087010000870100008701000090
:100050008701000087010000870100008701000080
:100060008701000087010000870100008701000070
:100070008701000087010000870100008701000060
:100080008701000087010000870100008701000050
:100090008701000087010000870100008701000040
:1000A0008701000087010000870100008701000030
:1000B0008701000087010000870100008701000020
:1000C00087010000870100008701000000F002F8AE
:1000D00000F03CF80AA090E8000C82448344AAF1A6
:1000E0000107DA4501D100F031F8AFF2090EBAE8A4
:1000F0000F0013F0010F18BFFB1A43F0010318475C
:100100006C1F00009C1F0000103A24BF78C878C103
:10011000FAD8520724BF30C830C144BF04680C600D
:10012000704700000023002400250026103A28BF55
:1001300078C1FBD8520728BF30C148BF0B60704759
:10014000002070471FB51FBD10B510BD01F0CEFBDC
:100150001146FFF7F7FF00F0A7F800F0C5F803B469
:10016000FFF7F2FF03BC01F0EBFB000009488047FA
:1001700009480047FEE7FEE7FEE7FEE7FEE7FEE789
:10018000FEE7FEE7FEE7FEE704480549034A054BA4
:10019000704700002D040000CD00000090C0072033
:1001A0000002001000000010F0B504460B46154692
:1001B000194660003B4A102901D31039401C52F8FF
:1001C00020604FEA410C032707FA0CF7BE4342F8C0
:1001D000206052F820604F0005FA07F73E4342F8CE
:1001E0002060F0BDF0B504460B4615461946600088
:1001F0002C4A4032102901D31039401C52F820609B
:100200004FEA410C032707FA0CF7BE4342F820607F
:1002100052F820604F0005FA07F73E4342F820608D
:10022000F0BD30B50B461F496831012A07D151F89E
:10023000204001259D402C4341F8204006E051F824
:10024000204001259D40AC4341F8204030BD0128AD
:1002500006D11449896A41F00801124A916206E008
:1002600028B91049896A21F008010E4A9162704745
:10027000012800D1052201B90A220A4BDA6770472A
:1002800010B50446A27861782078FFF78DFFE278F8
:1002900061782078FFF7A6FF227961782078FFF750
:1002A000C0FF10BD00C0024001F0CAF90320094997
:1002B000887000200871C870012008701C204870E8
:1002C0000846FFF7DDFF01E001F0C1F9FCE700BFE0
:1002D000FEE7000009C007207047704770470A68B2
:1002E00002F8010B0A60704710B50446AFF30080B6
:1002F0002046BDE81040FFF732BF7047FFFFFFFF09
:1003000097480068C0F3016003285DD194488430A9
:10031000006800F0030030B1012820D0022839D055
:10032000032850D100E000BF8D480068C0F30E00E4
:10033000401C40008B49484389498839D1F88810CE
:10034000C1F30741491CB0FBF1F185487C300068DE
:10035000C0B2401CB1FBF0F08349086033E0804834
:100360000068C0F30E00401C4000804948437C49AF
:100370008839D1F88810C1F30741491CB0FBF1F16D
:1003800077487C300068C0B2401CB1FBF0F0764981
:10039000086018E072480068C0F30E00401C0104B9
:1003A0006F488838D0F88800C0F30740401CB1FB84
:1003B000F0F16B487C300068C0B2401CB1FBF0F03B
:1003C0006949086000BF30E065488430006800F08B
:1003D000030030B1012810D0022819D0032823D1FE
:1003E00000E000BF5E487C300068C0B2401C5D4940
:1003F000B1FBF0F05C49086016E059487C300068B9
:10040000C0B2401C5949B1FBF0F0574908600BE0FD
:1004100053487C300068C0B2401C4FF40041B1FB2F
:10042000F0F05149086000BF00BF704720205049DC
:1004300008604B488838D0F8A00100F0200030B1A7
:1004400000BF4B48006800F040000028F9D00320AE
:1004500043497C310860002041498839C1F8A8012E
:1004600043490C31086001203D498431086041480E
:100470003B49091F0860AA203949091D0860552019
:1004800008600120364908390860AA203449091D4E
:100490000860552032498839C1F88C0000BF3048C7
:1004A000006800F080600028F9D003202C4908394A
:1004B0000860AA202A498839C1F88C0055202849AB
:1004C000091D086000BF2648006800F04070002841
:1004D000F9D0232022491C310860AA2020498839FC
:1004E000C1F8AC0055201E492431086001201C4988
:1004F00018310860AA201A4924310860552018498B
:100500008839C1F8AC0000BF15482030006800F4FD
:1005100080600028F8D00320114918310860AA2013
:100520000F498839C1F8AC0055200D4924310860C5
:1005300000BF0B482030006800F440700028F8D05D
:100540000D4807493C310860002005498839C1F849
:10055000C80143F23A00086000200849086070476B
:1005600088C00F4000093D0000C00720001BB700F5
:10057000A0C10F4063000500DE87280408ED00E0FD
:1005800001460020052912D2DFE801F00305080B1F
:100590000E00FB480CE0FA48203009E0F8484030F3
:1005A00006E0F748603003E0F548803000E000BF27
:1005B00000BF704701460020052912D2DFE801F094
:1005C0000305080B0E00EE480CE0ED48203009E072
:1005D000EB48403006E0EA48603003E0E84880300D
:1005E00000E000BF00BF704701460020052912D27D
:1005F000DFE801F00305080B0E00E1480CE0E048DD
:10060000203009E0DE48403006E0DD48603003E09D
:10061000DB48803000E000BF00BF70472DE9F041AB
:1006200007460D4616463846FFF7AAFF04463CB17A
:100630001EB120682843206002E02068A8432060A3
:10064000BDE8F08170B506460C463046FFF798FFCE
:10065000054605B1AC6170BD70B506460C46304626
:10066000FFF78EFF054605B1EC6170BD70B505461C
:100670002846FFF785FF04460CB1606970BD002075
:10068000FCE718B912B9BF4B196017E0022804D172
:100690001AB9BC4B2033196010E028B9012A03D1E4
:1006A000B84B1B1D196009E0022805D1012A03D1AE
:1006B000B44B2433196001E000BFFEE770470346E6
:1006C0003BB932B9AF480C380068C84000F00100AF
:1006D0007047022B07D132B9AA4814300068C840CD
:1006E00000F00100F4E743B9012A06D1A548083813
:1006F0000068C84000F00100EAE7022B08D1012A97
:1007000006D1A04818300068C84000F00100DFE7BB
:1007100000BFFEE718B99B4A121F116007E00228CC
:1007200003D1984A1C32116001E000BFFEE7704718
:1007300070B504460D461646324629462046FFF758
:100740006DFF70BD70B504460D4629462046FFF783
:1007500079FF70BD70B504460D4629462046FFF767
:100760007BFF70BD10B504462046FFF77FFF10BD2C
:1007700070B504460D461646324629462046FFF718
:1007800080FF70BD70B504460D46164632462946B8
:100790002046FFF794FF70BD10B503460C46214676
:1007A0001846FFF7B7FF10BD2DE9F04107460D468B
:1007B00016463846FFF7E4FE04463CB11EB12069F8
:1007C0002843206102E02069A8432061BDE8F08150
:1007D0002DE9F04180460E4615461F464046FFF77C
:1007E000E9FE04468CB147B11EB1608828436080A1
:1007F0000BE020882843208007E01EB16088A843D2
:10080000608002E02088A8432080BDE8F0812DE9C7
:10081000F04180460E4615461F464046FFF7CAFE89
:1008200004468CB147B11EB1608A284360820BE058
:10083000208A2843208207E01EB1608AA843608294
:1008400002E0208AA8432082BDE8F0812DE9F04132
:1008500007460E4614463846FFF7ACFE05461DB166
:100860000EB16C8300E02C83BDE8F0812DE9F041EE
:1008700007460E4614463846FFF79CFE05461DB156
:100880000EB1EC8300E0AC83BDE8F08170B50646A4
:100890000D463046FFF78EFE044624B10DB1E08AC6
:1008A00070BDA08AFCE70020FAE72DE9F041804600
:1008B0000C4616461F464046FFF796FE05465DB1BC
:1008C0002FB1032C08DC285D3043285504E0032CAD
:1008D00002DC285DB0432855BDE8F0812DE9F041E8
:1008E00080460C4616461F464046FFF77DFE0546ED
:1008F0009DB14FB1032C10DC05F11000005D3043B9
:1009000005F11001085508E0032C06DC05F1100084
:10091000005DB04305F110010855BDE8F0812DE9F7
:10092000F04107460C4615463846FFF75DFE064681
:1009300026B1032C02DC06F118000555BDE8F08154
:100940002DE9F04107460C4615463846FFF74CFEA8
:10095000064626B1032C02DC06F11C000555BDE855
:10096000F08170B506460C463046FFF73DFE054661
:1009700055B1032C08DC05F11400005D70BD0000CA
:1009800000C00920908002400020F7E7000200BF6D
:10099000011EA0F10100FBD1704710B501224FF4F8
:1009A00070010020FFF7C4FE01224FF06071104675
:1009B000FFF7BEFE4FF470010020FFF7C3FE4FF0BB
:1009C00060710120FFF7BEFE10BD10B5222001F0BE
:1009D00021F810BD10B504464FF48000FE49C861EF
:1009E00080108861204600F0B9FF4FF40000FA49FA
:1009F000C861012001F004F84FF40000F649886155
:100A00004010886110BDF5480088704730B5014638
:100A100001F01F04C1F34513CA0AE50205EB4315B3
:100A20001544A8B230BD70B504460D46EB480088A9
:100A300048F68911884207D1A1B24E2001F00AF888
:100A4000A9B24F2001F006F8A1B2202001F002F86F
:100A5000A9B2212000F0FEFF70BD70B504460D461E
:100A600029462046FFF7DFFFFFF7AFFF00F08CFFBE
:100A7000064600F089FF0646304670BD70B5054653
:100A8000002400210846FFF7CEFFFFF79EFF00BFBE
:100A900003E02846FFF79EFF641CB4F5963FF8D3A9
:100AA00070BD10B5CD48008848F68911884205D13F
:100AB00046F23001112000F0CDFF04E041F2300198
:100AC000032000F0C7FF00210846FFF7ACFFFFF747
:100AD0007CFF45F25550FFF77DFF4AF6AA20FFF74D
:100AE00079FF00210846FFF79EFF10BD2DE9F04178
:100AF000BA48008848F68911884204D041F2300192
:100B0000032000F0A7FF002500210846FFF78BFF18
:100B1000FFF75BFF002405E02846FFF75BFF681C3A
:100B200085B2641CB4F5963FF6D30025AB48008827
:100B300049F22031884209D0A8480088491D8842DE
:100B400004D0A6480088C91C884219D1002413E0AB
:100B500000260EE021463046FFF77FFF0746FFF7ED
:100B600055FF29466A1C95B2884201D0BDE8F08144
:100B7000761CF02EEED3641CB4F5A07FE8D320E001
:100B80009648008844F23151884205D09348008845
:100B900048F68911884214D100240FE000260AE0AB
:100BA00021463046FFF759FF29466A1C95B2884214
:100BB00000D0DBE7761CF02EF2D3641CB4F5A07FE6
:100BC000ECD300BFD2E770B5FFF7E7FE40F2DC5090
:100BD000FFF7DCFE0024204600F01CFF00F0D4FEEE
:100BE000054600BF7D480580008844F231518842A7
:100BF00021D07A48008847F2837188421BD0774819
:100C0000008849F22031884215D074480088491D77
:100C1000884210D071480088C91C88420BD06F48A8
:100C20000088B0F5134F06D06C48008848F689114B
:100C3000884200D070BD6948008849F22531884259
:100C400004D066480088C91C88427DD11021E72065
:100C500000F000FF0121002000F0FCFE4FF4807145
:100C6000012000F0F7FE4FF4E061022000F0F2FEF8
:100C700041F22801032000F0EDFE0021042000F0E5
:100C8000E9FE40F20721082000F0E4FE00210920DF
:100C900000F0E0FE00210A2000F0DCFE01210C2023
:100CA00000F0D8FE00210D2000F0D4FE00210F201E
:100CB00000F0D0FE0021102000F0CCFE0721112012
:100CC00000F0C8FE0021122000F0C4FE0021132015
:100CD00000F0C0FE0F20FFF759FE41F290511020A6
:100CE00000F0B8FE40F22721112000F0B3FE0F20E3
:100CF000FFF74CFE9C21122000F0ACFE0F20FFF706
:100D000045FE4FF4C851132000F0A4FE23212920F2
:100D100000F0A0FE0E212B2000F09CFE0F20FFF71C
:100D200035FE0021202000F095FE0021212000F05A
:100D300091FE0F20FFF72AFE0721302000F08AFEE7
:100D400040F20771312000E08BE000F083FE0621C5
:100D5000322000F07FFE40F20471352000F07AFE70
:100D600041F60471362000F075FE0421372000F0B2
:100D700071FE0021382000F06DFE40F2067139202E
:100D800000F068FE40F201713C2000F063FE0F218C
:100D90003D2000F05FFE0F20FFF7F8FD00215020FE
:100DA00000F058FEEF21512000F054FE00215220A7
:100DB00000F050FE40F23F11532000F04BFE4FF484
:100DC0002741602000F046FE0121612000F042FE34
:100DD00000216A2004E0000000C009200EC00720A6
:100DE00000F038FE0021802000F034FE0021812038
:100DF00000F030FE0021822000F02CFE0021832034
:100E000000F028FE0021842000F024FE002185202F
:100E100000F020FE1021902000F01CFE0021922006
:100E200000F018FE0321932000F014FE4FF48871A7
:100E3000952000F00FFE0021972000F00BFE00210E
:100E4000982000F007FE40F23311072000F002FE68
:100E50000021202000F0FEFD0021212000F0FAFDFD
:100E600012E3FC48008849F22031884204D0F94856
:100E70000088B0F5134F7DD10021084600F0EAFD4F
:100E80000021012000F0E6FD4FF4E061022000F0B7
:100E9000E1FD41F21801032000F0DCFD00210420F7
:100EA00000F0D8FD40F20221082000F0D3FD00211F
:100EB000092000F0CFFD00210A2000F0CBFD012128
:100EC0000C2000F0C7FD00210D2000F0C3FD002123
:100ED0000F2000F0BFFD0F20FFF758FD40F2011179
:100EE000072000F0B7FD0F20FFF750FD4FF48651AB
:100EF000102000F0AFFD0721112000F0ABFD4FF4F2
:100F00008871122000F0A6FD4FF43061132000F02C
:100F1000A1FD0021292000F09DFD44F210012B20AD
:100F200000F098FD0021502000F094FDEF215120A9
:100F300000F090FD0021522000F08CFD40F23F11A6
:100F4000532000F087FD4FF42741602000F082FD20
:100F50000121612000F07EFD00216A2000F07AFD71
:100F60000021802000F076FD0021812000F072FD3C
:100F7000002100E02DE0822000F06CFD00218320A4
:100F800000F068FD0021842000F064FD0021852030
:100F900000F060FD1021902000F05CFD0021922007
:100FA00000F058FD0121932000F054FD4FF48871AA
:100FB000952000F04FFD0021972000F04BFD00210F
:100FC000982000F047FD40F27311072000F042FD29
:100FD0005AE2A048008844F2315188427DD1012173
:100FE000002000F037FD4FF4C561102000F032FD05
:100FF0000621122000F02EFD40F63221132000F0D1
:1010000029FD4021112000F025FD5021152000F080
:1010100021FD1621122000F01DFD0F20FFF7B6FC68
:1010200045F26061102000F015FD0F20FFF7AEFCC7
:1010300042F64E21132000F00DFD0021012000F0AA
:1010400009FD4FF44071022000F004FD41F230012F
:10105000032000F0FFFC40F20221082000F0FAFC1F
:1010600000210A2000F0F6FC0021302000F0F2FC04
:1010700040F20241312000F0EDFC4FF48371322048
:1010800000F0E8FC4FF4E061332000F0E3FC4FF4A3
:101090008271342000F0DEFC40F20131352000F096
:1010A000D9FC40F20771362000F0D4FC40F2053143
:1010B000372000F0CFFC4FF40271382000F0CAFC5A
:1010C00040F60B71392000F0C5FC0F20FFF75EFCE5
:1010D0000221412000F0BEFC00E037E04FF4274140
:1010E000602000F0B7FC0121612000F0B3FC40F269
:1010F0001911902000F0AEFC4FF48571922000F0A1
:10110000A9FC0421932000F0A5FC4FF48071A020DD
:1011100000F0A0FC0F20FFF739FC0F20FFF736FC92
:101120000F20FFF733FC0F20FFF730FC40F23311A4
:10113000072000F08FFC0F20FFF728FC0021A020E3
:1011400000F088FC1420FFF721FC9DE14148008855
:1011500047F2837188427CD10121FF2000F07AFCA4
:101160000821F32000F076FC4FF48071012000F09C
:1011700071FC4FF4E061022000F06CFC41F23001A0
:10118000032000F067FC40F20231082000F062FC0E
:1011900040F20721082000F05DFC0021092000F04A
:1011A00059FC00210A2000F055FC0021102000F01D
:1011B00051FC0521112000F04DFC0021122000F00F
:1011C00049FC0021132000F045FC1420FFF7DEFB52
:1011D00041F2B021102000F03DFC1420FFF7D6FBB7
:1011E0000721112000F036FC1420FFF7CFFB8B21E4
:1011F000122000F02FFC1420FFF7C8FB4FF4B85169
:10120000132000F027FC1420FFF7C0FB2221292027
:1012100000F020FC0021302000F01CFC40F207719F
:10122000312000F017FC40F20551322000F012FC92
:1012300040F20711352000F00DFC0821362000F0A7
:1012400009FC0021372000F005FC40F20221382083
:1012500002E040E00EC0072000F0FCFB4FF4837179
:10126000392000F0F7FB40F202213C2000F0F2FBB5
:101270004FF481613D2000F0EDFB1420FFF786FB69
:101280000021502000F0E6FBEF21512000F0E2FBAE
:101290000021522000F0DEFB40F23F11532000F00D
:1012A000D9FB4FF42741602000F0D4FB01216120DD
:1012B00000F0D0FB3321902000F0CCFB0B212B2041
:1012C00000F0C8FB40F23311072000F0C3FB1420EC
:1012D000FFF75CFBD8E07148008848F68911884226
:1012E000F8D12121072000F0B5FB0121002000F0FA
:1012F000B1FB2321072000F0ADFB0021102000F0FE
:10130000A9FB40F6B830FFF741FB3321072000F07E
:10131000A1FB46F27001112000F09CFB4FF4C0616C
:10132000022000F097FB40F60401032000F092FB3E
:1013300000210C2000F08EFB40F60C010D2000F087
:1013400089FB4FF424510E2000F084FBB8211E20AD
:1013500000F080FB42F63F31012000F07BFB0021D2
:10136000102000F077FB0021052000F073FB002126
:10137000062000F06FFB4EF61C71162000F06AFB91
:101380000321172000F066FB40F23321072000F014
:1013900061FBC0210B2000F05DFB00210F2000F05D
:1013A00059FB0021412000F055FB0021422000F0B4
:1013B00051FB0021482000F04DFB40F23F11492035
:1013C00000F048FB00214A2000F044FB00214B20A4
:1013D00000F040FB4FF46F41442000F03BFB002144
:1013E000452000F037FB40F23F11462000F032FB71
:1013F00040F20771302000F02DFB4FF401713120D5
:1014000000F028FB4FF40171322000F023FB40F282
:101410000251332000F01EFB40F20751342000F04F
:1014200019FB4FF40171352000F014FB4FF40171EA
:10143000362000F00FFB40F20251372000F00AFB8B
:1014400040F202313A2000F005FB40F202313B202D
:1014500000F000FB0021232000F0FCFA00212420F2
:1014600000F0F8FA4FF40041252000F0F3FA0021D3
:101470004F2000F0EFFA00214E2000F0EBFAFFF7CA
:1014800010FB1F20FFF7FAFAFFF70BFBFFF72EFB0D
:101490001F20FFF7F3FA00BFFFF7CCBB0EC00720F9
:1014A0002DE9F84F05460E46174698460095B14679
:1014B00000242CE0A7F12000244901EB001010F8D3
:1014C00004A049460098FFF7AEFA09F101001FFA9F
:1014D00080F9FFF77AFA4FF0000B13E00AF0800072
:1014E00020B11FFA88F0FFF775FA03E00A9988B275
:1014F000FFF770FA4FEA4A604FEA106A0BF10100F9
:1015000000F0FF0BBBF1080FE8DB601CC4B2102C2D
:10151000D0DBBDE8F88F2DE9F84305460E461446AA
:101520001F46DDF820800BE0CDF8008022783B4696
:1015300031462846FFF7B4FF641C05F1080085B268
:1015400020780028F0D1BDE8F8830000681A000078
:101550002DE9F05F81460D4617469846DDE90AAB56
:10156000BAF1760F14D12C460EE021464846FFF71B
:101570005AFAFFF72AFA002603E05846FFF72AFA3C
:10158000761C4645F9D9641CE819A042EDD214E056
:101590002C460EE021464846FFF745FAFFF715FABC
:1015A000002603E05846FFF715FA761CBE42F9D92B
:1015B000641C05EB0800A042ECD2BDE8F09F2DE9C9
:1015C000FC5F0746884691461D46DDE90E4BDDE986
:1015D0000C6ABAF1010F08D168202B464A464146F1
:1015E000CDE9000B3846FFF7B3FF682033464A4683
:1015F0004146CDE900043846FFF7AAFF762007EB05
:101600000901CDE90004881B33462A464146FFF70D
:101610009FFF6820CDE9000408EB0500811B3346DD
:101620004A463846FFF794FF762033462A4641461D
:10163000CDE900043846FFF78BFFBDE8FC9F0000B2
:1016400010B5FFF7C0FA00203B49087010BD1FB568
:101650003948007800286CD14FF6E0700021022351
:10166000CDE9003128233222CDE902101E212020AD
:10167000FFF7A5FF31A1334800F070F81F204FF6A7
:10168000FF73304A2A2100902620FFF744FF4FF6CF
:10169000E07000210223CDE9003128233222CDE978
:1016A00002101E215820FFF78AFF27A1254800F0CD
:1016B00055F81F204FF6FF73224A2A21009066201A
:1016C000FFF729FF4FF6E07000210223CDE900313A
:1016D00028233222CDE902101E21A820FFF76FFF38
:1016E0001AA1184800F03AF81F204FF6FF73154A68
:1016F0002A210090BA20FFF70EFF4FF6E07000217C
:101700000223CDE900312823BA22CDE90210C821F5
:101710002020FFF754FF0EA10A4800F01FF81F20F9
:101720004FF6FF73074AD42100906420FFF7F3FEC1
:1017300000BF00BF1FBD000008C0072074656D70AA
:101740007300000010C007204A2F4E00432A0000FB
:1017500048483A4D4D3A5353000000000FB41CB5B1
:10176000074B06AA7B4469460090059800F0ABF849
:1017700000206946FEF7B3FD1CBC5DF814FB0000B9
:1017800077EBFFFF2DE9F05F894604464FF0000A32
:10179000DFF824B1FB44C0F820A02046E168884768
:1017A00000287DD0252806D0D4E901219047206A61
:1017B000401C2062F1E700255F462046E16888472B
:1017C0002028064607DB312E05D2B81910F8200C68
:1017D00008B10543F1E7A80701D525F00405C4F8D1
:1017E0001CA00027C4F818A02A2E09D0304600F00B
:1017F000ADF838B304EB8708303EC8F8186019E03C
:1018000059F8041B204604EB87029161E168884780
:10181000012F064618D1E069002820DA25F02005BE
:101820001DE0D8F8180000EB800006EB40003038CF
:10183000C8F818002046E1688847064600F086F898
:101840000028EED1012F0AD02E2E08D12046E168C3
:1018500088477F1C0646022F45F02005C4DBA0699F
:10186000002803DA404245F00105A061E80701D0F5
:1018700025F01005A6B1A6F14100192802D820369E
:1018800045F400654A463146204625604D46FEF740
:1018900057FC60B1012807D0ED1D25F0070000E0DE
:1018A00007E000F1080978E705F1040975E730461B
:1018B0007AE7206ABDE8F09FC008000001694A1C71
:1018C00002610878704700B58FB0CDE90131002181
:1018D000059105497944CDE9031011466846FFF7A3
:1018E00051FF0FB000BD0000E5FFFFFF754600F09F
:1018F00023F8AE4605006946534620F007008546AA
:1019000018B020B5FEF740FCBDE820404FF00006BF
:101910004FF000074FF000084FF0000B21F00701D7
:10192000AC46ACE8C009ACE8C009ACE8C009ACE81A
:10193000C0098D46704700000048704730C007203E
:1019400001491820ABBEFEE72600020030380A2805
:1019500001D2012070470020704700000949096C3E
:1019600041F0FF01074A11644FF080719163490013
:10197000D163114648654FF400019163D1630112B0
:101980005165704700C0092070B500254FF48000F4
:101990001A49C86180108861C00088618010C861E0
:1019A000012000F02DF800BF1448006C20F0FF006B
:1019B000124908644FF08070C8634000C863322049
:1019C00000F01EF80D48543004784FF000700B49B9
:1019D0008863322000F014F8084890F8540040EA78
:1019E00004244FF080700549886300BF2546C0106D
:1019F000886140008861284670BD000000C0092051
:101A000008B5009000BF00994A1E00920029FAD143
:101A100008BD000010B504464FF480000C49C861B1
:101A20008010C861400088612046FFF797FF46207C
:101A3000FFF7E6FF4FF400000549C8610120FFF7FA
:101A4000DFFF4FF40000024988614010886110BD3B
:101A500000C0092070B505460C462846FFF7DAFF9E
:101A60002046FEF7B7FF70BD000000000000000038
:101A7000000000000000000000000000183C3C3C9A
:101A800018180018180000000000000066666600C4
:101A900000000000000000000000000036367F3625
:101AA00036367F3636000000000018183C6660307D
:101AB000180C06663C18180000000070D8DA760C86
:101AC00018306E5B1B0E000000000000386C6C3894
:101AD000606F66663B0000000000000018181800E8
:101AE0000000000000000000000000000C1818308A
:101AF0003030303018180C00000000003018180C7E
:101B00000C0C0C0C18183000000000000000361CF3
:101B10007F1C3600000000000000000000001818C4
:101B20007E18180000000000000000000000000007
:101B300000001C1C0C180000000000000000007ECB
:101B40000000000000000000000000000000000095
:101B500000001C1C0000000000000006060C0C1811
:101B600018303060600000000000001E333737334B
:101B70003B3B331E000000000000000C1C7C0C0CE2
:101B80000C0C0C0C000000000000003C6666060C0B
:101B90001830607E000000000000003C6666061CF5
:101BA0000666663C00000000000000303036363625
:101BB000667F0606000000000000007E6060607C1A
:101BC00006060C78000000000000001C18307C663F
:101BD0006666663C000000000000007E060C0C18E3
:101BE00018303030000000000000003C6666763C93
:101BF0006E66663C000000000000003C666666669B
:101C00003E0C18380000000000000000001C1C0002
:101C100000001C1C0000000000000000001C1C0054
:101C200000001C1C0C180000000000060C1830609E
:101C300030180C06000000000000000000007E00CC
:101C40007E000000000000000000006030180C065C
:101C50000C183060000000000000003C66660C18A4
:101C600018001818000000000000007EC3C3CFDB7E
:101C7000DBCFC07F00000000000000183C666666F5
:101C80007E666666000000000000007C6666667C7A
:101C90006666667C000000000000003C66666060CE
:101CA0006066663C00000000000000786C666666B6
:101CB00066666C78000000000000007E6060607C5A
:101CC0006060607E000000000000007E6060607C5C
:101CD00060606060000000000000003C66666060BC
:101CE0006E66663E00000000000000666666667E66
:101CF00066666666000000000000003C18181818B0
:101D00001818183C0000000000001E0C0C0C0C0CF5
:101D1000CCCCCC780000000000000066666C6C78CB
:101D20006C6C66660000000000000060606060602F
:101D30006060607E000000000000006363776B6BF2
:101D40006B636363000000000000006363737B6FDC
:101D500067636363000000000000003C666666661F
:101D60006666663C000000000000007C6666667CDB
:101D700060606060000000000000003C666666660F
:101D80006666663C0C0600000000007C6666667CA9
:101D90006C666666000000000000003C666030185B
:101DA0000C06663C000000000000007E18181818A1
:101DB00018181818000000000000006666666666C5
:101DC0006666663C000000000000006666666666A7
:101DD00066663C18000000000000006363636B6BE4
:101DE0006B363636000000000000006666341818B6
:101DF0002C66666600000000000000666666663CB1
:101E000018181818000000000000007E06060C18C4
:101E10003060607E000000000000003C3030303058
:101E20003030303030303C0000000060603030181E
:101E3000180C0C06060000000000003C0C0C0C0CFA
:101E40000C0C0C0C0C0C3C0000183C660000000054
:101E50000000000000000000000000000000000082
:101E6000000000000000FF000038180C0000000017
:101E7000000000000000000000000000003C06061A
:101E80003E66663E0000000000000060607C666602
:101E90006666667C0000000000000000003C666092
:101EA0006060663C0000000000000006063E6666BA
:101EB0006666663E0000000000000000003C6666AA
:101EC0007E60603C000000000000001E3030307E6C
:101ED000303030300000000000000000003E666638
:101EE0006666663E06067C0000000060607C6666F2
:101EF0006666666600000000000018180078181872
:101F00001818187E0000000000000C0C003C0C0C9F
:101F10000C0C0C0C0C0C7800000000606066666C09
:101F2000786C666600000000000000781818181829
:101F30001818187E0000000000000000007E6B6B87
:101F40006B6B6B630000000000000000007C6666A5
:101F5000666666660000000000000000003C6666E1
:101F60006666663C0000000000000000007C6666BB
:101F70006666667C6060600000000000003E666689
:101F80006666663E060606000000000000666E708B
:101F9000606060600000000000000000003E6060C3
:101FA0003C06067C0000000000000030307E30302F
:101FB0003030301E00000000000000000066666641
:101FC0006666663E0000000000000000006666666F
:101FD00066663C18000000000000000000636B6BA8
:101FE0006B6B363600000000000000000066663CA7
:101FF000183C66660000000000000000006666668F
:102000006666663C0C18F00000000000007E060CBE
:102010001830607E000000000000000C1818183016
:1020200060301818180C0000000000181818181854
:102030001818181818181800000000301818180C74
:10204000060C18181830000000000071DB8E00002C
:102050000000000000000000040000080000000074
:102060000000000200010000100000009C200000A1
:1020700000C0072010000000080100009C200000A4
:10208000000000100002000024010000AC2000004D
:1020900010C00720800000002401000000E1F505C9
:0C20A00000000000000000000000000034
:04000005000000CD2A
:00000001FF
