:020000040000FA
:1000000088C20720F901000001020000030200007D
:1000100005020000070200000902000000000000C5
:100020000000000000000000000000000B020000C3
:100030000D020000000000000F020000110200008D
:100040001302000013020000073700001302000033
:1000500013020000413600001302000013020000EA
:10006000130200001302000013020000130200003C
:10007000130200001302000013020000130200002C
:10008000130200001302000013020000130200001C
:10009000130200001302000013020000130200000C
:1000A00013020000130200001302000013020000FC
:1000B00013020000130200001302000013020000EC
:1000C00013020000130200001302000000F002F807
:1000D00000F082F80AA090E8000C82448344AAF160
:1000E0000107DA4501D100F077F8AFF2090EBAE85E
:1000F0000F0013F0010F18BFFB1A43F0010318475C
:100100009C690000CC69000010F8013B0A4413F020
:10011000030408BF10F8014B1D1108BF10F8015B64
:10012000641E05D010F8016B641E01F8016BF9D153
:10013000002D15D010F8014B03F00C030C2BA1EB94
:1001400004040ABF10F8013BA4EB8314A4EB0324BE
:1001500005F1010314F8016B5B1E01F8016BF9D581
:10016000914238BF10F8013BD1D37047103A24BFF9
:1001700078C878C1FAD8520724BF30C830C144BF0C
:1001800004680C607047000000230024002500264E
:10019000103A28BF78C1FBD8520728BF30C148BFEA
:1001A0000B607047662906F09480642903F0E484AC
:1001B000632904F07280732904F07780002070476F
:1001C0001FB504F077F804000020002105F068F85E
:1001D000E0601FBD10B510BD04F070F91146FFF7C7
:1001E000EFFF00F027F804F08EF903B4FFF7F2FFF9
:1001F00003BC04F0D1F900000948804709480047D2
:10020000FEE7FEE7FEE7FEE7FEE7FEE7FEE7FEE7C6
:10021000FEE7FEE704480549034A054B7047000026
:100220002D040000CD00000088C0072088C20720F0
:1002300088C0072003F0BEF801E003F07DF9FCE779
:1002400000BFFEE72DE9F84F05460E4617469846D3
:100250000095B14600242CE0A7F12000244901EBD1
:10026000001010F804A04946009802F00EF909F1B8
:1002700001001FFA80F902F0DAF84FF0000B13E0EA
:100280000AF0800020B11FFA88F002F0D5F803E0F0
:100290000A9988B202F0D0F84FEA4A604FEA106A31
:1002A0000BF1010000F0FF0BBBF1080FE8DB601C55
:1002B000C4B2102CD0DBBDE8F88F2DE9F843054619
:1002C0000E4614461F46DDF820800BE0CDF8008076
:1002D00022783B4631462846FFF7B4FF641C05F1FF
:1002E000080085B220780028F0D1BDE8F88300002E
:1002F000C66300007047704770477047FFFFFFFFFD
:1003000097480068C0F3016003285DD194488430A9
:10031000006800F0030030B1012820D0022839D055
:10032000032850D100E000BF8D480068C0F30E00E4
:10033000401C40008B49484389498839D1F88810CE
:10034000C1F30741491CB0FBF1F185487C300068DE
:10035000C0B2401CB1FBF0F08349086033E0804834
:100360000068C0F30E00401C4000804948437C49AF
:100370008839D1F88810C1F30741491CB0FBF1F16D
:1003800077487C300068C0B2401CB1FBF0F0764981
:10039000086018E072480068C0F30E00401C0104B9
:1003A0006F488838D0F88800C0F30740401CB1FB84
:1003B000F0F16B487C300068C0B2401CB1FBF0F03B
:1003C0006949086000BF30E065488430006800F08B
:1003D000030030B1012810D0022819D0032823D1FE
:1003E00000E000BF5E487C300068C0B2401C5D4940
:1003F000B1FBF0F05C49086016E059487C300068B9
:10040000C0B2401C5949B1FBF0F0574908600BE0FD
:1004100053487C300068C0B2401C4FF40041B1FB2F
:10042000F0F05149086000BF00BF704720205049DC
:1004300008604B488838D0F8A00100F0200030B1A7
:1004400000BF4B48006800F040000028F9D00320AE
:1004500043497C310860002041498839C1F8A8012E
:1004600043490C31086001203D498431086041480E
:100470003B49091F0860AA203949091D0860552019
:1004800008600120364908390860AA203449091D4E
:100490000860552032498839C1F88C0000BF3048C7
:1004A000006800F080600028F9D003202C4908394A
:1004B0000860AA202A498839C1F88C0055202849AB
:1004C000091D086000BF2648006800F04070002841
:1004D000F9D0232022491C310860AA2020498839FC
:1004E000C1F8AC0055201E492431086001201C4988
:1004F00018310860AA201A4924310860552018498B
:100500008839C1F8AC0000BF15482030006800F4FD
:1005100080600028F8D00320114918310860AA2013
:100520000F498839C1F8AC0055200D4924310860C5
:1005300000BF0B482030006800F440700028F8D05D
:100540000D4807493C310860002005498839C1F849
:10055000C80143F23A00086000200849086070476B
:1005600088C00F4000093D0000C00720001BB700F5
:10057000A0C10F4063000500DE87280408ED00E0FD
:1005800010B50A46202801D2034601E0A0F120035D
:100590001946202810D2454B1B6803248C40A343E6
:1005A000434CC4F8A831414B1B6802FA01F42343C1
:1005B0003F4CC4F8A83111E03C4B1B1D1B680324C1
:1005C0008C40A3433A4CC4F8AC31384B1B1D1B681C
:1005D00002FA01F42343364CC4F8AC3110BD014695
:1005E000202903D20A46314B186804E0A1F1200209
:1005F0002E4B1B1D186820FA02F303F0030070470E
:1006000070B506462B4804683046FFF7E8FF0546FC
:1006100035B1012D06D0022D06D0032D08D105E0FD
:10062000042505E0012503E0022501E0082500BFBF
:1006300000BFB4FBF5F4204670BD012909D11C4A66
:10064000C43212681C4B03401A43194BC3F8C42030
:1006500009E041B9164AC4321268174B83431A4065
:10066000134BC3F8C420704700201149C031086003
:1006700030BF704704201149086008200C49C03180
:10068000086030BF704704200C4908600920084901
:10069000C031086030BF704704200849086003205B
:1006A0000349C031086030BF70470000A8C10F4047
:1006B00000C00F4000C00720DEF7EFEF10ED00E0B4
:1006C00001460020052912D2DFE801F00305080BDE
:1006D0000E00FB480CE0FA48203009E0F8484030B2
:1006E00006E0F748603003E0F548803000E000BFE6
:1006F00000BF704701460020052912D2DFE801F053
:100700000305080B0E00EE480CE0ED48203009E030
:10071000EB48403006E0EA48603003E0E8488030CB
:1007200000E000BF00BF704701460020052912D23B
:10073000DFE801F00305080B0E00E1480CE0E0489B
:10074000203009E0DE48403006E0DD48603003E05C
:10075000DB48803000E000BF00BF70472DE9F0416A
:1007600007460D4616463846FFF7AAFF04463CB139
:100770001EB120682843206002E02068A843206062
:10078000BDE8F08170B506460C463046FFF798FF8D
:10079000054605B1AC6170BD70B506460C463046E5
:1007A000FFF78EFF054605B1EC6170BD70B50546DB
:1007B0002846FFF785FF04460CB1606970BD002034
:1007C000FCE718B912B9BF4B196017E0022804D131
:1007D0001AB9BC4B2033196010E028B9012A03D1A3
:1007E000B84B1B1D196009E0022805D1012A03D16D
:1007F000B44B2433196001E000BFFEE770470346A5
:100800003BB932B9AF480C380068C84000F001006D
:100810007047022B07D132B9AA4814300068C8408B
:1008200000F00100F4E743B9012A06D1A5480838D1
:100830000068C84000F00100EAE7022B08D1012A55
:1008400006D1A04818300068C84000F00100DFE77A
:1008500000BFFEE718B99B4A121F116007E002288B
:1008600003D1984A1C32116001E000BFFEE77047D7
:1008700070B504460D461646324629462046FFF717
:100880006DFF70BD70B504460D4629462046FFF742
:1008900079FF70BD70B504460D4629462046FFF726
:1008A0007BFF70BD10B504462046FFF77FFF10BDEB
:1008B00070B504460D461646324629462046FFF7D7
:1008C00080FF70BD70B504460D4616463246294677
:1008D0002046FFF794FF70BD10B503460C46214635
:1008E0001846FFF7B7FF10BD2DE9F04107460D464A
:1008F00016463846FFF7E4FE04463CB11EB12069B7
:100900002843206102E02069A8432061BDE8F0810E
:100910002DE9F04180460E4615461F464046FFF73A
:10092000E9FE04468CB147B11EB16088284360805F
:100930000BE020882843208007E01EB16088A84390
:10094000608002E02088A8432080BDE8F0812DE986
:10095000F04180460E4615461F464046FFF7CAFE48
:1009600004468CB147B11EB1608A284360820BE017
:10097000208A2843208207E01EB1608AA843608253
:1009800002E0208AA8432082BDE8F0812DE9F041F1
:1009900007460E4614463846FFF7ACFE05461DB125
:1009A0000EB16C8300E02C83BDE8F0812DE9F041AD
:1009B00007460E4614463846FFF79CFE05461DB115
:1009C0000EB1EC8300E0AC83BDE8F08170B5064663
:1009D0000D463046FFF78EFE044624B10DB1E08A85
:1009E00070BDA08AFCE70020FAE72DE9F0418046BF
:1009F0000C4616461F464046FFF796FE05465DB17B
:100A00002FB1032C08DC285D3043285504E0032C6B
:100A100002DC285DB0432855BDE8F0812DE9F041A6
:100A200080460C4616461F464046FFF77DFE0546AB
:100A30009DB14FB1032C10DC05F11000005D304377
:100A400005F11001085508E0032C06DC05F1100043
:100A5000005DB04305F110010855BDE8F0812DE9B6
:100A6000F04107460C4615463846FFF75DFE064640
:100A700026B1032C02DC06F118000555BDE8F08113
:100A80002DE9F04107460C4615463846FFF74CFE67
:100A9000064626B1032C02DC06F11C000555BDE814
:100AA000F08170B506460C463046FFF73DFE054620
:100AB00055B1032C08DC05F11400005D70BD000089
:100AC00000C00920908002400020F7E7F0B50446FE
:100AD0000B461546194660003B4A102901D31039D0
:100AE000401C52F820604FEA410C032707FA0CF72C
:100AF000BE4342F8206052F820604F0005FA07F725
:100B00003E4342F82060F0BDF0B504460B46154662
:100B1000194660002C4A4032102901D31039401C7C
:100B200052F820604FEA410C032707FA0CF7BE4346
:100B300042F8206052F820604F0005FA07F73E4364
:100B400042F82060F0BD30B50B461F496831012ADC
:100B500007D151F8204001259D402C4341F8204009
:100B600006E051F8204001259D40AC4341F820406B
:100B700030BD012806D11449896A41F00801124AA2
:100B8000916206E028B91049896A21F008010E4AED
:100B900091627047012800D1052201B90A220A4B4F
:100BA000DA67704710B50446A27861782078FFF7BD
:100BB0008DFFE27861782078FFF7A6FF22796178CF
:100BC0002078FFF7C0FF10BD00C0024070B5054699
:100BD00035B1012D09D0022D0CD0032D14D10EE01A
:100BE0000220FFF70DFD04460EE00420FFF708FD8C
:100BF000044609E02C20FFF703FD044604E02E2004
:100C0000FFF7FEFC044600BF00BF204670BD2DE983
:100C1000F04781460C464846FFF7D8FF00260546B8
:100C200000232946A1FB047C06FB04C205FB03212B
:100C3000FB4A384602F0EAFE05462846BDE8F08742
:100C400001464FF0FF30B1F1402F01D100200DE0FF
:100C5000F44A914201D1012008E0F34A914201D1C6
:100C6000022003E0F14A914200D10320704770B5A1
:100C700005460C46B5F1402F08D0EA48854205D01C
:100C8000E948854202D0E948854200D103E0A62127
:100C9000E7A0FFF7D5FA4CB1012C07D0022C05D004
:100CA000032C03D0042C01D0052C00D103E0A72194
:100CB000DFA0FFF7C5FA28680121A1400840C6B2AD
:100CC0000EB1012070BD0020FCE770B505460C4652
:100CD000B5F1402F08D0D348854205D0D24885428F
:100CE00002D0D248854200D103E0C421D0A0FFF752
:100CF000A7FA4CB1012C07D0022C05D0032C03D04D
:100D0000042C01D0052C00D103E0C521C8A0FFF7B9
:100D100097FA2868211D01228A401040C6B20EB100
:100D2000012070BD0020FCE770B505460C46B5F10A
:100D3000402F08D0BB48854205D0BB48854202D031
:100D4000BA48854200D103E0DD21B9A0FFF778FA67
:100D50004CB1012C07D0022C05D0032C03D0042C5D
:100D600001D0052C00D103E0DE21B1A0FFF768FA25
:100D70000120A040286070BD70B505460C46B5F155
:100D8000402F08D0A748854205D0A748854202D009
:100D9000A648854200D103E0F421A5A0FFF750FA50
:100DA0004CB1012C07D0022C05D0032C03D0042C0D
:100DB00001D0052C00D103E0F5219DA0FFF740FAFA
:100DC000201D01218140296070BD20B90A46012300
:100DD0001370536003E00A460023537000BF70474E
:100DE0002DE9F04704460D461646B4F1402F08D0D1
:100DF0008C48844205D08C48844202D08B4884427F
:100E000000D104E040F22B1189A0FFF719FA1DB1BF
:100E1000012D01D000D000D104E04FF4967184A0E0
:100E2000FFF70EFAB4F1402F08D101210220FFF79D
:100E300004FC00210220FFF7A3FB22E07948844252
:100E400008D101210420FFF7F8FB00210420FFF75F
:100E500097FB16E07448844208D101218805FFF70A
:100E6000ECFB00212C20FFF78BFB0AE06F4884424B
:100E700007D10121C805FFF7E0FB00212E20FFF775
:100E80007FFBA06A20F00300A062A06AA06200209D
:100E9000A0602061E060606840F00200606060680F
:100EA00020F00200606085B93746387818B9786854
:100EB000401EE06017E02046FFF7C2FE81467968D9
:100EC000FFF7A5FE401EE0600DE0B046A06A20F0EE
:100ED0000C00A062464698F80100012803D1A06AE0
:100EE00040F00400A0624FF0FF302060BDE8F087C2
:100EF00010B50446B4F1402F08D04A48844205D0CA
:100F00004948844202D04948844200D104E040F27A
:100F1000791147A0FFF794F900206060B4F1402FE9
:100F200004D100210220FFF788FB18E03D488442ED
:100F300004D100210420FFF780FB10E03A488442EE
:100F400005D100214FF48000FFF777FB07E0374819
:100F5000844204D100214FF48000FFF76EFB10BDE6
:100F600070B504460D46B4F1402F08D02D48844298
:100F700005D02D48844202D02C48844200D104E0A0
:100F80004FF4CD712AA0FFF75BF9012D04D1606801
:100F900040F00100606003E0606820F001006060E4
:100FA00070BD10B50446B4F1402F08D01D488442EE
:100FB00005D01D48844202D01C48844200D104E080
:100FC0004FF4D9711AA0FFF73BF9606840F00200B6
:100FD0006060606820F00200606010BD70B504467B
:100FE0000D46B4F1402F08D00E48844205D00E487B
:100FF000844202D00D48844200D104E040F2D11175
:101000000BA0FFF71DF9287940B12879012805D0F8
:101010002879022802D02879032829D12EE000005F
:1010200040420F000080004000000940004009409D
:101030002E2E5C4C69627261726965735C4C435020
:10104000313736385F5374645065726970685F4435
:1010500072697665725C736F757263655C6C7063E0
:10106000313778785F74696D65722E630000000017
:101070004FF4E971AFF24800FFF7E2F8287830B199
:10108000012807D0022808D003280CD108E0A8685E
:10109000A0610AE0A868E06107E0A868206204E0B7
:1010A000A868606201E000BFFEE700BF60692978C0
:1010B00001EB41020721914088436061687838B1B3
:1010C0006069297801EB4102012191400843606188
:1010D000E87840B16069297801EB4101491C01229F
:1010E0008A4010436061A87840B16069297801EBBB
:1010F0004101891C01228A4010436061E06B29781C
:10110000042202EB4102032191408843E0632879E5
:1011100000F003002978042202EB41018840E16BD2
:101120000843E06370BD70B504460E461546B4F141
:10113000402F08D04348844205D04348844202D01F
:101140004248844200D105E040F20721AFF220106E
:10115000FFF776F836B1012E06D0022E06D0032E08
:1011600008D105E0A56107E0E56105E0256203E03F
:10117000656201E000BFFEE700BF70BD70B50446C8
:101180000D46B4F1402F08D02E48844205D02E4899
:10119000844202D02D48844200D105E040F22D2146
:1011A000AFF27410FFF74CF8A06A297801EB410206
:1011B000072191408843A062687838B1A06A2978F5
:1011C00001EB4102012191400843A062A87840B19F
:1011D000A06A297801EB4101491C01228A40104391
:1011E000A062E87840B1A06A297801EB4101891C2E
:1011F00001228A401043A06270BD70B504460D46BE
:10120000B4F1402F08D00F48844205D00E488442E4
:1012100002D00E48844200D105E04FF41271AFF2C3
:10122000F010FFF70DF80DB1012D00D105E040F2EF
:101230004921AFF20420FFF703F80DB9E06A70BD51
:10124000206BFCE70080004000000940004009409E
:101250002DE9F04F8BB00446894600200990F748ED
:10126000844204D10620FFF7CBF9074616E0F44884
:10127000844204D10820FFF7C3F907460EE0F14885
:10128000844204D13020FFF7BBF9074606E0EE4860
:10129000844203D13220FFF7B3F907464FF0FF3BFA
:1012A00000200790069000252E464FF001084DE0E3
:1012B0000020089040E00898404400FB09FC002012
:1012C000010741EA171138070022A0FB083E01FB85
:1012D00008E100FB02106246CDE900300023DDE9A1
:1012E000000102F093FBCDE9040104980390DDF8BE
:1012F00014A00398B0F1004F04D903984042039022
:101300000AF1010ABAF1000F02D0BAF5803F00D904
:101310000FE0039858450BD2DDF80CB00026554677
:1013200008980790CDF81880BBF1000F00D106E0B7
:1013300000BF0898401C089008984045BBD300BFE8
:10134000BBF1000F00D104E008F10108B8F10F0F64
:10135000AED900BF002185EA01007140084302D1E7
:101360000BB0BDE8F08F3809069900FB01FC084678
:10137000079908440021A0FB052301FB053100FB70
:1013800006100346CDE900206046002102F03EFB36
:1013900002900298814503D90298A9EB000B02E064
:1013A0000298A0EB090B64200BFB00F0B0FBF9FBEB
:1013B000BBF1030F32D2A248844216D1207B40F009
:1013C00080002073280A40EA066020712570207B87
:1013D00000F07F002073F021069801EA00100799C1
:1013E00001F00F010843A06216E0207B40F080006E
:1013F0002073280A40EA066020712570207B00F0E7
:101400007F002073F021069801EA0010079901F08F
:101410000F01084384F828000120099009989FE7EC
:1014200070B504460D468548844208D084488442FD
:1014300005D08448844202D08348844200D103E02E
:10144000C92182A0FEF7FCFEA86840B1A868012867
:1014500005D0A868022802D0A868032800D103E0BC
:10146000CA217AA0FEF7ECFEE86810B1E86801280E
:1014700000D103E0CB2175A0FEF7E2FE686858B109
:101480006868012808D06868022805D068680328C1
:1014900002D06868042800D103E0CC216BA0FEF7DD
:1014A000CFFE6648844203D101210820FFF7C5F82A
:1014B0006348844203D101211020FFF7BEF8614840
:1014C000844203D101210806FFF7B7F85E48844241
:1014D00003D101214806FFF7B0F85948844223D1CF
:1014E000072020720020207200E02678207D00F086
:1014F00001000028F9D1802084F8300000BF207D51
:1015000000F020000028FAD0002084F8300060604D
:1015100020732062207484F84C0084F8540084F80E
:101520005000267E267D1AE00720207200202072BF
:1015300000E02678207D00F001000028F9D180200D
:1015400084F8300000BF207D00F020000028FAD091
:10155000002084F83000606020732062267D3A48C5
:10156000844202D1002084F8240020462968FFF735
:101570006FFE3348844203D1207B00F0C00602E0B6
:10158000207B00F0C006A86830B1012806D00228F0
:1015900007D0032808D108E000BF09E046F00106A3
:1015A00006E046F0020603E000BF46F0030600BF77
:1015B00000BF6868C0B146F008066868012806D018
:1015C000022806D0032807D004280BD107E000BF6B
:1015D00009E046F0100606E046F0200603E046F07B
:1015E000300600E000BF00BFE86828B1012802D142
:1015F00046F0040601E000BF00BF00BF104884426F
:1016000001D1267300E0267370BD70B504460D4607
:101610000A48844208D00A48844205D009488442D6
:1016200002D00948844200D104E040F2EA3107A028
:10163000FEF706FE0DB1012D26D12BE000C00040C3
:10164000000001400080094000C009402E2E5C4C83
:1016500069627261726965735C4C43503137363828
:101660005F5374645065726970685F44726976652F
:10167000725C736F757263655C6C70633137787818
:101680005F756172742E630040F2EB31AFF244007B
:10169000FEF7D6FD012D10D1F948844206D194F809
:1016A000300040F0800084F8300014E094F83000FE
:1016B00040F0800084F830000DE0F148844205D10C
:1016C00094F83000002084F8300004E094F83000F2
:1016D000002084F8300070BD10B50446E94884420B
:1016E00008D0E748844205D0E748844202D0E74862
:1016F000844200D105E040F29511AFF2B000FEF750
:101700009FFD00212046FFF780FFDE48844203D181
:1017100000210820FEF791FFD948844203D100211F
:101720001020FEF78AFFD848844204D100214FF0F0
:101730008070FEF782FFD548844204D100214FF02B
:101740000070FEF77AFF10BD4FF4165101600321BF
:10175000816000214160C160704770B504460D464C
:10176000C848844208D0C648844205D0C64884424E
:1017700002D0C648844200D105E040F2D911AFF250
:101780003410FEF75DFDBE48844201D1257000E0B3
:10179000257070BD10B50446BA48844208D0B848D8
:1017A000844205D0B848844202D0B848844200D16F
:1017B00005E04FF4F971AFF26C10FEF741FDB0484F
:1017C000844201D1207810BD2078FCE72DE9FF5F2D
:1017D00080468A46934657465C460398012825D1A1
:1017E000002520E04FF0FF3905E0B9F1000F00D1EE
:1017F00007E0A9F1010998F8140000F02000002882
:10180000F3D000BFB9F1000F00D10EE0102607E0C1
:1018100017F8011B4046FFF7A0FF761E641E6D1CE3
:101820000EB1002CF4D1002CDCD117E0002512E021
:1018300098F8140000F0200000B90EE0102607E030
:1018400017F8011B4046FFF788FF641E761E6D1CCB
:101850000EB1002CF4D1002CEAD100BF284604B010
:10186000BDE8F09F2DE9F05F0746894692469B460A
:101870004E465546BBF1010F1ED1002419E04FF032
:10188000FF3805E0B8F1000F00D106E0A8F101082B
:10189000387D00F001000028F4D000BFB8F1000F3F
:1018A00000D108E03846FFF775FF06F8010B6D1E02
:1018B000641C002DE3D110E000240BE0387D00F023
:1018C000010000B908E03846FFF764FF06F8010B95
:1018D000641C6D1E002DF1D100BF2046BDE8F09FB5
:1018E00010B504466748844208D06548844205D054
:1018F0006548844202D06548844200D105E04FF437
:101900002171AFF2B820FEF79BFC5D48844204D100
:10191000207B40F04000207303E0207B40F040003B
:10192000207310BD2DE9F04104460D461746554879
:10193000844208D05248844205D05348844202D0A1
:101940005248844200D105E040F2AB21AFF20430AE
:10195000FEF776FC0FB1012F00D105E04FF42B719B
:10196000AFF21830FEF76CFC072D15D2DFE805F05A
:101970000406080A0C0E110001260DE002260BE0F9
:10198000042609E0082607E0802605E04FF480766B
:1019900002E04FF4007600BF00BF3948844214D102
:1019A0005DB1012D09D0022D07D0052D05D0062DE2
:1019B00003D0032D01D0042D00D116E04FF4327175
:1019C000AFF27830FEF73CFC0FE03DB1012D05D0C1
:1019D000022D03D0052D01D0062D00D105E04FF4D6
:1019E0003371AFF29830FEF72BFC012F0AD1244857
:1019F000844203D160683043606013E06068304324
:101A000060600FE01E48844206D1606840F28F316A
:101A1000B1430840606005E0606840F20731B143BF
:101A200008406060BDE8F08110B504461548844266
:101A300008D01348844205D01348844202D013488A
:101A4000844200D105E040F2FA21AFF20040FEF7F7
:101A5000F7FB0B48844201D1007D10BD207DFCE7DF
:101A600010B504460748844208D00548844205D092
:101A70000548844202D00548844209D10EE00000A6
:101A80000000014000C000400080094000C0094043
:101A900040F21131AFF24C40FEF7D2FBA06840F2A9
:101AA000CF31084010BD0146087D00F0400008B16C
:101AB000002070470120FCE770B506460C46002563
:101AC000F748864208D0F748864205D0F648864255
:101AD00002D0F648864200D105E040F23731AFF23D
:101AE0009440FEF7ADFBE06840B1E068012805D006
:101AF000E068022802D0E068032800D105E04FF436
:101B00004E71AFF2B840FEF79BFBA06810B1A06821
:101B1000012800D105E040F23931AFF2D040FEF7A4
:101B20008FFB206810B12068012800D105E040F249
:101B30003A31AFF2E840FEF783FB606810B16068AD
:101B4000012800D105E040F23B31AFF20050FEF732
:101B500077FB45F00105E06830B1012806D0022886
:101B600007D0032808D108E000BF09E045F0400590
:101B700006E045F0800503E000BF45F0C00500BF6A
:101B800000BF6068012801D145F0040520680128E4
:101B900001D145F00205A068012801D145F00805F2
:101BA000C048864203D105F0CF00307202E005F054
:101BB000CF00307270BD00218160C16001210160E1
:101BC000416070472DE9F04104460F461546B44880
:101BD000844208D0B348844205D0B348844202D03E
:101BE000B248844200D105E040F29231AFF2A450F5
:101BF000FEF726FB0DB1012D00D105E040F2933137
:101C0000AFF2B850FEF71CFB0026012D09D1386851
:101C1000012801D146F002067868012801D146F07A
:101C20000406A048844215D1012D10D1207B40F03C
:101C300080002073002020702071207B20F0800025
:101C400020731020A06246F00100206218E00020FE
:101C5000206215E0012D11D1207B40F0800020731F
:101C6000002020702071207B20F080002073102045
:101C700084F8280046F00100206201E00020206284
:101C8000BDE8F08170B504460D468548844208D011
:101C90008448844205D08448844202D083488442E8
:101CA00000D105E040F2D331AFF26060FEF7C8FA30
:101CB0007C48844203D1206A2843206202E0206AE3
:101CC0002843206270BD70B504460D4677488442B3
:101CD00000D105E040F21441AFF29060FEF7B0FA97
:101CE0000DB1012D00D105E040F21541AFF2A46025
:101CF000FEF7A6FA012D06D194F8240040F0020068
:101D000084F8240006E02DB994F8240000F03D008A
:101D100084F8240070BD70B504460D4663488442C3
:101D200000D105E040F22C41AFF2E060FEF788FA06
:101D30000DB1012D00D105E040F22D41AFF2F4606C
:101D4000FEF77EFA012D06D194F8240040F0010040
:101D500084F8240005E094F8240000F03E0084F8A4
:101D6000240070BD2DE9F04105460C464F488542E0
:101D700000D105E040F24D41AFF23070FEF760FA5D
:101D80006CB1012C0BD0022C09D0032C07D0042CF1
:101D900005D0052C03D0062C01D0072C00D105E07E
:101DA00040F24E41AFF25C70FEF74AFA6007870ED0
:101DB00095F8240020F0380647F00400064306F0AA
:101DC0003F0085F82400BDE8F0812DE9F04104468C
:101DD0000D46164600273348844200D105E040F204
:101DE0006D41AFF29870FEF72BFA0DB1012D00D1C5
:101DF00005E040F26E41AFF2AC70FEF721FA0EB191
:101E0000012E00D105E040F26F41AFF2C070FEF745
:101E100017FA15B1012D04D101E0012702E00227D4
:101E200000E000BF00BF012E03D1207C38432074A6
:101E300004E0207CF321B94308402074BDE8F08120
:101E40002DE9F04104460D4617461648844200D15C
:101E500005E040F29541AFF60C00FEF7F1F91DB137
:101E6000012D01D0022D00D105E040F29641AFF6E0
:101E70002400FEF7E5F90FB1012F00D105E040F293
:101E80009741AFF63800FEF7DBF925B1012D04D0FC
:101E9000022D0FD10CE010260DE040260BE00000D3
:101EA00000C00040000001400080094000C009401F
:101EB000802600E000BF00BF012F03D1207C30430B
:101EC000207404E0207CF321B14308402074BDE875
:101ED000F08110B504467948844200D105E04FF402
:101EE0009861AFF69800FEF7ABF9207E10BD70B593
:101EF00006460C467148864200D105E040F2D441C6
:101F0000AFF6B800FEF79CF9A06810B1A0680128F0
:101F100000D105E040F2D541AFF6D000FEF790F9D0
:101F2000E06810B1E068012800D105E040F2D64138
:101F3000AFF6E800FEF784F9607EFF2800DA05E0DE
:101F400040F2D741AFF6FC00FEF77AF9606910B1B4
:101F50006069012800D105E04FF49B61AFF61410D1
:101F6000FEF76EF9206910B12069012800D105E063
:101F700040F2D941AFF62C10FEF762F9207EFF281F
:101F800000DA05E040F2DA41AFF64010FEF758F90A
:101F9000206810B12068012800D105E040F2DB4143
:101FA000AFF65810FEF74CF9606810B16068012870
:101FB00000D105E040F2DC41AFF67010FEF740F9C9
:101FC0000025E06801280ED145F010056069012860
:101FD00001D145F020052069012801D145F008050F
:101FE000607E86F854002068012801D145F0010583
:101FF000A068012804D145F00405207E86F8500031
:10200000606808B945F0020505F03F0086F84C000D
:10201000307B40F03800307370BD012906D190F854
:102020004C2022F0020280F84C2005E090F84C2071
:1020300042F0020280F84C2070472DE9F047044638
:10204000894692461F46A7B1257BA84628F010086E
:1020500084F80C800123524649462046FFF7B6FB20
:10206000064600BF207D00F040000028FAD025730E
:102070000CE00123524649462046FFF7A7FB0646DF
:1020800000BF207D00F040000028FAD03046BDE8B7
:10209000F08713B5044601231A4601A92046FFF72D
:1020A000CCFF1CBD70B504460D46164600233246D3
:1020B00029462046FFF7C1FF70BD00000000014027
:1020C0002DE9F04104460D46B848844200D103E0B2
:1020D0004221B7A0FEF7B4F81DB1C448854200D82C
:1020E00003E04321B2A0FEF7ABF801210803FEF79D
:1020F000A4FA002020604FF400181820FEF780FAA0
:10210000064605EB851707EB46007900B0FBF1F0BA
:10211000471E48EA0728C4F80080BDE8F08110B5E2
:102120000446A248844200D103E06321A0A0FEF748
:1021300087F8206820F40010206000214FF48050C0
:10214000FEF77BFA10BD014601B100BF00BF974802
:10215000103050F82120C2F30B10704770B50546BF
:102160000C469248854200D103E08C2190A0FEF7F6
:1021700067F86CB1012C0BD0022C09D0032C07D0CE
:10218000042C05D0052C03D0062C01D0072C00D13F
:1021900003E08D2186A0FEF753F8286820F0E06068
:1021A0002860286840EA0460286070BD70B5044665
:1021B0000D467E48844200D103E09E217CA0FEF7BC
:1021C0003FF8206820F4803020601DB1206840F482
:1021D0008030206070BD70B504460D46734884425F
:1021E00000D103E0B02172A0FEF72AF8206820F4A5
:1021F000001020601DB1206840F40010206070BD08
:1022000070B504460D466948844200D103E0C221FE
:1022100067A0FEF715F80DB1012D00D103E0C32131
:1022200063A0FEF70DF8206820F0006020601DB16B
:10223000206840F00060206070BD70B505460C4617
:1022400016465A48854200D103E0DB2158A0FDF72D
:10225000F7FF7CB1012C0DD0022C0BD0032C09D040
:10226000042C07D0052C05D0062C03D0072C01D058
:10227000082C00D103E0DC214DA0FDF7E1FFE86868
:102280000121A1408843E86026B1E9680120A0400F
:102290000143E96070BD70B504460D4616464348DB
:1022A000844200D103E0EE2141A0FDF7C9FF05B152
:1022B00000BF00BF012E05D120680121A9400843BD
:1022C000206004E020680121A9408843206070BD9F
:1022D00070B504460D463548844200D104E04FF401
:1022E000817133A0FDF7ACFF05B100BF00BF04F161
:1022F000100050F82560C6F30B1070BD2DE9F041B9
:1023000007460E4614462948874200D104E04FF4A0
:102310008B7127A0FDF794FF06B100BF00BF0CB181
:10232000012C00D104E04FF48C7121A0FDF788FF4F
:1023300007F1100050F8265014B105F0004501E0F7
:1023400005F0804515B10120BDE8F0810020FBE7D4
:1023500010B504461548844200D104E040F22F1124
:1023600013A0FDF76DFF606810BD70B506460C4602
:102370000E48864200D104E04FF4A0710CA0FDF796
:102380005FFF0CB1012C00D104E040F2411108A024
:10239000FDF756FF756814B105F0004501E005F042
:1023A00080450DB1012070BD0020FCE700400340D6
:1023B0002E2E5C4C69627261726965735C4C43508D
:1023C000313736385F5374645065726970685F44A2
:1023D00072697665725C736F757263655C6C70634D
:1023E000313778785F6164632E630000400D03002D
:1023F000000200BF011EA0F10100FBD1704710B523
:1024000001224FF470010020FEF732FA01224FF052
:1024100060711046FEF72CFA4FF470010020FEF7B1
:1024200031FA4FF060710120FEF72CFA10BD10B5A3
:10243000222002F00BFF10BD10B504464FF48000BF
:10244000FE49C86180108861204602F0F5FC4FF417
:102450000000FA49C861012002F0EEFE4FF40000CE
:10246000F64988614010886110BDF54800887047C2
:1024700030B5014601F01F04C1F34513CA0AE50255
:1024800005EB43151544A8B230BD70B504460D46A2
:10249000EB48008848F68911884207D1A1B24E2046
:1024A00002F0F4FEA9B24F2002F0F0FEA1B220200B
:1024B00002F0ECFEA9B2212002F0E8FE70BD70B57A
:1024C00004460D4629462046FFF7DFFFFFF7AFFF22
:1024D00002F076FE064602F073FE0646304670BDF8
:1024E00070B50546002400210846FFF7CEFFFFF730
:1024F0009EFF00BF03E02846FFF79EFF641CB4F573
:10250000963FF8D370BD10B5CD48008848F68911C4
:10251000884205D146F23001112002F0B7FE04E0F6
:1025200041F23001032002F0B1FE00210846FFF71E
:10253000ACFFFFF77CFF45F25550FFF77DFF4AF6F1
:10254000AA20FFF779FF00210846FFF79EFF10BD84
:102550002DE9F041BA48008848F68911884204D034
:1025600041F23001032002F091FE002500210846CF
:10257000FFF78BFFFFF75BFF002405E02846FFF71E
:102580005BFF681C85B2641CB4F5963FF6D300254A
:10259000AB48008849F22031884209D0A848008819
:1025A000491D884204D0A6480088C91C884219D118
:1025B000002413E000260EE021463046FFF77FFF9F
:1025C0000746FFF755FF29466A1C95B2884201D09D
:1025D000BDE8F081761CF02EEED3641CB4F5A07F2C
:1025E000E8D320E09648008844F23151884205D073
:1025F0009348008848F68911884214D100240FE0DE
:1026000000260AE021463046FFF759FF29466A1C9A
:1026100095B2884200D0DBE7761CF02EF2D3641C22
:10262000B4F5A07FECD300BFD2E770B5FFF7E7FEAB
:1026300040F2DC50FFF7DCFE0024204602F006FEEC
:1026400002F0BEFD054600BF7D480580008844F2CB
:102650003151884221D07A48008847F283718842FC
:102660001BD07748008849F22031884215D0744841
:102670000088491D884210D071480088C91C8842D2
:102680000BD06F480088B0F5134F06D06C48008817
:1026900048F68911884200D070BD6948008849F227
:1026A0002531884204D066480088C91C88427DD103
:1026B0001021E72002F0EAFD0121002002F0E6FDF2
:1026C0004FF48071012002F0E1FD4FF4E06102203F
:1026D00002F0DCFD41F22801032002F0D7FD0021C9
:1026E000042002F0D3FD40F20721082002F0CEFDC5
:1026F0000021092002F0CAFD00210A2002F0C6FDD7
:1027000001210C2002F0C2FD00210D2002F0BEFDCF
:1027100000210F2002F0BAFD0021102002F0B6FDCA
:102720000721112002F0B2FD0021122002F0AEFDBF
:102730000021132002F0AAFD0F20FFF759FE41F2FD
:102740009051102002F0A2FD40F22721112002F04A
:102750009DFD0F20FFF74CFE9C21122002F096FDFC
:102760000F20FFF745FE4FF4C851132002F08EFDF5
:102770002321292002F08AFD0E212B2002F086FD64
:102780000F20FFF735FE0021202002F07FFD002101
:10279000212002F07BFD0F20FFF72AFE07213020C9
:1027A00002F074FD40F20771312000E08BE002F08E
:1027B0006DFD0621322002F069FD40F204713520E2
:1027C00002F064FD41F60471362002F05FFD042141
:1027D000372002F05BFD0021382002F057FD40F267
:1027E0000671392002F052FD40F201713C2002F0E6
:1027F0004DFD0F213D2002F049FD0F20FFF7F8FDB0
:102800000021502002F042FDEF21512002F03EFD58
:102810000021522002F03AFD40F23F11532002F015
:1028200035FD4FF42741602002F030FD0121612089
:1028300002F02CFD00216A2004E0000000C0092005
:1028400004C0072002F022FD0021802002F01EFDBE
:102850000021812002F01AFD0021822002F016FDE5
:102860000021832002F012FD0021842002F00EFDE1
:102870000021852002F00AFD1021902002F006FDC3
:102880000021922002F002FD0321932002F0FEFCC1
:102890004FF48871952002F0F9FC0021972002F096
:1028A000F5FC0021982002F0F1FC40F233110720E2
:1028B00002F0ECFC0021202002F0E8FC00212120A5
:1028C00002F0E4FC12E3FC48008849F2203188421F
:1028D00004D0F9480088B0F5134F7DD10021084697
:1028E00002F0D4FC0021012002F0D0FC4FF4E061A2
:1028F000022002F0CBFC41F21801032002F0C6FCDA
:102900000021042002F0C2FC40F20221082002F063
:10291000BDFC0021092002F0B9FC00210A2002F0D0
:10292000B5FC01210C2002F0B1FC00210D2002F0C9
:10293000ADFC00210F2002F0A9FC0F20FFF758FD8D
:1029400040F20111072002F0A1FC0F20FFF750FD1B
:102950004FF48651102002F099FC0721112002F05B
:1029600095FC4FF48871122002F090FC4FF4306116
:10297000132002F08BFC0021292002F087FC44F296
:1029800010012B2002F082FC0021502002F07EFC7E
:10299000EF21512002F07AFC0021522002F076FC57
:1029A00040F23F11532002F071FC4FF427416020A8
:1029B00002F06CFC0121612002F068FC00216A2019
:1029C00002F064FC0021802002F060FC00218120E4
:1029D00002F05CFC002100E02DE0822002F056FCB9
:1029E0000021832002F052FC0021842002F04EFCE2
:1029F0000021852002F04AFC1021902002F046FCC4
:102A00000021922002F042FC0121932002F03EFCC2
:102A10004FF48871952002F039FC0021972002F0D4
:102A200035FC0021982002F031FC40F273110720A0
:102A300002F02CFC5AE2A048008844F2315188424E
:102A40007DD10121002002F021FC4FF4C56110204E
:102A500002F01CFC0621122002F018FC40F6322184
:102A6000132002F013FC4021112002F00FFC502132
:102A7000152002F00BFC1621122002F007FC0F209B
:102A8000FFF7B6FC45F26061102002F0FFFB0F205B
:102A9000FFF7AEFC42F64E21132002F0F7FB0021B7
:102AA000012002F0F3FB4FF44071022002F0EEFB34
:102AB00041F23001032002F0E9FB40F2022108203C
:102AC00002F0E4FB00210A2002F0E0FB00213020AC
:102AD00002F0DCFB40F20241312002F0D7FB4FF460
:102AE0008371322002F0D2FB4FF4E061332002F018
:102AF000CDFB4FF48271342002F0C8FB40F201316B
:102B0000352002F0C3FB40F20771362002F0BEFB15
:102B100040F20531372002F0B9FB4FF40271382042
:102B200002F0B4FB40F60B71392002F0AFFB0F202E
:102B3000FFF75EFC0221412002F0A8FB00E037E035
:102B40004FF42741602002F0A1FB0121612002F037
:102B50009DFB40F21911902002F098FB4FF4857113
:102B6000922002F093FB0421932002F08FFB4FF49C
:102B70008071A02002F08AFB0F20FFF739FC0F20A4
:102B8000FFF736FC0F20FFF733FC0F20FFF730FC78
:102B900040F23311072002F079FB0F20FFF728FCE9
:102BA0000021A02002F072FB1420FFF721FC9DE120
:102BB0004148008847F2837188427CD10121FF207F
:102BC00002F064FB0821F32002F060FB4FF48071F7
:102BD000012002F05BFB4FF4E061022002F056FBA3
:102BE00041F23001032002F051FB40F20231082093
:102BF00002F04CFB40F20721082002F047FB0021C5
:102C0000092002F043FB00210A2002F03FFB0021D3
:102C1000102002F03BFB0521112002F037FB0021C0
:102C2000122002F033FB0021132002F02FFB1420AE
:102C3000FFF7DEFB41F2B021102002F027FB142049
:102C4000FFF7D6FB0721112002F020FB1420FFF72D
:102C5000CFFB8B21122002F019FB1420FFF7C8FBD9
:102C60004FF4B851132002F011FB1420FFF7C0FB02
:102C70002221292002F00AFB0021302002F006FB6D
:102C800040F20771312002F001FB40F20551322081
:102C900002F0FCFA40F20711352002F0F7FA0821A1
:102CA000362002F0F3FA0021372002F0EFFA40F26A
:102CB0000221382002E040E004C0072002F0E6FADA
:102CC0004FF48371392002F0E1FA40F202213C20F6
:102CD00002F0DCFA4FF481613D2002F0D7FA1420B3
:102CE000FFF786FB0021502002F0D0FAEF2151209F
:102CF00002F0CCFA0021522002F0C8FA40F23F1153
:102D0000532002F0C3FA4FF42741602002F0BEFACC
:102D10000121612002F0BAFA3321902002F0B6FAC4
:102D20000B212B2002F0B2FA40F23311072002F0FF
:102D3000ADFA1420FFF75CFBD8E07148008848F634
:102D400089118842F8D12121072002F09FFA012140
:102D5000002002F09BFA2321072002F097FA0021BD
:102D6000102002F093FA40F6B830FFF741FB332110
:102D7000072002F08BFA46F27001112002F086FA69
:102D80004FF4C061022002F081FA40F604010320F2
:102D900002F07CFA00210C2002F078FA40F60C01D7
:102DA0000D2002F073FA4FF424510E2002F06EFA57
:102DB000B8211E2002F06AFA42F63F31012002F0EB
:102DC00065FA0021102002F061FA0021052002F0CE
:102DD0005DFA0021062002F059FA4EF61C71162009
:102DE00002F054FA0321172002F050FA40F2332186
:102DF000072002F04BFAC0210B2002F047FA002115
:102E00000F2002F043FA0021412002F03FFA002196
:102E1000422002F03BFA0021482002F037FA40F24B
:102E20003F11492002F032FA00214A2002F02EFA26
:102E300000214B2002F02AFA4FF46F41442002F0A7
:102E400025FA0021452002F021FA40F23F114620E8
:102E500002F01CFA40F20771302002F017FA4FF42A
:102E60000171312002F012FA4FF40171322002F0A8
:102E70000DFA40F20251332002F008FA40F20751F5
:102E8000342002F003FA4FF40171352002F0FEF90C
:102E90004FF40171362002F0F9F940F20251372067
:102EA00002F0F4F940F202313A2002F0EFF940F278
:102EB00002313B2002F0EAF90021232002F0E6F97A
:102EC0000021242002F0E2F94FF40041252002F015
:102ED000DDF900214F2002F0D9F900214E2002F047
:102EE000D5F9FFF710FB1F20FFF7FAFAFFF70BFBEE
:102EF000FFF72EFB1F20FFF7F3FA00BFFFF7CCBB55
:102F000004C007202DE9F05F81460D46174698461C
:102F1000DDE90AABBAF1760F14D12C460EE021465A
:102F20004846FFF7B2FAFFF782FA002603E0584658
:102F3000FFF782FA761C4645F9D9641CE819A042CD
:102F4000EDD214E02C460EE021464846FFF79DFAEC
:102F5000FFF76DFA002603E05846FFF76DFA761C7E
:102F6000BE42F9D9641C05EB0800A042ECD2BDE8D2
:102F7000F09F2DE9FC5F0746884691461D46DDE936
:102F80000E4BDDE90C6ABAF1010F08D168202B461F
:102F90004A464146CDE9000B3846FFF7B3FF6820AB
:102FA00033464A464146CDE900043846FFF7AAFFBA
:102FB000762007EB0901CDE90004881B33462A4639
:102FC0004146FFF79FFF6820CDE9000408EB0500AC
:102FD000811B33464A463846FFF794FF7620334636
:102FE0002A464146CDE900043846FFF78BFFBDE88D
:102FF000FC9F000010B5FFF718FB0020C7490870C0
:10300000C74908700120C749087010BD2DE9F05F5D
:1030100081468A4693461C46002626E0002521E08C
:103020004FF001081BE0012715E006FB04B202EB9C
:10303000080105FB04A2D019FFF727FAFFF7F7F9FB
:1030400006EB460101EBC60109EB410131F8150021
:10305000FFF7F2F97F1CA742E7D908F10108A04564
:10306000E1D96D1C0B2DDBDB761C0B2ED6DBBDE80E
:10307000F09F70B504460D46164634B90423324617
:103080002946A948FFF7C2FF22E0012C06D10423FC
:1030900032462946A548FFF7B9FF19E0022C06D1B0
:1030A000042332462946A248FFF7B0FF10E0032C64
:1030B00006D10423324629469E48FFF7A7FF07E0C2
:1030C000042C05D10423324629469B48FFF79EFF76
:1030D00070BD7FB59148007820B1012867D00228E3
:1030E0007ED1BFE04FF6E07000210223CDE9003130
:1030F00031231A46CDE902101B210846FFF739FF9C
:103100001D22114686480078FFF7B3FF4FF6E070A6
:1031100000210223CDE9003131231A46CDE9021006
:103120001B215F20FFF725FF1D2261217D480078CC
:10313000FFF79FFF4FF6E07000210223CDE9003139
:1031400031231A46CDE902101B21A420FFF711FFFD
:103150007A48006802F0A4FE0446224678A17A4824
:1031600000F0CCFC1F204FF6FF73774A2D21009012
:10317000A820FDF7A2F84FF6E07000210223CDE968
:1031800000312F236422CDE902108A214520FFF768
:10319000F0FE6EA16C4800F0B1FC1F204FF6FF73EB
:1031A000694A9B2100905820FDF787F8B4E04FF65C
:1031B000E07000210223CDE9003131231A46CDE928
:1031C00002101B215F20FFF7D4FE1D22612155480C
:1031D0000078FFF74EFF4FF6E0700021022300E079
:1031E00099E0CDE900312F23BA22CDE902106E21FA
:1031F0002020FFF7BEFE5148006802F0F5FC0446AF
:1032000022460B4654A1504800F078FC1F204FF690
:10321000FF734D4A7D2100903220FDF74EF84FF6A6
:10322000E07000210223CDE900312F23BA22CDE93D
:103230000210B1212020FFF79CFE4D48006802F0EB
:10324000D3FC044622460B464AA13F4800F056FCF8
:103250001F204FF6FF733C4AC02100903220FDF73B
:103260002CF859E04FF6E07000210223CDE900313F
:1032700031231A46CDE902101B215F20FFF779FEAA
:103280001D22612127480078FFF7F3FE4FF6E0701A
:1032900000210223CDE900312F23BA22CDE902100B
:1032A0006E212020FFF765FE3748006802F09CFC85
:1032B000044622460B4635A1234800F01FFC1F2080
:1032C0004FF6FF73204A802100903220FCF7F5FF73
:1032D0004FF6E07000210223CDE900312F23BA22FE
:1032E000CDE90210B1212020FFF743FE2C480068F1
:1032F00002F07AFC044622460B462AA1124800F04E
:10330000FDFB1F204FF6FF730F4AC32100903220B0
:10331000FCF7D3FF00E000BF00BF7FBD040000103A
:103320000500001006000010260000101801001013
:103330000A020010FC020010EE0300100C00001046
:103340002564202A6300000008C0072048483A4D41
:103350004D3A53530000000054656D7065726174FE
:103360007572653A20252E3166202A630000000020
:103370001800001048756D69646974653A20252E3F
:103380003166202525000000100000104C756D6985
:103390006E6F736974653A20252E316620252500ED
:1033A00014000010434F323A20252E316620252587
:1033B0000000000010B5FFF71DFE00F0E9F800F076
:1033C0006AF900F040FA10BD10B500F0C7F900F03E
:1033D000E5FA10BD2DE9FC4104460D46284602F0F1
:1033E000B3FD804602F000FC2246CDE9000156A163
:1033F000584800F083FB5748BDE8FC8110B556489B
:10340000007868B100215548006802F0B1FE03D28F
:103410000320534908701CE004205149087018E04B
:1034200050495148006802F0A3FE06D24A4800788D
:1034300018B901204A4908700BE04C494A48006815
:1034400002F096FD05D24448007810B902204449A4
:10345000087010BD10B546494348006802F088FD69
:1034600003D200204349087002E00120414908705E
:1034700010BD70B540480078002850D1322000F0CF
:1034800033F93E48007870B900F0E9F93348006834
:1034900002F022FD054629465420FFF79BFF044613
:1034A00000F0B2F83BE035480078012810D100F078
:1034B0004BFAFFF7CFFF2C48006802F00DFD0546E0
:1034C00029464C20FFF786FF044600F09DF826E0D1
:1034D0002A48007802280FD129482A49086008465E
:1034E000006802F0F9FC054629464320FFF772FF09
:1034F000044600F089F812E02048007803280ED135
:103500001A48214908600846006802F0E5FC0546B3
:1035100029464820FFF75EFF044600F075F8FFF7E4
:103520006DFF1A48007830B100BF184800780028B5
:10353000FBD11649087070BD10B5FFF745FFFFF7C6
:1035400098FFFFF7C6FD10BD2A2563252E31662A98
:10355000000000001F0000101C0000100C000010F4
:10356000050000100000C642100000100000484294
:1035700000002041060000101E000010070000108F
:103580000000F04114000010180000101D00001091
:1035900000B58BB002208DF8250000208DF82400A6
:1035A00001208DF8260002208DF8270001208DF8DB
:1035B000280009A8FDF7F6FA03208DF8250009A8D0
:1035C000FDF7F0FA4FF41640059000200690032016
:1035D00007900020089005A95A48FDF721FF012116
:1035E0005848FEF712F8012200215648FEF79AF9D2
:1035F000052000F09CF801A8FEF7DDFA01A951486A
:10360000FEF75AFA0BB000BD30B58BB00446224627
:103610004DA101A800F072FA01A800F085FB054653
:1036200001232A4601A94748FEF7D0F80BB030BD68
:1036300001B501231A4669464248FEF7C7F808BD9E
:1036400008B501231A4669463E48FEF70BF99DF876
:103650000000412804D0422809D0442815D10DE0AB
:103660001F20FEF73DFF00203849087011E01F20A1
:10367000FEF736FF0120354908700AE01F20FEF7EB
:103680002FFF02203149087003E01F20FEF728FFBA
:1036900000BF00BF08BD10B586B0002401208DF822
:1036A000040046F2A810029002208DF80C000120C0
:1036B0008DF80D008DF80F0000208DF80E008DF8AC
:1036C00010006420059001AA21462148FDF788FBDF
:1036D00003A91F48FDF782FC022000F028F8002013
:1036E0001C49087006B010BD10B5044622460221E0
:1036F0001748FDF718FD01211548FDF731FC0120A1
:103700001549087010BD10B512490978481CC11739
:1037100000EB91718910A0EB81010E4A117000201D
:103720000D49087002210A48FDF7FEFA10BD00F0AD
:103730001F02012191404209920002F1E022C2F8E9
:103740000011704700C00040257300000400001005
:1037500000800040070000101E00001070B502201D
:10376000FDF724F8C0F3802417480078844213D072
:10377000002500E06D1CB5F57A7FFBD364B11F20F6
:10378000FEF7AEFE11480078401C032190FBF1F2D9
:1037900001FB12000D4908700B48047070BD70B534
:1037A0000220FDF703F8C0F3C025094800788542E0
:1037B00006D0002400E0641CB4F57A7FFBD300BF80
:1037C0000348057070BD00000800001004000010E0
:1037D0000900001000207E49087070471CB57D4824
:1037E000006840F480507B49C439C1F8C40003200C
:1037F0008DF8020000208DF804008DF803000120F0
:103800008DF800001F208DF801006846FDF7CAF909
:103810001CBD1CB56F48006840F480506D49C43928
:10382000C1F8C40002208DF8020000208DF80400C9
:103830008DF803008DF8000019208DF8010068460E
:10384000FDF7B0F91CBD10B5FFF7E3FFFFF7C6FFAA
:1038500061496248FEF734FCFFF7BCFF10BD2DE95B
:10386000F04F89B04FF0000A012202215B48FEF7B9
:1038700012FD01215948FEF771FC00BF012202210F
:103880005648FEF73BFD0028F8D002215348FEF7CA
:103890001FFD8346002202215048FEF7FCFC5846DB
:1038A00002F052FB80464FF07E5102F0C9F9064605
:1038B000584602F049FB4A49079002F08AFC8046CC
:1038C000484902F089FB0746314602F027FA0546CF
:1038D00002F0E6FA041E01DB214600E061420846E0
:1038E00002F01AFB8146514602F0AAF982463D4990
:1038F000504602F013FA019002F076F9CDE9020188
:1039000001F0B0FA80460022374B01F0CDFD4FF0B8
:103910006042364BCDE9040101F00AFD064632460D
:103920000B460020324901F0BFFD4FF0C042314B41
:10393000CDE9060102F06EF8044601F0C7FC2E49FD
:10394000086009B0BDE8F08F70B501220521234859
:10395000FEF7A1FC01212148FEF700FC00BF012277
:1039600005211E48FEF7CAFC0028F8D005211B4897
:10397000FEF7AEFC0546002205211848FEF78BFC39
:10398000284602F0E1FA06461C4902F0C7F904464F
:103990001B4902F021FB1B49086070BD70B5022075
:1039A000FCF704FFC0F3C0251748007885420BD010
:1039B000002400E0641CB4F57A7FFBD3044800784F
:1039C00080F00100024908700F48057070BD0000CA
:1039D0001C000010C4C00F40A0860100004003403E
:1039E0000000B04000401C46000EAF40E1796B3F44
:1039F0000000F03F661271400C00001000F07F459F
:103A00000000C842100000100900001053EA020C28
:103A100000F069802DE9F04B4FF00006002B1FBF2E
:103A2000B3FA83F503FA05F424FA05F65E4012BFF3
:103A30001643B2FA82F502FA05F4C5F120051EBF5D
:103A400022FA05FC44EA0C04203556EA044C4FEAFD
:103A5000144418BF641C4FF000084FF00009904256
:103A600071EB030C39D3002919BFB1FA81F701FAC0
:103A700007F6B0FA80F700FA07F6C7F120071EBF75
:103A800020FA07FC46EA0C062037B6FBF4FCA7EB4D
:103A90000507103F07F01F0BCBF120060CFA0BFBBC
:103AA0002CFA06F644BFB3460026202FA4BF5E467C
:103AB0004FF0000B5BEA060C08BF4FF0010B19EB4F
:103AC0000B09ABFB027C48EB0608C01B06FB02CCD3
:103AD0000BFB03CC71EB0C01C1E70B4602464146E0
:103AE0004846BDE8F08B13B54FF000004FF00001E1
:103AF000AFF30080BDE81C40704700000FB41CB558
:103B0000074B06AA7B4469460090059800F0A3FB8A
:103B10000020694600F0B2FB1CBC5DF814FB0000FD
:103B20007507000070B50C460546012A05D02878B7
:103B3000800600D5EA69002302E0012305E05B1C52
:103B4000934202D2E05C0028F9D1A869E618C01AB5
:103B5000A861286A184428622846AFF3008004E070
:103B6000D5E9012114F8010B9047B442F8D3284657
:103B7000AFF3008070BD00002DE9F041064600243F
:103B800010687529314616A510D0AFF300800028C3
:103B900002DA404213A507E031688A0701D512A571
:103BA00002E0490704D511A5012401E0AFF300802C
:103BB00000210A2206F1240709E0B0FBF2FCB0FB69
:103BC000F2F302FB1C00303078541846491C0028E0
:103BD000F3D123462A463046BDE8F04100F0CEB886
:103BE000000000002D0000002B000000200000005D
:103BF0002DE9F05F894604464FF0000ADFF824B152
:103C0000FB44C0F820A02046E168884700287DD00A
:103C1000252806D0D4E901219047206A401C206263
:103C2000F1E700255F462046E168884720280646E0
:103C300007DB312E05D2B81910F8200C08B1054366
:103C4000F1E7A80701D525F00405C4F81CA000275A
:103C5000C4F818A02A2E09D0304601F0E6F838B38F
:103C600004EB8708303EC8F8186019E059F8041BC7
:103C7000204604EB87029161E1688847012F0646E0
:103C800018D1E069002820DA25F020051DE0D8F8D9
:103C9000180000EB800006EB40003038C8F8180030
:103CA0002046E1688847064601F0BFF80028EED1BB
:103CB000012F0AD02E2E08D12046E16888477F1CAC
:103CC0000646022F45F02005C4DBA069002803DA70
:103CD000404245F00105A061E80701D025F010053C
:103CE000A6B1A6F14100192802D8203645F4006596
:103CF0004A463146204625604D46FCF753FA60B1EE
:103D0000012807D0ED1D25F0070000E007E000F1D5
:103D1000080978E705F1040975E730467AE7206A73
:103D2000BDE8F09FB22D000010B5431C02E010F872
:103D3000011B71B18107FAD14FF0013202C88C1A10
:103D40008C4314EAC211F9D0C01A0A0603D0C01E6F
:103D500010BDC01A10BD0A0401D0801E10BD09029A
:103D6000FCD0401E10BD10B500F0A8FA006810BDD0
:103D700010B5044600F0A2FA046010BD2DE9F0472A
:103D80000D4699469246044600F1240801688806CB
:103D900004D5E06921F01001216000E00120A84273
:103DA00001DD471B00E00027A1697A1902EB090039
:103DB000081AA0612078C00602D42046AFF3008024
:103DC000002608E0D4E901211AF806009047206A8D
:103DD000401C761C20624E45F4DB2078C0060AD5D4
:103DE0002046AFF3008006E0D4E90121302090475F
:103DF000206A401C2062381EA7F10107F4DC07E0AE
:103E0000D4E9012118F805009047206A401C20627F
:103E1000281EA5F10105F3DC2046AFF300802078D1
:103E2000000602D50220BDE8F0870120FBE77047BD
:103E30002DE9FF4F0C461E464FF0FF378BB0D2E9FD
:103E40000001DDF860800A908A46C1F30A5505B981
:103E50003D46002108464FF00000BAF1000F00F483
:103E6000400005DA00EB80004FF4400101EA500009
:103E70004FEA9059B9F1010F00DDB9460A9850EAAE
:103E80004A000ED044F61050A5F2FF3545432F14DA
:103E9000B8F1000F1ED07542291E1EDDC9F10002C7
:103EA0001CE0B8F1010F4FF0000001D0302103E019
:103EB000F24305E02154401CB042FBDB30460022B7
:103EC000002121540B99C1F80880C1E900200FB0EE
:103ED000BDE8F08FBD1B6D1CDEE74A4600DA694283
:103EE00006A800F075FA06AB93E8070003AB83E879
:103EF000070050460A9900F055FB8DE80700A0F531
:103F000000501F3800900398002D0ADD42F21F0177
:103F10004A460844002303A90390684600F0BEFD0A
:103F200009E0A0F500504A461F38002303A903907A
:103F3000684600F0C8FD8DE807000004000C03D0BF
:103F40004FF0FF30410800E01046B8F1000F03D0F9
:103F50000022009215461EE0751E05D400F0B2F94D
:103F6000303262556D1EF9D5B3460122084302D0A6
:103F700000227F1C04E02078302801D100227F1E1F
:103F8000002A099784D01DE0112D07DA00F09AF974
:103F9000303262556D1C50EA0102F5D1084302D05F
:103FA0000098C8B10EE00021681E05E0235C625C49
:103FB00063542254401E491C8142F7DBAB46A81BC8
:103FC000401E0990002004F80B000B98099AC0F8D5
:103FD0000880C0E9002B7AE711264FF0000857E768
:103FE0002DE9F04F88460446D21D22F0070191B01A
:103FF000D1E90001CDE90A0100F09CFE02460B98D0
:10400000C00F01D02D2007E02068810701D52B20AB
:1040100002E0202101EAC000032A099001D0072A0A
:1040200005DB03464146204600F092F90BE120787B
:10403000800601D5E06900E00620B8F1650F8146F1
:1040400006D0B8F1660F18D0B8F1670F70D131E023
:104050000020B9F1110F009001DB112301E009F1FB
:1040600001030AAA01A90CA8FFF7E2FEDDE90C7022
:10407000002609F10105834647E001204B460090E8
:104080004FF000470AAA01A90CA8FFF7D1FEDDE90D
:104090000DB00C995D46002610B909F101000D180C
:1040A000B9EB050003D4C0F1FF3609F10105A5EB1A
:1040B00009002BE0B9F1010F01DA4FF001090020EE
:1040C000B9F1110F0090484601DD112300E00346CD
:1040D0000AAA01A90CA8FFF7ABFEDDE90C704D465A
:1040E00000268346207800070AD4AB4500DA5D46F7
:1040F00001A8012D04DD411911F8011C302907D058
:104100004F4502DA17F1040F04DA012082460FE06E
:104110006D1EEEE7002F02DCED1B3E4403E0781C31
:10412000A84200DD7D1CB81B00F1010A4FF00047DA
:104130002078000703D4AA4501DB4FF0FF3A0021A5
:10414000B7F1004F0DF143088DF8431024D0022041
:104150002B23002F01DA7F422D230A21021EA0F11A
:10416000010000DC5FB197FBF1FC97FBF1F201FB72
:104170001C7C17460CF1300C08F801CDEEE7A8F1D5
:10418000010003702188090501D5452100E0652162
:10419000A0F1010800F8011C09980FA9A1EB08077C
:1041A000FF1D00B10120411901EBEA70A1693844FB
:1041B000081A401EA0612078C00602D42046AFF342
:1041C0000080099828B1D4E901219047206A401C59
:1041D00020622078C00622D52046AFF300801EE082
:1041E000002E04DBB34502DD01A8805D00E0302035
:1041F000D4E901219047206A401C2062761CAAF174
:1042000001005FEA000A0AD100F054F8C0680168B2
:10421000405CD4E901219047206A401C2062281E9E
:10422000A5F10105DCDC07E0D4E9012118F8010B58
:104230009047206A401C2062381EA7F10107F3DC7A
:104240002046AFF30080032011B041E601694A1C0B
:1042500002610878704700B58FB0CDE901310021C7
:10426000059105497944CDE9031011466846FFF7E9
:10427000BFFC0FB000BD0000E5FFFFFF0A6802F8B9
:10428000010B0A60704710B5436913B1AFF30080AA
:1042900001E0FFF747FC012010BD127800F1240176
:1042A0000A7000224A700122EDE711684FF0FF32D8
:1042B000E9E700000048704748C007200048704701
:1042C00028C0072030B5B0F10A024FEA900E71F114
:1042D00000034EEA817EB0EB0E0061EB91014FEAE4
:1042E000101E4EEA017E10EB0E0041EB11114FEA59
:1042F000102E4EEA016E10EB0E0041EB11214FEA39
:10430000104E4EEA014E10EB0E0041EB11414018E9
:1043100041F100014FEAD00040EA41704FEAD1017B
:1043200010EB80054FEA810444EA907444EB0104E9
:104330006D1944EB0404521BA3414FF0000348BF26
:104340000A3200D530BD401C41F1000130BD0000F3
:104350002DE9F0411F46044603260168072A01F4AF
:10436000006004DB08B116A505E016A503E008B15E
:1043700015A500E015A521F010002060A069C01E61
:10438000A0610FB1401EA0612046AFF300804FB185
:10439000D4E9012138469047206A401C2062C01CA5
:1043A000206206E0206AFAE7D4E9012115F8010B42
:1043B0009047761EF8D22046AFF30080BDE8F0812A
:1043C0004E414E006E616E00494E4600696E6600B9
:1043D0002DE9F047814616468AB0354878440DC825
:1043E0008DE80D0032487844801C03AC0DC884E889
:1043F0000D0041F69B300844372190FBF1F290FB11
:10440000F1F5A5F1800501FB12041B3C02D56442C5
:10441000012000E00020DFF898A080460027FA4441
:10442000AAF1BE0A0EE0E0070AD03246684607EB62
:10443000470101230AEB810100F045FB8DE80700ED
:1044400064107F1C002CEED1194F7F44AE3F19E061
:10445000E80715D007EB04100DF1180A90E80E00DC
:104460008AE80E00C068F04201D1981908903246DF
:10447000012306A903A800F026FB03AB83E807008D
:104480006D10641C002DE3D14FF0010332466946E4
:10449000B8F1000F03A802D000F000FB01E000F02B
:1044A00012FBC9E90001C9F808200AB0BDE8F0878D
:1044B000A42600000048704728C007207546FFF773
:1044C000F9FFAE4605006946534620F007008546D1
:1044D00018B020B5FBF79EFEBDE820404FF0000667
:1044E0004FF000074FF000084FF0000B21F00701DC
:1044F000AC46ACE8C009ACE8C009ACE8C009ACE81F
:10450000C0098D46704710B50446AFF300802046C1
:10451000BDE81040FBF769BE4FF0013C50F8042B9A
:1045200051F8043B9A4221D1A2EB0C03934313EAC6
:10453000CC1317D150F8042B51F8043B9A4215D1F3
:10454000A2EB0C03934313EACC130BD150F8042BCA
:1045500051F8043B9A4209D1A2EB0C03934313EAAE
:10456000CC13DBD04FF00000704700BFD01A01BA67
:10457000B1FA81F101F0180122FA01F0CB40C1F14A
:104580002001DBB2C0B2C01A2CFA01F3D11A914358
:1045900011EAC311E6D1704701491820ABBEFEE70E
:1045A000260002005FEA400C08BF91F0000F4FEABE
:1045B0008C234FEAC12243EA51514FEA1C5018BFE5
:1045C00000F5F0404FEA300018BF41F000415FEACB
:1045D0006C5C00F02980BCF1FF3F08BF40F08040D8
:1045E0007047130C06BF12044FF0100C4FF0000C74
:1045F000130E04BF12020CF1080C130F04BF1201BA
:104600000CF1040C930F04BF92000CF1020CD30FB9
:1046100004BF52000CF1010C11464FF00002A0F152
:104620001F00A0EB0C00704711F0004F08BF70474F
:1046300031F000413FF4D5AF0B0C06BF09044FF039
:10464000100C4FF0000C0B0E04BF09020CF1080C0B
:104650000B0F04BF09010CF1040C8B0F04BF890080
:104660000CF1020CCB0F04BF49000CF1010CCCF192
:104670002003A0EB0C0022FA03F302FA0CF241EA49
:10468000030100F10100704720F07F4C80EA030035
:1046900023F07F47ACEB070303F57C5300F00040A9
:1046A00003F1FF032DE980494FEA154B09B44FEAA6
:1046B000144325EA0B4E24EA03480FF2042606EBC6
:1046C000132749083E785FEA320203FB0667C7F505
:1046D000000707FB06F64FEA54374FEAD64606F1C5
:1046E000020607FB066CCCF1005C4FEA1C472CEA83
:1046F000074C07FB06F40CFB06F504EB15464FEAE6
:10470000961634BF00204FF000404FEAD13706FB29
:1047100007FC4FEA1C4C0CFB0BF7D21B03FB0CF7FE
:1047200061EB07010CFB0EF7B0EB074072EB174291
:104730000CFB08F734BFA2EB0742B2EB074261EB78
:1047400017414FEA0C444FEA910706FB07FC4FEA7A
:104750001C4C0CFB0BF7B0EBC74072EB573203FB62
:104760000CF734BFA2EBC742B2EBC74261EB573143
:104770000CFB0EF7B0EBC70072EB57720CFB08F79F
:1047800034BFA2EBC702B2EBC70261EB5771039FC4
:104790004FEA816141EA921104EBCC044FEAD13730
:1047A0004FEA826206FB07FC42EA90124FEA806001
:1047B0004FEA1C4C0CFB0BF7D21B03FB0CF761EB15
:1047C00007010CFB0EF7B0EB074072EB17420CFB36
:1047D00008F734BFA2EB0742B2EB074261EB174187
:1047E0004FEA8C554FEA910704EB9C2406FB07FC2B
:1047F0004FEA1C4C0CFB0BF7B0EBC74072EB573287
:1048000003FB0CF734BFA2EBC742B2EBC74261EB2C
:1048100057310CFB0EF7B0EBC70072EB57720CFB75
:1048200008F734BFA2EBC702B2EBC70261EB5771C6
:1048300015EB4C254FEA816141EA92114FEA826201
:104840004FEAD13742EA901206FB07FC44F100041C
:104850004FEA80604FEA1C4C0CFB0BF7D21B03FBAA
:104860000CF761EB07010CFB0EF7B0EB074072EBA6
:1048700017420CFB08F734BFA2EB0742B2EB07422A
:1048800061EB174115EB1C154FEA813141EA92416A
:104890004FEA823242EA90424FEA80304FEA0C7689
:1048A00044F1000448EA03434EEA0B484FF0000E7F
:1048B000B2EB080C71EB030724BF624639464EEB9E
:1048C0000E0E4FF0000B0018524149414BEB0B0B01
:1048D000B2EB080C71EB03077BF1000B24BF6246BF
:1048E00039464EEB0E0E4FF0000B00185241494175
:1048F0004BEB0B0BB2EB080C71EB03077BF1000BDE
:1049000024BF624639464EEB0E0E51EA020718BF2D
:1049100046F0010616EB0E7655F1000254F1000147
:1049200003D5BDE88901BDE80088BDE88901BDE87F
:104930000048B619524141EB0101A3F10103704750
:1049400080807F7E7D7C7B7A7978777676757473CC
:10495000727171706F6E6E6D6C6C6B6A6A6968688B
:10496000676666656464636362616160605F5F5E21
:104970005E5D5D5C5C5B5B5A5A5959585857575697
:1049800056555555545453535252525151505050FC
:104990004F4F4F4E4E4D4D4D4C4C4C4B4B4B4A4A4E
:1049A0004A49494948484847474747464646454592
:1049B00045444444444343434342424242414141CB
:1049C000002B9C4630D477002BD01CB54FEA37071C
:1049D00003B44FF010004FF01001BAF1000F06D0F1
:1049E000BCF1000FDCBF40F0080040F008014FF0C0
:1049F00000000FBCBDE810400BF1010BBBF1010F33
:104A000008BF5FEA170722BF12F1010211F101018D
:104A10004FF0004143F1000300F0004043EA000082
:104A20007047F9D35708D0E746EA064613F1400F1E
:104A30004FEA16461FDD13F1200FDFBF16430A466B
:104A4000002120335B42BED0C3F1200746EA064670
:104A500002FA07F74FEA164646EA0706C3F12007AF
:104A600022FA03F201FA07F721FA03F14FF00003EB
:104A700042EA0702A7E746EA020646EA06464FEA86
:104A8000164646EA0106BCBF46EA0646360C4FF01B
:104A900000034FF000024FF0000194E72DE9804C35
:104AA0009A46934670B491E8380007C831EA400C42
:104AB00048BF34EA430C03D5FFF7E6FDFFF780FF5C
:104AC000F0BCBDE8008C2DE9804C9A46934670B44A
:104AD00091E8380007C810F0804F08BF13F0804FEE
:104AE00003D100F005F8FFF76BFFF0BCBDE8008CC8
:104AF00020F07F4780EA030023F07F4C07EB0C0394
:104B0000A3F57C5300F00040A3F1FE0392F0000FE8
:104B100000F0B38095F0000F00F077802DE9014997
:104B20004FEA11404FEA144621EA004800FB06FC18
:104B300024EA064708FB06F607FB08F800FB07F720
:104B400018EB06484CEB164C4FEA124B18EB074893
:104B50004FEA15464CEB174022EA0B4E0BFB06FCC6
:104B600025EA06470EFB06F607FB0EFE0BFB07F7D2
:104B70001EEB064E4CEB164C4FF000061EEB074E9C
:104B80004CEB174B18EB0B0840F1000018EB0E0B29
:104B900058EB000840F100008F1A4FF000013CBFB5
:104BA000C943661B14BFB5EB040C00213CBFC943CD
:104BB000F61B4FEA17444EEA8E0E27EA04454FEAE9
:104BC0001C4704FB07622CEA074C05FB07F70CFBAC
:104BD00005F604FB0CFC16EB074642EB174216EBFE
:104BE0000C4642EB1C421BEB060658EB020241410D
:104BF00046EA9E0601D5BDE80189B619524141EB4E
:104C00000101A3F10103BDE801894FEA14454FEA10
:104C1000114724EA054621EA074C05FB07F406FB89
:104C200007F70CFB06F105FB0CFC11EB074144EB0D
:104C300017444FEA124711EB0C4144EB1C4422EAA3
:104C4000074C05FB07F206FB07F70CFB06F605FB16
:104C50000CFC16EB074642EB174216EB0C4642EBF8
:104C60001C456A1854F1000148BF7047B6195241FB
:104C700041EB0101A3F10103704795F0000F37D01C
:104C80004FEA11424FEA144721EA024624EA074C50
:104C900002FB07F106FB07F70CFB06F402FB0CFC1A
:104CA00014EB074441EB17414FEA154714EB0C4452
:104CB00041EB1C4125EA074C02FB07F506FB07F711
:104CC0000CFB06F602FB0CFC16EB074645EB174502
:104CD00016EB0C4645EB1C42121951F1000148BF7E
:104CE0007047B619524141EB0101A3F1010370472E
:104CF0004FEA14454FEA114724EA054621EA074CDA
:104D000005FB07F106FB07F70CFB06F24FF0000668
:104D100005FB0CFC12EB074241EB174112EB0C4276
:104D200051EB1C4148BF7047921841EB0101A3F1C0
:104D300001037047490050EAC12018BF04204A0D02
:104D400018BF40F0010040F2FF72B2EB515F08BFA4
:104D500040F00200012808BF052070472DE9F0410E
:104D60004F1E00EBC7010446D1E9000115461E465F
:104D700037F006020DD02A46334600F041FD7F1E73
:104D800004EBC703D3E9002300F0D2FA37F00602A0
:104D9000F1D1022F25D0042F13D0062F18BFBDE864
:104DA000F0812A46334600F02BFDD4E90A2300F0B7
:104DB000BFFA2A46334600F023FDD4E9082300F069
:104DC000B7FA2A46334600F01BFDD4E9062300F06B
:104DD000AFFA2A46334600F013FDD4E9042300F06D
:104DE000A7FA2A46334600F00BFDD4E9022300F06F
:104DF0009FFA2A46334600F003FDD4E90023BDE8BC
:104E0000F04100F095BA0000002213461046014917
:104E100000F04ABB0000F03F012201F08EBA0022F0
:104E200013461046114600F03FBB30380A2801D225
:104E300001207047002070470949096C41F0FF01CB
:104E4000074A11644FF0807191634900D1631146A4
:104E500048654FF400019163D163011251657047B9
:104E600000C009202DE9F04DC84A002490B09142BD
:104E700005DA21F00043934201D805D120B110B0EA
:104E8000BDE8F04DFFF7C8BFB1F5801F1BDA53EA4C
:104E9000000209D0002911DA0120FEF769FF10B0E5
:104EA000BDE8F04DFFF7BBBF0220FEF761FFFFF743
:104EB000ABFF10B081F00041BDE8F08D6FF035041C
:104EC000362201F03AFA04EB2152C1F31308B0493B
:104ED000A2F2FF33414401F4801282F07F6103EBC0
:104EE000225281F04051009241EA08010022A94B70
:104EF00000F090FD044608F10200A74EC0F3130035
:104F00000D467E44032867D2D6E90023204600F0F0
:104F100023FC1ED10098002802BFD6E9000110B082
:104F2000BDE8F08D00F054FC07460C469B4A9C4BB4
:104F300000F066FC06460D469A4A9B4B38462146D1
:104F400000F05EFC10B032462B46BDE8F04D00F09C
:104F5000EFB94FF05532954B2046294600F050FCF2
:104F60000022934B00F04AFD06460F4622462B4690
:104F70001046194600F044FC32463B4600F040FC27
:104F8000064600980F46F0B100F022FC80468A46A3
:104F9000824A834B00F034FC32463B4600F02EFD43
:104FA00022462B4600F036FD05460C467D4A7E4BD8
:104FB0004046514600F024FC10B02A462346BDE886
:104FC000F04D00F027BD0B4610B032462046294672
:104FD000BDE8F04D00F01EBD00224FF0804320469A
:104FE00000F0A6F902460B462046294600F05CFA7E
:104FF00006460F46009800F0EBFBCDE9040132466F
:105000003B461046394600F0FBFB0C9069480C9A71
:105010004044019009910B46104600F0F1FB824696
:10502000024665488B46C8F151080B4608F5D7285B
:1050300003217844FFF792FE52465B4600F0E0FB06
:105040000A905E480D9152465B4604217844FFF772
:1050500085FE099B0C9A00F0D3FB844601980D9BBA
:1050600040EA080860460A9A00F062F9834608910F
:10507000B8F1000F4EDD4FF0FF322046294601F017
:105080005CF922462B4600F0BBFB804600988A461E
:1050900060B3DDE90401414A414B00F0B1FB0991E5
:1050A00000905A4640465146089B00F041F932466E
:1050B0003B4600F0A5FB099B009A00F039F94246F7
:1050C000534600F09BFC22462B4600F0A3FC04460E
:1050D0000D46DDE90401334A334B00F091FB10B07B
:1050E00022462B46BDE8F04D00F094BC5A4640469F
:1050F000089B00F01DF932463B4600F081FB42461A
:10510000534600F07BFC10B022462B46BDE8F04D24
:1051100000F074BC009840B3DDE904011F4A204B45
:1051200000F06EFB80468A465A4620462946089B78
:1051300000F070FC32463B4600F062FB42465346AC
:1051400000F068FC22462B4600F064FC04460D4645
:10515000DDE90401134A144B00F052FB10B0224663
:105160002B46BDE8F04D00F055BC0B465A46204694
:10517000294600F04FFC32463B4600F041FB10B0A0
:1051800022462B46BDE8F04D00F038BC0000F07F11
:10519000645F09000000F03FFA1A0000763C7935A0
:1051A000EF39EA3D0000E0FE422EE63F5555D53F7F
:1051B0000000E03F86EBF9FF921900009019000013
:1051C00070B500254FF480001A49C86180108861CD
:1051D000C00088618010C861012000F02DF800BF78
:1051E0001448006C20F0FF00124908644FF08070F2
:1051F000C8634000C863322000F01EF80D485430E8
:1052000004784FF000700B498863322000F014F8E6
:10521000084890F8540040EA04244FF08070054993
:10522000886300BF2546C010886140008861284619
:1052300070BD000000C0092008B5009000BF0099B3
:105240004A1E00920029FAD108BD000010B504469C
:105250004FF480000C49C8618010C861400088612B
:105260002046FFF7E9FD4620FFF7E6FF4FF4000078
:105270000549C8610120FFF7DFFF4FF40000024934
:1052800088614010886110BD00C0092070B50546D6
:105290000C462846FFF7DAFF2046FDF7CDF870BD33
:1052A00010B500290AD00878002807D005487844AE
:1052B000FFF732F9002801D0002010BD02487844E1
:1052C00010BD00001E1800001618000021F000425A
:1052D000A2F16052B2F5801F01F0004328BFD2F165
:1052E0007F6C0BD95FEA001C43EAC20242EB5070AC
:1052F00018BF704728BF20F001007047B2F5801F2B
:10530000BCBF184670474FEA410C1CF5001F02D283
:10531000084600F028BF70B500F01CFB00000089B3
:10532000FFF7F6BF4FF00040A0F580007047000087
:1053300010B591EA030F48BF83F0004300F1728378
:10534000841A71EB030C05D2121943EB0C03001BFA
:1053500061EB0C01DFF824E14FEA1154A4EB135C7C
:105360001EEA430F18BF9EEA445F73D023EA0E0380
:10537000DCF1200E21EA045143F4801332D322FAE7
:105380000CFE10EB0E0023FA0CFE41EB0E01CCF1EB
:10539000200E03FA0EFE10EB0E0051F10001B1F5E4
:1053A000801FCCF1200E32D201EB045112FA0EF222
:1053B000BDE8104058BF7047401C38BF5FEA42024A
:1053C00018BF7047002814BF20F0010041F1000110
:1053D0004FEA410313F5001F38BF7047A1F1C041E8
:1053E00000F006BB012A43EB0302ACF1200CDCF118
:1053F0001F0E32BF4FF0000E23FA0CF310EB030028
:1054000041EB0451B4EB115FD0D0A1EB045101F595
:10541000801149085FEA300001EB04510ED350F1CE
:10542000000038BF12FA0EFE08D1BDE81040C9E7EF
:10543000401C38BF5FEA4202CAD1C3E7BDE8104052
:105440004FEA410313F5001F38BF7047A1F1C04177
:1054500000F0CEBA9EEA445F08D011EA5E0FBDE8C4
:10546000104004BF01F0004100207047BDE810402B
:1054700070B500F06FFA00BF64FBBE3E0000E0FFB5
:1054800002494FF0000000F026BF00BF0000F87F87
:10549000491058BFC1F140415B1058BFC3F14043B0
:1054A0008B42EFF3008070472DE9C04130B4DFF844
:1054B000A0C23CEA111418BF3CEA131400F0EC80BF
:1054C00081EA03051CEA111444EAD57418BF1CEAEA
:1054D000131500F0C780A4EB05044FF0004545EA22
:1054E000C12145EAC32341EA505143EA525304F132
:1054F0007F74994204F500344FEAC0204FEAC2227B
:1055000008BF904200F09C804FEA13650FF24016EE
:10551000765D4FEA134506FB05F7C7F1807706FB7A
:1055200007F74FEAD737A7FB03687642C8F58038FC
:10553000A7FB06CE38BFA8F1010807FB08E64FF02D
:10554000000EA6FB028CE6FB03CEDCF1000CCEF1D4
:10555000004E38BFAEF1010EA6FB0C584FF000070D
:105560004FF00005E6FB0E87A1FB08C6A0FB07CEA7
:1055700016EB0E0645F10005E1FB076515F1E04E5F
:105580007EBFA4F580345FEA46066D4116F18007C0
:1055900045F100054FEA17274FEA066647EA056717
:1055A000A6F1DE46B6F1805F4FEA15251FD93846D1
:1055B00024F0010C05EBC471BCF1FE6F01EB0C1182
:1055C00002D8F0BCBDE8008124425CBF01F5801E1A
:1055D0009EEAC47F02D4F0BCBDE80081244238D4E6
:1055E000F0BCA1F1C041BDE8004100F001BA4FEAB2
:1055F000D22242EA43524FEAD323A7FB02864FEA64
:10560000D02040EA415007FB03661EEA0E0F4FEA26
:10561000D12105FB026658BFA6EB0056B6EB00563B
:105620004FEA520E4EEAC37E18EB0E0E56EB530EA7
:10563000BDD518EB02085E417F1C55F10005B6E7A9
:105640004FF480154FF000074FF000064FF00008B0
:10565000ADE7F0BC4FF0000001F1C04101F00041A6
:10566000BDE8008111EA0C1F0CEA131500D00CE014
:1056700013EA0C1F00F025804FF00000F0BC81EA17
:10568000030101F00041BDE80081F0BCBDE800412C
:1056900081EA030100F0ACB9F0BCBDE8004170B58F
:1056A00000F058F9097EFC3E00F007B881EA0301DA
:1056B0004FF0000001F00041704781EA030100F063
:1056C00097B9F0BCBDE800414FF000002149704798
:1056D000FFFDFBF9F7F5F4F2F0EEEDEBE9E8E6E4B7
:1056E000E3E1E0DEDDDBDAD8D7D5D4D3D1D0CFCD3E
:1056F000CCCBCAC8C7C6C5C4C2C1C0BFBEBDBCBB77
:10570000BAB9B8B7B6B5B4B3B2B1B0AFAEADACAB71
:10571000AAA9A8A8A7A6A5A4A3A3A2A1A09F9F9E4B
:105720009D9C9C9B9A9999989797969595949393FD
:10573000929191908F8F8E8E8D8C8C8B8B8A898994
:105740008888878786858584848383828281818017
:105750000000FF070000F87F51EA030C17D41CF586
:10576000801F58BFBCF5801F00F10680994218BF0A
:10577000704708BF9042704707D711F5801F58BF88
:1057800013F5801F19D499427047894270471CF560
:10579000801F08D5BCF5801FF7D58B4218BF704716
:1057A00008BF824270474FF4001C1CEB410F38BF0A
:1057B0001CEB430F01D28B42704770B500F0CAF862
:1057C000922449004FF000514FF08053FFF760BE24
:1057D00010F0004248BF4042B0FA80F310FA03F1E3
:1057E0000AD0C3F11D0303F580634FEA415002EB79
:1057F000035202EBD12170474FF0000070470000C8
:10580000DFF848C170B51CEA111E1EBF1CEA131553
:105810009EEA0C0F95EA0C0F00F06F8081EA0304FA
:1058200023EA4C134EEAD47E21EA4C1141F4801154
:1058300043F48013AE44A1FB024CA0FB0365AEF120
:105840007F7E361955EB0C05A1FB034C4CF1000390
:10585000A0FB021C16EB0C06654153F10003094244
:1058600018BF46F0010613F4007F0BD14FEA033155
:105870004FEA0530340341EA155140EA16506FF003
:1058800003020AE04FEAC3214FEAC520F40241EACD
:10589000555140EA56506FF0020202EB2E4201EBE6
:1058A000025585EACE710AD05FEA440C18BF24F095
:1058B000004450F1000041F1000120EAD47040F2B0
:1058C000FE7C624500D270BDA84214BF4FF08044F8
:1058D0004FF04044002E08BF0024BEF1806FA8BFE7
:1058E000A1F1C041BDE8704080F282804FF000001D
:1058F00001F1C04101F0004170479EEA0C0F0CEA33
:10590000131518BF95EA0C0F06D04FF0000081EA7E
:10591000030E0EF0004170BD00F01CF88900013E3E
:1059200000F007B800F009B84FEA430C5FEA5C5C8E
:1059300008D081EA030100F05BB84FEA410C5FEA4E
:105940005C5CF6D14FF00000014970470000FF0792
:105950000000F87F0EF1020E2EF0030E5EF8046BCD
:10596000364205D4012A43EB030515F5001F12D872
:10597000012841EB010C1CF5001F0CD80ED14FEA99
:10598000D17C15F5001F0CEB4C0C0CF1020C08BF80
:105990004CEBD37C04E04FF0080C01E04FEAD37CE1
:1059A0000CEB4C0526FA05F606F00706B6F1040CDA
:1059B00006D20EEB860CBDE870404CF0010C60473F
:1059C000DFE80CF0090B02024FF000414FF000003D
:1059D000A1F5002170BD19461046012851EB0104C4
:1059E00018BFD4F5001484BF002001F0004170BD41
:1059F0000808A0F500114FEA3101704791EA030F42
:105A000010B581F000413FF59BAC83F0004300F0FE
:105A100009B8000010B591EA030F48BF83F00043B6
:105A20003FF58EAC841A71EB030C07D212198CF07F
:105A3000004C43EB0C03001B61EB0C01DFF8A4E10D
:105A40004FEA1154A4EB135C1EEA430F18BF9EEA01
:105A5000445F00F0B08023EA6E03524221EA045111
:105A6000C3EB6E0338BF5B1EDCF1200E25D322FA98
:105A70000CFE10EB0E0043FA0CFE41EB0E01CCF1D4
:105A8000200E03FA0EFE10EB0E0051F10001CCF1D6
:105A9000200E29D412FA0EF201EB0451BDE8104099
:105AA00058BF7047401C1CBFB2F1004F7047002820
:105AB0000CBF491C20F00100704712EB020E43EBB3
:105AC000030218BF4FF0010E4EEA4202ACF1200C67
:105AD000DCF11E0E54D943FA0CFE10EB0E0051F10E
